:02000002D0002C
:1040000000400D0024880D00000006000E00050190
:0840100004017E050000000020
:04401800887E0D0091
:10401C0009480A49884208B505D0094A824202D0AB
:10402C00121A02F0EEFD0748074A0021121A02F09C
:10403C00F3FD014808BD00BFB0E1032040870D002F
:10404C006CE203206CE20320F0E7032070B501F072
:10405C008FFB074C074BE41AA40800251E46A5420B
:10406C0004D056F8253098470135F8E770BD00BFED
:10407C0038870D00F8860D0000F024B808B500F064
:10408C0057F8BDE8084001F041BB00F0C9BC00F096
:10409C00C7BC00F0CDBC00F0CBBC0078B0FA80F00F
:1040AC004009704701230370704708B5002000F0E9
:1040BC00A7FC28B100F08CFC80F00100C0B208BD58
:1040CC00012008BD1FB501F057FC4FF4165101F04B
:1040DC0047FCB7EE000A01F0D3F901F04DFC0446A1
:1040EC00684600F07DFC0099204601F03CF96846DA
:1040FC0001F0A2F800F06CFC10B1002000F078FC8C
:10410C00FFF7D3FF10B900F05BFCF9E7FFF7CDFF29
:10411C00054800F0C9F8054800231A4619464068BE
:10412C0000F0FEFB04B010BD80E203200CE4032081
:10413C0070B5274CCAB0204600F0A0F9204610EE0E
:10414C00105A00F0ADF98DED090A01F088FA064617
:10415C000BA800F045FC1F4B1F491B680B9C3246FB
:10416C000FA801F029FA9DED090A252310EE100A7B
:10417C00069302F0A1FB4323CDE9040128460293E8
:10418C0002F09AFB0F9B2246CDE90001134913A8BC
:10419C0000F05EFC0FA801F04FF80BA801F04CF8F2
:1041AC0001F0EAFB13AB0E4A012101F015F913AA39
:1041BC000C490D4801F0F4FE01F0DEFB0B4901F057
:1041CC00D2F84FF47A7001F05BFA4AB070BD00BFC0
:1041DC0080E20320B0E10320B0E20320A57E0D00B5
:1041EC000A7F0D000D7F0D0014E40320187F0D00D5
:1041FC0010B5094C00F06EF9204600F0F1FB074AAF
:10420C000749204602F088F8062211210548BDE82E
:10421C00104000F043B800BF70E203206CE20320B2
:10422C0045520D0080E2032000F054B910B503682C
:10423C002F2B044604D9074A00210A2000F022FB48
:10424C0023681F2B83BF03F01F03236002484FF02A
:10425C00A04010BDB1450D000003005007B502ABE6
:10426C0043F8040D1846FFF7E1FF019A0123934030
:10427C00C0F8083503B05DF804FB07B502AB43F892
:10428C00040D1846FFF7D2FFD0F81035019823FA29
:10429C0000F000F0010003B05DF804FB0272012293
:1042AC00817102747047000010B5002104468079BA
:1042BC0001F0DEFF074AA37912681B01D118D05C0C
:1042CC004B7803F01F0343EA4010FFF7C7FF0023AE
:1042DC00E36010BD94E203202DE9F74F044600F093
:1042EC0069F9E368834284BF0023E360237C33B91C
:1042FC00E368C01AB0F5FA6F01D20120A8E00025DE
:10430C00554E257400F056F9A3793268E0601B0114
:10431C00D1182571E570A57065702570D05C4B784F
:10432C0003F01F0343EA4010FFF798FFFA2001F057
:10433C00A7F90121A07901F09BFFA37932681B0139
:10434C00D118D25C4B7802A803F01F0343EA421346
:10435C0040F8043DFFF76AFF019B4FF0010808FA93
:10436C0003F3C0F80C35142001F08AF901F02AFB94
:10437C00A37932681B01D118D05C4B7803F01F0372
:10438C0043EA4010FFF76AFF282000F00BF929469A
:10439C00A07901F06DFF2F464FF0000BA379326826
:1043AC001B01D11812F803A04B7803F01F0343EA4A
:1043BC004A1A5046FFF761FF5046FFF75EFF8045F3
:1043CC005FFA8BF908D101200BF1010B00F0EAF830
:1043DC00BBF1FF0FE2D1D946A37932681B01D1188A
:1043EC0012F803804B7803F01F0343EA4818404649
:1043FC00FFF743FF4046FFF740FFB9F1FF0F5FFAAD
:10440C0080F814D0032D0ED9EB070CD4FA08013721
:10441C00A35C5B00DBB2A354217A49453CBF43F05B
:10442C000103A354FFB20135EDB2552DB4D101F007
:10443C00CBFA272F0BD92278637821791344A278F1
:10444C001344E2781344DBB299423FF456AF002098
:10445C0003B0BDE8F08F00BF94E2032010B5044612
:10446C00FFF73AFF28B1A37800EE103AB8EE400AF5
:10447C0010BD9FED010A10BD0000C07FFFF7EEBF1D
:10448C0010B50446FFF728FF28B1237800EE103A48
:10449C00B8EE400A10BD9FED010A10BD0000C07FB0
:1044AC00FFF7EEBF08B500F015F8014B186008BD1A
:1044BC0094E2032008B5024B1B689B68019308BD6E
:1044CC006802030008B5024B1B68DB68019308BD4A
:1044DC006802030008B5024B1B681B68019308BDFA
:1044EC002C02030008B5024B1B689B68019308BDA6
:1044FC002C02030008B5024B1B681B6A019308BD14
:10450C002C02030008B5024B1B685B6A019308BDC3
:10451C002C02030008B5024B1B68DB69019308BD34
:10452C003002030008B5024B1B681B6A019308BDDF
:10453C003002030008B5024B1B681B69019308BDD0
:10454C006C02030008B5024B1B685B69019308BD44
:10455C006C02030008B5024B1B689B69019308BDF4
:10456C006C02030008B5024B1B685B6D019308BD20
:10457C006C02030008B5024B1B689B6D019308BDD0
:10458C006C02030008B5024B1B685B68019308BD05
:10459C001802030008B5024B1B689B68019308BD09
:1045AC001802030008B5024B1B68DB68019308BDB9
:1045BC001802030008B5024B1B685B69019308BD28
:1045CC001802030008B5024B1B68DB69019308BD98
:1045DC001802030008B5024B1B689B6D019308BDC4
:1045EC001802030008B5024B1B685B68019308BDF9
:1045FC004802030008B5024B1B689B68019308BD79
:10460C004802030008B5024B1B681B69019308BDE7
:10461C004802030008B5024B1B685B69019308BD97
:10462C004802030008B5024B1B681B6B019308BDC5
:10463C004802030008B5024B1B685B6C019308BD74
:10464C004802030008B5024B1B68DB6C019308BDE4
:10465C004802030008B5024B1B685B6D019308BD53
:10466C004802030008B5024B1B68DB6E019308BDC2
:10467C004802030008B5024B1B685B69019308BD37
:10468C006402030008B5024B1B689B69019308BDCB
:10469C006402030008B5024B1B681B6A019308BD3A
:1046AC006402030008B5024B1B685B6A019308BDEA
:1046BC006402030008B5024B1B689B6A019308BD9A
:1046CC006402030008B5024B1B681B68019308BD0C
:1046DC003C02030008B5024B1B68DB68019308BD64
:1046EC003C02030008B5024B1B681B69019308BD13
:1046FC003C02030008B5024B1B685B69019308BDC3
:10470C003C02030008B5024B1B689B69019308BD72
:10471C003C02030008B5024B1B68DB69019308BD22
:10472C003C02030008B5024B1B681B6A019308BDD1
:10473C003C02030008B5024B1B689B6A019308BD41
:10474C003C02030008B5024B1B681B6A019308BDB1
:10475C002802030008B5024B1B685B6A019308BD75
:10476C002802030008B5024B1B689B6A019308BD25
:10477C002802030008B5024B1B68DB6A019308BDD5
:10478C002802030008B5024B1B681B6B019308BD84
:10479C002802030008B5024B1B685B6B019308BD34
:1047AC002802030008B5024B1B681B6C019308BD63
:1047BC002802030008B5024B1B685B68019308BD17
:1047CC003802030008B5024B1B689B69019308BDB6
:1047DC003802030008B5024B1B68DB69019308BD66
:1047EC003802030008B5024B1B68DB6A019308BD55
:1047FC003802030008B5024B1B685B6B019308BDC4
:10480C003802030008B5024B1B689B6B019308BD73
:10481C003802030008B5024B1B681B68019308BDE6
:10482C004C02030008B5024B1B685B68019308BD82
:10483C004C02030008B5024B1B681B69019308BDB1
:10484C004C02030008B5024B1B685B69019308BD61
:10485C004C02030008B5024B1B689B69019308BD11
:10486C004C02030008B5024B1B68DB69019308BDC1
:10487C004C02030008B5024B1B681B6A019308BD70
:10488C004C02030008B5024B1B685B6B019308BD1F
:10489C006002030008B5024B1B681B6D019308BD39
:1048AC006002030008B5024B1B681B68019308BD2E
:1048BC002002030008B5024B1B685B68019308BD1E
:1048CC002002030008B5024B1B685B69019308BD0D
:1048DC002002030008B5024B1B689B6D019308BDB9
:1048EC002002030008B5034B1B68D3F888300193F2
:1048FC0008BD00002002030008B5034B1B68D3F869
:10490C009430019308BD00002002030008B5034B4E
:10491C001B68D3F8A430019308BD000020020300EB
:10492C0008B5024B1B685B68019308BD400203008D
:10493C0008B5024B1B689B68019308BD400203003D
:10494C0008B5024B1B68DB68019308BD40020300ED
:10495C0008B5024B1B681B69019308BD400203009C
:10496C0008B5024B1B685B69019308BD400203004C
:10497C0008B5024B1B689B69019308BD40020300FC
:10498C0008B5024B1B68DB69019308BD40020300AC
:10499C0008B5024B1B681B6A019308BD400203005B
:1049AC0008B5024B1B681B6B019308BD400203004A
:1049BC0008B5024B1B685B6B019308BD40020300FA
:1049CC0008B5024B1B689B68019308BD44020300A9
:1049DC0008B5024B1B685B69019308BD44020300D8
:1049EC0008B5024B1B68DB69019308BD4402030048
:1049FC0008B5024B1B68DB6A019308BD4402030037
:104A0C0008B5024B1B681B6B019308BD44020300E5
:104A1C0008B5024B1B68DB6B019308BD4402030015
:104A2C0008B5024B1B681B68019308BD1C020300F0
:104A3C0008B5024B1B685B68019308BD1C020300A0
:104A4C0008B5024B1B689B68019308BD1C02030050
:104A5C0008B5024B1B68DB68019308BD1C02030000
:104A6C0008B5024B1B681B69019308BD1C020300AF
:104A7C0008B5024B1B689B69019308BD1C0203001F
:104A8C0008B5024B1B68DB69019308BD1C020300CF
:104A9C0008B5024B1B681B6A019308BD1C0203007E
:104AAC0008B5024B1B685B6A019308BD1C0203002E
:104ABC0008B5024B1B68DB6A019308BD1C0203009E
:104ACC0008B5024B1B681B6B019308BD1C0203004D
:104ADC00002211464068FFF75BBF00221146406878
:104AEC00FFF766BF00224068FFF75ABF002281F033
:104AFC0001014068FFF744BF00231A46194640687D
:104B0C00FFF736BF00231A4619464068FFF728BF47
:104B1C00002211464068FFF71BBF00221146406877
:104B2C00FFF706BF002202214068FFF709BF0023F0
:104B3C001A464068FFF7F4BE024B03225A60024A41
:104B4C001A60704798E203202C7F0D00704710B557
:104B5C001021044601F0EEFB204610BD70B5084B49
:104B6C000360044600250E4640F80C5FFFF75AFD23
:104B7C0030462671FFF7CEFCA560204670BD00BF05
:104B8C00607F0D000079FFF7CDBC0000044B0020C6
:104B9C004FF6FF72187058809A80FFF78BBE00BFDB
:104BAC00A0E2032010B40468246BA4465DF8044B07
:104BBC00604703689B6C1847808E7047028FC08ECD
:104BCC00101A704713B502AB026803F8011DD468C4
:104BDC0019460122A04702B010BD10B503681B692D
:104BEC000446984728B1E38EE26B591CE186D05CF1
:104BFC0010BD4FF0FF3010BD10B503681B690446A3
:104C0C00984718B1E38EE26BD05C10BD4FF0FF30CB
:104C1C0010BD704710B403460846DC6BD98E1A8F52
:104C2C000368521ADB6821445DF8044B1847A0F165
:104C3C001000FFF7EFBFF0B503688DB01C265B6A60
:104C4C0004460F461546984701233246002105A815
:104C5C00029301F0E1FF8DF8146038460A268DF8B6
:104C6C001560FFF727FD1122ADF816000221304622
:104C7C00FFF7C8FD0028606124DB0422009202AB20
:104C8C0040F6FF71FFF79EFDE0B995B10390ADF8CA
:104C9C00100003A9E8B2FFF755FC98B9062300935E
:104CAC0041F20B0203AB40F6FF716069FFF78AFD1E
:104CBC0040B91C2205A96069FFF77CFD10B9656439
:104CCC00012004E0236820465B6A984700200DB061
:104CDC00F0BD10B504464069002801DBFFF77AFDF2
:104CEC004FF0FF3363610023E386238710BD38B593
:104CFC00C36B0546C08E13B12C6C241A00E01C4605
:104D0C00944228BF14462246184401F07AFFEB8ED9
:104D1C002344EB86204638BD70B503681B690446F6
:104D2C000E461546984788B1236820461B6998475C
:104D3C00E38EE16B8542A8BF054619442A463046EE
:104D4C0001F05FFFE38E2B44E38601E04FF0FF356B
:104D5C00284670BD70B50446054B44F8043B01F180
:104D6C00200506460FCD0FC42B682370304670BD4E
:104D7C00E8800D00F0B59446026889B0976A0A4A3B
:104D8C0002921D1D8E4606460FCD03AC0FC42B6838
:104D9C002370BDF838300093624602AB7146304642
:104DAC00B84709B0F0BD00BFE8800D00F0B503684E
:104DBC00B0F836E09F6A0D4B89B000F1200604462E
:104DCC0002930FCE03AD0FC533682B70A38E0093E7
:104DDC00724602ABE16B2046B84723680546DB6997
:104DEC0020469847284609B0F0BD00BFE8800D006A
:104DFC00F0B54378022B8DB005460C46174601D111
:104E0C00011D33E00A2B35D11122002101A801F03C
:104E1C0003FFAB6843B9EB6833B94FF6FF702E69EB
:104E2C00FFF738FC86421FD005F1080301AE05F1EF
:104E3C00180E18685968324603C208337345164673
:104E4C00F7D1062301A906A807AE8DF8143000F09F
:104E5C00F1FC0FCE04340FC43368237057B168884B
:104E6C00FFF720FC388005E005F11401204600F026
:104E7C0016FDF3E70DB0F0BD2DE9F0418EB00EAB91
:104E8C00002506461746084643F8345D2A4629464F
:104E9C00FFF718FB00281FDB019BFBB15B69EBB133
:104EAC0002A800F0B9FC019B2A46586902A9FFF739
:104EBC009FFF02A800F0D0FC80B1336803ADD3F89B
:104ECC0038800B4B08930FCD09AC0FC42B682370A3
:104EDC003A4608A93046C047044601E04FF0FF347B
:104EEC000198FFF7E7FA20460EB0BDE8F08100BF4D
:104EFC00E8800D002DE9F047D0F81480B8F1000FD0
:104F0C008CB005460C461746994600DB11B94FF09C
:104F1C00FF3035E04FF01C0A05AE524600213046FA
:104F2C0001F07AFECDF808A0B9F1000F14D04FF4BF
:104F3C007A72B9FBF2F1039102FB11914A430823F7
:104F4C000492009341F2060203AB40F6FF71404617
:104F5C00FFF738FC08B113E0082002AB019321469F
:104F6C00034600963A466869FFF73CFC041E06DBD4
:104F7C0005F1340205F11C013046FFF739FF2046DC
:104F8C000CB0BDE8F08738B5054614462B7D062BD2
:104F9C00084611D11C2313700A235370FFF78AFBA8
:104FAC00083424F8060C2B1D143553F8042B44F844
:104FBC00042BAB42F9D138BD042B0AD1102313704A
:104FCC0002235370FFF776FB60806868FFF762FB83
:104FDC00606038BD2DE9F0438BB003AC1C259946BD
:104FEC0006460F46904600212A46204601F014FE44
:104FFC002246BDF848104846FFF7C5FF9DF80D3016
:10500C0043B18DE830000023424639467069FFF702
:10501C00F1FB01E04FF0FF300BB0BDE8F083F0B5D1
:10502C0091B00C4606460021154609A81C221F46C5
:10503C0001F0F2FD09AA00212046FFF7A4FF9DF81C
:10504C002530022B2ED1002305930A9B0493DDB14E
:10505C0002A92846FFF77EFAB0B910A941F8340D21
:10506C000298FFF77FFA60B9039B53B1DA681268B4
:10507C005178022903D152680AB1059201E01B68EC
:10508C00F3E70398FFF776FA002F4FF0080300932D
:10509C0018BF032204AB08BF042200213046FFF7DF
:1050AC0091FB1EE00A2B1AD104AC142200212046DD
:1050BC0001F0B2FD0BAB0FCB002F84E80F004FF0CB
:1050CC001403009318BF0C22234608BF0D2229217C
:1050DC0030460895FFF776FB00EAE07001E04FF0F0
:1050EC00FF3011B0F0BD000038B54FF47A73836017
:1050FC000B4B03F108026C33002503614FF0FF33B7
:10510C0004464560026043611C3000F085FB4FF49F
:10511C000073E5862587E56323646564204638BD06
:10512C00687F0D0010B590F84830044623B1C06B71
:10513C0010B1012101F0FEF80023E36384F848303C
:10514C002364E386238710BD70B5044616460D46CE
:10515C00FFF7E8FF0023E66323643EB935B1284628
:10516C00FEF795FF0123E06384F84830E36B03B14D
:10517C002564206C003018BF012070BDF8B51746AF
:10518C00C26B05460C461AB9016C09B1FFF7DCFF7E
:10519C0004340FCC05F120060FC6236833700023AE
:1051AC00AF86EB862B87286CF8BD70B5C26B0446B6
:1051BC000E461AB9016C09B1FFF7C6FFE16B00226C
:1051CC00E286228749B1226C3AB1236820461D6BD6
:1051DC003346A8470028C8BF2087236820461B6990
:1051EC00BDE870401847000010B5074B03F10802EA
:1051FC006C33044602600361FFF76BFD2046FFF73A
:10520C0091FF204610BD00BF687F0D0010B504460D
:10521C00FFF7EAFF20464C2101F08CF8204610BD28
:10522C0002464069002804DB012392F84420FFF772
:10523C00F6BE4FF0FF30704710B504460068FFF71C
:10524C00F7FB204610BD10B50446006808B1FFF707
:10525C00EFFB00232360A360636010BD38B50446E8
:10526C000D4600680131FFF7EBFB10B184E821001B
:10527C00012038BD10B50368044613B143688B4256
:10528C0007D22046FFF7EAFF20B1A3680BB92268CA
:10529C001370012010BD70B50E461146044615461C
:1052AC00FFF7E8FF18B92046FFF7CDFF09E02A46C3
:1052BC003146A560206801F0A4FC2268A368002197
:1052CC00D154204670BD38B50023044603604360BA
:1052DC00836003730D4639B1084602F0F3F9294691
:1052EC0002462046FFF7D7FF204638BD0248002370
:1052FC000360FFF79FB900BFA8E20320F8B506468C
:10530C000D468F180024BD420CD0336815F8011BD4
:10531C009B6830469847002801DB0444F3E7002CD7
:10532C0008BF04462046F8BD70B505460C46084635
:10533C0049B102F0C7F92B68024621462846DB68C2
:10534C00BDE87040184770BD03689B68184738B5B6
:10535C000D210546FFF7F8FF0A2104462846FFF702
:10536C00F3FF204438BD38B50546FFF7DDFF044692
:10537C002846FFF7ECFF204438BD30B58BB00B4608
:10538C0000218DF82410012A98BF0A220DF1230464
:10539C00B3FBF2F505FB123303F0FF03092B94BFAB
:1053AC0030333733DBB2214604F801392B46002D5C
:1053BC00EED1FFF7B9FF0BB030BD10B42AB90368BA
:1053CC005DF8044B9B68C9B21847D2B25DF8044B28
:1053DC00FFF7D3BFFFF7F1BF0CB42DE9F04387B053
:1053EC0000AF07F13804054654F8049B3C600E46A8
:1053FC0023464A461421381DFFF752FB132805D8C3
:10540C00391D2846FFF790FF044613E000F108030E
:10541C0023F00703E846ADEB030D411C23464A4637
:10542C0068463C60FFF73CFB69462846FFF77CFF6B
:10543C000446C5461EB12846FFF789FF04442046A2
:10544C001C37BD46BDE8F04302B070470068FFF75B
:10545C00F9B80000014B024A1A607047ACE2032015
:10546C004B800D0008B50020FFF7CAFA28B1FFF7F2
:10547C00AFFA80F00100C0B208BD012008BD0000E9
:10548C00FAEE087AB4EEE70AF1EE10FA0FD4F2EE67
:10549C000C7AB4EEE70AF1EE10FA08DCDFED047AD0
:1054AC00044B20EE270ABDEEC00A83ED000A7047BC
:1054BC0000006145BCE2032037B50E4B1B68194454
:1054CC000D4B1B68044602A8194440F8041D01F05A
:1054DC0091FA01F045FA054602F0F4F8284400234D
:1054EC0000F8013C29462046FFF7EDFE204603B0AC
:1054FC0030BD00BFBCE20320B8E203202DE9F04729
:10550C00A4B014AC07468946204611461D4601F04E
:10551C00BDFB204602F0D6F8804625B9244903A8E5
:10552C0001F0B4FB13E03C2195FBF1F2002AB8BF6B
:10553C00524292FBF1F301FB132200924FF4616390
:10554C001C4A95FBF3F3102103A8FFF799FA2546A3
:10555C002E1B08F1FF3AB2451BD92B78252B16D1FF
:10556C006B787A2B13D103A802F0ACF88046304448
:10557C00C6EB0A02A91C204401F043FB424603A9D6
:10558C00284601F03EFB204602F09CF8804601358F
:10559C00DEE74B462246322107A801F0DFFB07A9C4
:1055AC003846FFF790FE384624B0BDE8F08700BFC0
:1055BC00BD860D00B6800D00F7B5054601921C4660
:1055CC0013B9124B1C682CB1114B2046196801F011
:1055DC0053FB20B901992846FFF76EFF13E00D4FDE
:1055EC00019A3B680C4E1A44336802A8134440F8E5
:1055FC00043D01F0FFF93A6833680146134428462C
:10560C002246FFF77BFF284603B0F0BDB4E203202F
:10561C00B4E10320BCE20320B8E2032010B5002063
:10562C00FEF7D8FF044668B9FFF73CF901280BD107
:10563C002046FFF74FF938B9FFF714FF30B9FFF7E1
:10564C00BFF9F9E7012010BD002010BDFFF70AFFDC
:10565C000020FEF7BFFF003018BF012010BD08B5B9
:10566C00FFF7DCFFBDE80840FEF7ACBF024B1A6841
:10567C00024B1A60704700BFB4E10320B4E2032070
:10568C000021FFF71FB910B58368044613B103223C
:10569C0001469847204610BD10B50446FFF7F3FFAE
:1056AC00204610BD0348044A04490023836000F0DF
:1056BC0033BE00BFC0E203206CE20320A5560D00F0
:1056CC0008B50F4B33B100F057F903681B699847C5
:1056DC0000280DDC0B4B33B100F0D4F903681B69C7
:1056EC009847002807DC084B43B1AFF3008008BD96
:1056FC00AFF30080EEE7AFF30080F4E708BD00BF26
:10570C0000000000000000000000000008B5FFF7DA
:10571C00D7FFFEF74FFF014B186008BD08E60320CA
:10572C0007B5002300931A466FF07701FFF7E4F8F2
:10573C0003B05DF804FB000007B543880A2B08D0C2
:10574C00502B09D1094B1B683BB103B05DF804EB3E
:10575C001847FFF7E5FF06E0002300931A466FF0A9
:10576C007701FFF7C9F803B05DF804FBD0E2032022
:10577C0010B5FEF707FF044601F056FA074B13B1BC
:10578C002046AFF3008000210448FFF741F90021C7
:10579C000348BDE81040FFF7A5B800BF00000000AB
:1057AC0045570D00704710B51821044600F0C2FD96
:1057BC00204610BDF0B5037D062B8DB00E4600F1D2
:1057CC0004074FF0000402D000F1080518E00CADFE
:1057DC00394605F8304D2F232A460A20FEF74AFF9A
:1057EC00284601F06FFF33680246DB6829463046D5
:1057FC0098470FE024B12E213046FFF7A5FD044455
:10580C0015F8011D0A223046FFF7E4FDBD420444A1
:10581C00F0D120460DB0F0BD10B5054B0446112259
:10582C0040F8043B002101F0F7F9204610BD00BF01
:10583C00E8800D000346074A10B543F8042B01F12C
:10584C00100251F8044B43F8044B9142F9D10A78F9
:10585C001A7010BDE8800D00037D042B01D1406847
:10586C0008E0062B0AD1436853B9836843B9C3686F
:10587C0033B90069003018BF012070470020704711
:10588C000120704710B59DF8084044EA032343EA11
:10589C00024242EA016104234160037510BD37B531
:1058AC000D788B784A78C97800912946FFF7EAFF82
:1058BC0003B030BD41747047704708B50021007CBF
:1058CC00FEF7C8FF30EA200028BF4FF0FF3008BDBC
:1058DC0008B50121007CFEF7BDFF30EA200028BF8F
:1058EC004FF0FF3008BD08B5007CFEF7ABFF20EA97
:1058FC00E07008BD08B5007CFEF79CFF20EAE07064
:10590C0008BD007CFEF7B6BF10B51421044600F0AC
:10591C0011FD204610BD38B50446007C0D46FEF73F
:10592C0091FF002801DC607C28B12946207CFEF721
:10593C0099FF20EAE07038BD10B50446002363607F
:10594C004FF47A73A360054B23600123084621743E
:10595C0063741146FEF75EFF204610BDFC800D00FF
:10596C000022007CFEF75EBF10B514220446002115
:10597C0001F052F9204610BD30B50E4D87B001A88C
:10598C00FFF7F2FF296811F0010410D12846FEF749
:10599C0084FB60B101AA21460748FFF7CDFF2846DA
:1059AC00FEF780FB054A0649034800F0B5FC0248A7
:1059BC0007B030BDD4E20320D8E203206CE2032010
:1059CC00C5580D00FEF79EBDFEF794BD704741749F
:1059DC00704708B5007CFEF7ADFE20EAE07008BD0C
:1059EC0008B5007CFEF77EFE20EAE07008BD08B525
:1059FC00007CFEF787FE30EA200028BF4FF0FF3016
:105A0C0008BD08B5007CFEF775FE30EA200028BF03
:105A1C004FF0FF3008BD007CFEF77CBE10B51421A2
:105A2C00044600F087FC204610BD70B5457C04464A
:105A3C000E4625B9007CFEF77DFE002805DD3146BB
:105A4C00207CBDE87040FEF745BE284670BD0000C6
:105A5C0010B5044608461146002262604FF47A7273
:105A6C00A260054A22600122207462741A46FEF775
:105A7C0029FE204610BD00BF2C810D00007CFEF7D6
:105A8C0051BE000038B50C4D296811F0010411D13C
:105A9C002846FEF702FB68B1084A094B0948214623
:105AAC00FFF7D6FF2846FEF7FDFA074A07490548D7
:105ABC0000F032FC034838BD84E3032088E3032064
:105ACC0000E30320ECE203206CE20320D9590D0023
:105ADC007047F8B5064615460C468F18BC4206D0E2
:105AEC00336814F8011B9B6830469847F6E7284644
:105AFC00F8BD0022007CFEF725BE0021007CFEF7DD
:105B0C0029BE0021007CFEF72DBE0021007CFEF793
:105B1C0031BE0021007CFEF735BE10B514210446C1
:105B2C0000F008FC204610BD10B504464FF47A7303
:105B3C000846A3600021044B207461602360FEF7CB
:105B4C0031FE204610BD00BF5C810D000021007CA1
:105B5C00FEF720BE10B501230374836804460BB115
:105B6C00C06806E0006828B183680BB900F0F5FB4B
:105B7C00C3689847012363740020BDE81040FEF70A
:105B8C0071BD002211464068FEF702BF002211468B
:105B9C004068FEF70DBF00224068FEF701BF0022EF
:105BAC0081F001014068FEF7EBBE00231A4601218B
:105BBC004068FEF7DDBE00231A4619464068FEF722
:105BCC00CFBE002211464068FEF7C2BE002211462D
:105BDC004068FEF7ADBE002202214068FEF7B0BE61
:105BEC0000231A464068FEF79BBE38B5054688B1BF
:105BFC0004684CB1A3681BB1032221462046984788
:105C0C001021204600F096FB28461421BDE83840B0
:105C1C0000F090BB38BD10B103685B681847704743
:105C2C0010B503680446BBB15868FEF7E3FC78B9BD
:105C3C0023685A7C12B95868FEF7E4FC236858684C
:105C4C00FEF7E8FC20680023236028B1FFF7CDFFA6
:105C5C00206808B1FFF7C9FF204610BD38B50C4BC2
:105C6C0003600446D0F8CC0108B1FEF714FAD4F85E
:105C7C00C45135B12846FFF7D3FF0421284600F064
:105C8C0059FBA06808B1FFF7C6FF204638BD00BF1E
:105C9C0084810D002DE9F341044608460D469046DB
:105CAC0001F010FD04F5DC760746236CABB1402106
:105CBC00204601F024FD874202460BD3294620469C
:105CCC0000F090FF30B9009043462A4621465820F8
:105CDC00FEF71CFE5834B442E7D102B0BDE8F081A7
:105CEC0030B58DB004461122002101A800F094FFBC
:105CFC00062301AA09498DF814300A20FEF7C2FCCC
:105D0C0007AD01A906A8FFF795FD0FCD04340FC40C
:105D1C002B68237000200DB030BD00BFB0810D008A
:105D2C002DE9F041054600F5E0768AB03046FFF7E4
:105D3C008DFB2C68D5F8C001FEF78CFC002C63D0D1
:105D4C00D5F8C43163B12368D5F8C4111F6B204654
:105D5C004FF47A734FF49A62B847041E13DC56E082
:105D6C002D494FF49A6000F0E7FAD5F8C431C5F824
:105D7C00C40113B11846FEF78EF9D5F8C431002BC7
:105D8C00E1D1264844E02023254A029300920023C7
:105D9C00019402AA234903930120FEF77BFDD5F859
:105DAC00C4315F1C1B786BBB013C2146384601F0AB
:105DBC00A6FC38B3241A002C07EB000822DD3B5C50
:105DCC0003BB013C0ED008F101082146404601F00E
:105DDC0096FC241A002C15DD18F8003093B9012C10
:105DEC0002D00FE0DFF844803046FFF72FFB42462D
:105DFC003946281DFFF74EFFD5F8C001FEF72AFCE7
:105E0C00002005E0084803E06420FEF7C3FB2046B1
:105E1C000AB0BDE8F08100BF14820D00FCFEFFFF4C
:105E2C00C4810D00BD810D00E8FEFFFF7C800D00DC
:105E3C0010B50446BFF35F8F94F8C831BFF35F8F82
:105E4C001BB92046FFF76CFFF4E710BD10B50468D2
:105E5C00016044B12046FFF7E3FE20460421BDE873
:105E6C00104000F067BA10BD2DE9F04105468AB02C
:105E7C0000F5E070FFF7EAFA2C68002C7BD14C207F
:105E8C00FEF703F90646002873D0FFF72DF92246DA
:105E9C004FF49A613046FFF757F90AA93A4801F8CE
:105EAC00194DFEF747FB33689DF80F201B6A49F22A
:105EBC0069013046984704A8FFF7AEFC04A8FFF729
:105ECC000FFF00284ADB04A93046FFF7A9F9002888
:105EDC0044DBBFF35F8F85F8C841BFF35F8F2B495D
:105EEC00042000F02BFA05F5DE78074648B3274965
:105EFC00142000F023FA28B1047404604460846018
:105F0C00C46044743860B0B1214B83603B68214954
:105F1C00DD6038684FF440638DE8090003221E4BA6
:105F2C000430FEF75FFB30B93B681B7C4BB901209A
:105F3C00FEF730FBF8E7386800233B6008B1FFF749
:105F4C0054FE39464046FFF781FFD5F8BC313BB1D2
:105F5C0028682E6030B1FFF75EFE0CE0044603E0CB
:105F6C000E4C01E0044607E036B13046FFF753FE15
:105F7C0002E00A4C00E00024D5F8C001FEF76AFBF1
:105F8C0020460AB0BDE8F081D4810D0014820D00CA
:105F9C003D5E0D00D8810D00615B0D00FCFEFFFF26
:105FAC002DE9F04705468CB016460F4609B10B7823
:105FBC000BB9354C64E0084601F084FB8046002E9A
:105FCC005CD0304601F07EFB441C08F102032344F4
:105FDC00B3F59A6F4FD805F5E070FFF737FA2846FE
:105FEC00FFF742FF002840DB6846FFF715FC6846C8
:105FFC00FFF776FE002838DBD5F800A0DAF8003081
:10600C000DF1040CD3F83890204B0693BCE80F002C
:10601C000DF11C0EAEE80F00DCF800308EF80030ED
:10602C0049F2690206A95046C84700281DDB002327
:10603C0028688DF8183003680122DB6806A9984798
:10604C002868036808F10102DB68394698472CB1CF
:10605C00286803682246DB6831469847286803683D
:10606C001B6C984700EAE07400E00446D5F8C001C8
:10607C00FEF7F0FA04E06FF0BD0401E03446A4E74B
:10608C0020460CB0BDE8F087F2FEFFFFE8800D0063
:10609C0038B50E4C0E4B23600025022304F5E4703A
:1060AC006360A560C4F8C451C4F8C851FEF7C2FAC5
:1060BC00084BC4F8CC5184F8D05123602046064AD2
:1060CC000649BDE8384000F027B900BF0CE40320B6
:1060DC00E8810D0084810D006CE20320695C0D00E9
:1060EC0000231A464068FEF71BBC002202214068C0
:1060FC00FEF726BC002211464068FEF719BC0022B0
:10610C0011464068FEF724BC00231A461946406825
:10611C00FEF726BC00231A4619464068FEF728BC39
:10612C00002281F001014068FEF72ABC0022406881
:10613C00FEF736BC002211464068FEF739BC00223F
:10614C0011464068FEF724BC2DE9F043002495B0BD
:10615C0016460D460746FFF75FFB214620220CA88A
:10616C00009400F059FD40230C9321466B460CAA79
:10617C003046FEF7A7F90446002844D10246012117
:10618C006868FEF7E5FB0221804622466868FEF748
:10619C00DFFB009E81462146002E34D0002932D1EF
:1061AC007368022B02D00A2B09D02AE0B8F1000F39
:1061BC0027D0716938460431FFF771FB20E0B9F143
:1061CC00000F1ED07469112201A800F025FD0623D2
:1061DC008DF8143001AD04F10803183418685968AF
:1061EC002A4603C20833A3421546F7D101A906A8D3
:1061FC0007ADFFF71FFB0FCD3C1D0FC42B682370A1
:10620C000121F669C8E70098FEF754F9384615B035
:10621C00BDE8F083024B034A1A6000225A607047B3
:10622C00E0E50320E8810D0010B504460F48FEF7A9
:10623C00A9FC28B1A4F10B03022B01D8002010BD3E
:10624C0000F04AF8FFF782FC08B1012CF6D9FFF7F1
:10625C0019FCFFF713FC18B1A4F10903012BEDD9BC
:10626C001E2C8CBF0020012010BD00BFE8E50320D0
:10627C001E2838B504460D460AD8FF2908D0FFF76A
:10628C00D3FF28B129462046BDE83840FEF72AB98D
:10629C0038BD000070B50C4C0C4E0D4D0021204645
:1062AC00FEF75CFC20460B4C3246294600F034F8D5
:1062BC0001212046FEF752FC324629462046BDE815
:1062CC00704000F029B800BFE8E503206CE2032021
:1062DC00594B0D00F8E5032038B50B4D296811F02A
:1062EC0001040FD12846FDF7D8FE58B121460748C6
:1062FC00FFF71AFC2846FDF7D5FE054A0549034869
:10630C0000F00AF8014838BD0CE6032010E6032023
:10631C006CE20320DD5A0D000B460146184600F0D6
:10632C005BBB0000024B1868BFF35F8F704700BF68
:10633C0024E60320FDF7ADBE00F000B810B5002830
:10634C0014BF044601242046FEF76AFB20B9FFF770
:10635C00E9FF08B18047F6E710BD08B5FEF7A8FBCA
:10636C00184B1A68D1075CBF01221A60164B1A68C9
:10637C00D2075CBF01221A60144B1A68D0075CBFAD
:10638C0001221A60124B1A68D1075CBF01221A60F5
:10639C00104B1A68D2075CBF01221A600E4B1A68A8
:1063AC00D0075CBF01221A600C4B1A68D1075CBF86
:1063BC0001221A600A4B1A68D2075CBF01221A60CC
:1063CC00704700BF44E6032040E603203CE6032070
:1063DC0038E6032034E6032030E603202CE60320C5
:1063EC0028E60320244B1A68D0075CBF01221A60F0
:1063FC00224B1A68D1075CBF01221A60204B1A6825
:10640C00D2075CBF01221A601E4B1A68D0075CBF12
:10641C0001221A601C4B1A68D1075CBF01221A605A
:10642C001A4B1A68D2075CBF01221A60184B1A6803
:10643C00D0075CBF01221A60164B1A68D1075CBFEB
:10644C0001221A60144B1A68D2075CBF01221A6031
:10645C00124B1A68D0075CBF01221A60104B1A68E5
:10646C00D1075CBF01221A600E4B1A68D2075CBFC1
:10647C0001221A60704700BF74E6032070E6032007
:10648C006CE6032068E6032064E6032060E6032044
:10649C005CE6032058E6032054E6032050E6032074
:1064AC004CE6032048E60320244B1A68D0075CBF57
:1064BC0001221A60224B1A68D1075CBF01221A60B4
:1064CC00204B1A68D2075CBF01221A601E4B1A6857
:1064DC00D0075CBF01221A601C4B1A68D1075CBF45
:1064EC0001221A601A4B1A68D2075CBF01221A608B
:1064FC00184B1A68D0075CBF01221A60164B1A6839
:10650C00D1075CBF01221A60144B1A68D2075CBF1A
:10651C0001221A60124B1A68D0075CBF01221A6064
:10652C00104B1A68D1075CBF01221A600E4B1A6817
:10653C00D2075CBF01221A60704700BFA4E603209B
:10654C00A0E603209CE6032098E6032094E60320B3
:10655C0090E603208CE6032088E6032084E60320E3
:10656C0080E603207CE6032078E60320184B1A68AB
:10657C00D1075CBF01221A60164B1A68D2075CBFA8
:10658C0001221A60144B1A68D0075CBF01221A60F2
:10659C00124B1A68D1075CBF01221A60104B1A68A3
:1065AC00D2075CBF01221A600E4B1A68D0075CBF81
:1065BC0001221A600C4B1A68D1075CBF01221A60C9
:1065CC000A4B1A68D2075CBF01221A60704700BFE1
:1065DC00C4E60320C0E60320BCE60320B8E6032093
:1065EC00B4E60320B0E60320ACE60320A8E60320C3
:1065FC0081F0004102E000BF83F0004330B54FEA68
:10660C0041044FEA430594EA050F08BF90EA020FD4
:10661C001FBF54EA000C55EA020C7FEA645C7FEA67
:10662C00655C00F0E2804FEA5454D4EB5555B8BF8A
:10663C006D420CDD2C4480EA020281EA030382EAFB
:10664C00000083EA010180EA020281EA0303362D8D
:10665C0088BF30BD11F0004F4FEA01314FF4801C60
:10666C004CEA113102D0404261EB410113F0004F72
:10667C004FEA03334CEA133302D0524263EB430329
:10668C0094EA050F00F0A780A4F10104D5F1200EC7
:10669C000DDB02FA0EFC22FA05F2801841F1000122
:1066AC0003FA0EF2801843FA05F359410EE0A5F1F6
:1066BC0020050EF1200E012A03FA0EFC28BF4CF027
:1066CC00020C43FA05F3C01851EBE37101F00045DD
:1066DC0007D54FF0000EDCF1000C7EEB00006EEBEA
:1066EC000101B1F5801F1BD3B1F5001F0CD3490874
:1066FC005FEA30004FEA3C0C04F101044FEA4452CB
:10670C0012F5800F80F09A80BCF1004F08BF5FEA51
:10671C00500C50F1000041EB045141EA050130BD31
:10672C005FEA4C0C404141EB010111F4801FA4F1D4
:10673C000104E9D191F0000F04BF01460020B1FA29
:10674C0081F308BF2033A3F10B03B3F120020CDA61
:10675C000C3208DD02F1140CC2F10C0201FA0CF03F
:10676C0021FA02F10CE002F11402D8BFC2F1200CA4
:10677C0001FA02F120FA0CFCDCBF41EA0C0190405A
:10678C00E41AA2BF01EB0451294330BD6FEA0404A3
:10679C001F3C1CDA0C340EDC04F11404C4F120028E
:1067AC0020FA04F001FA02F340EA030021FA04F3A0
:1067BC0045EA030130BDC4F10C04C4F1200220FAF7
:1067CC0002F001FA04F340EA0300294630BD21FA35
:1067DC0004F0294630BD94F0000F83F4801306BFFB
:1067EC0081F480110134013D4EE77FEA645C18BFEF
:1067FC007FEA655C29D094EA050F08BF90EA020F86
:10680C0005D054EA000C04BF1946104630BD91EA7D
:10681C00030F1EBF0021002030BD5FEA545C05D180
:10682C004000494128BF41F0004130BD14F58004BF
:10683C003CBF01F5801130BD01F0004545F0FE4133
:10684C0041F470014FF0000030BD7FEA645C1ABF68
:10685C00194610467FEA655C1CBF0B46024650EA9F
:10686C00013406BF52EA033591EA030F41F40021CB
:10687C0030BD00BF90F0000F04BF0021704730B551
:10688C004FF4806404F132044FF000054FF0000126
:10689C0050E700BF90F0000F04BF0021704730B5E7
:1068AC004FF4806404F1320410F0004548BF4042BC
:1068BC004FF000013EE700BF42004FEAE2014FEA11
:1068CC0031014FEA02701FBF12F07F4393F07F4FEC
:1068DC0081F06051704792F0000F14BF93F07F4F1E
:1068EC00704730B54FF4607401F0004521F0004161
:1068FC0020E700BF50EA010208BF704730B54FF0E7
:10690C0000050AE050EA010208BF704730B511F0EB
:10691C00004502D5404261EB41014FF4806404F123
:10692C0032045FEA915C3FF4DCAE4FF003025FEAA5
:10693C00DC0C18BF03325FEADC0C18BF033202EB2D
:10694C00DC02C2F1200300FA03FC20FA02F001FA87
:10695C0003FE40EA0E0021FA02F11444C1E600BF26
:10696C00094B70B51C68256C06463DB91A20FEF71C
:10697C0057F81A222064294600F04EF9216C304653
:10698C00BDE8704000F002B81CE2032010B50C46C4
:10699C0041690369826986B001F26C7104910168E6
:1069AC0003914168029181680191C1680091074986
:1069BC0003EB43030B44064902EB42020A44204614
:1069CC000449FEF74DF8204606B010BD2A820D0092
:1069DC0015820D004E820D0010B5054C13462CB1DE
:1069EC000A4601460220AFF3008010BD204610BDC0
:1069FC000000000038B5074B1C68E36B05461BB95B
:106A0C002420FEF70DF8E063E16B2846BDE8384022
:106A1C0000F002B81CE203202DE9F0410C46804640
:106A2C0001F08AF921460746404601F089F946698A
:106A3C0006F26C76B307044605D1642296FBF2F39A
:106A4C0002FB13634BB94FF4C87596FBF5F305FBCA
:106A5C001365B5FA85F35B0900E001235F4A302525
:106A6C0005FB032500F098FF00F098FF5C4B1B68BA
:106A7C00F3B17B689E4205D13968D8F80030FA69C9
:106A8C0041B90AE0304600F0DFFE0028F4D14FF0A7
:106A9C00FF330DE0934208DB01E0934207DABA6B57
:106AAC009342ACBF0023012302E0002300E001234A
:106ABC002362236A012B0CBFF96B396A4FF46163B3
:106ACC003C2091FBF3F603FB1613616893FBF0F289
:106ADC0000FB12302368891AA26861601B1A921B92
:106AEC003B2B2360A26003DD013161603C3B04E081
:106AFC00002B03DA013961603C33236063683B2B64
:106B0C0003DD0132A2603C3B04E0002B03DA013AC6
:106B1C00A2603C336360A368172B22DDE26901326B
:106B2C00E261A2690132062AC8BF0022A261E268B2
:106B3C00183B0132A3602369E26055F823108A42A6
:106B4C0046DD01330C2B0CBF63692361A2EB010200
:106B5C00E26001BF013300222261636108BFE26180
:106B6C0036E0002B34DAE269013AE261A269013ABB
:106B7C0048BF0622A261E2681833013AE260A360C2
:106B8C0032BB2369013B01D423611DE00B2323613C
:106B9C0063695A1E12F0030F626103F26B7305D125
:106BAC00642193FBF1F201FB12324AB94FF4C87124
:106BBC0093FBF1F201FB1233B3FA83F35B0900E0B0
:106BCC00012303F5B673E361236955F82330E360C1
:106BDC0000F0E3FE2046BDE8F08100BFD4830D0039
:106BEC00E4E7032010B501390244904207D010F8B5
:106BFC00013B11F8014FA342F7D0181B10BD002028
:106C0C0010BD10B5431E0A44914204D011F8014B3B
:106C1C0003F8014FF8E710BD02440346934202D03B
:106C2C0003F8011BFAE7704738B5124B1C68A36BCD
:106C3C000546D3B91820FDF7F3FE43F20E33A063DB
:106C4C0003804AF6CD33438041F2342383804EF2E5
:106C5C006D63C3804DF6EC630381052343810B23E5
:106C6C00838101220023C0E90423A36B00221D6150
:106C7C005A6138BD1CE2032010F8012B11F8013BBE
:106C8C00012A28BF9A42F7D0D01A7047034611F850
:106C9C00012B03F8012B002AF9D1704741698B07AE
:106CAC0010B50CD1002940F26C73A8BF6FF06303D0
:106CBC000B44642493FBF4F204FB123383B90029D4
:106CCC0040F26C73A8BF6FF063034FF4C8720B44AF
:106CDC0093FBF2F102FB1133B3FA83F2520900E099
:106CEC0001228369C1695B0003EB01131344212B5F
:106CFC000EDC202B2FDA0D2B02DC0A2B05DB2AE015
:106D0C00102B26DB112B26DD1C3B012B23D920E07D
:106D1C0041F2C66293420EDC41F2C262934216DA31
:106D2C0041F2A262934212D013DBA3F5B553123B8E
:106D3C00022B0CD90DE041F2D562934207D041F2FF
:106D4C00D762934203D041F2D362934201D1012026
:106D5C0010BD002010BD4FF0FF3010BD2DE9F04FDD
:106D6C0093B00E461D460746914600F05DFD00238C
:106D7C0006931C46731E0390029399F80030002B67
:106D8C0000F09284252B08D0029A944280F09084D3
:106D9C003B5509F101090134EFE799F801A0BAF16B
:106DAC00300F07D0BAF12B0F04D009F101094FF0C5
:106DBC00000A01E009F1020999F80030313B082B77
:106DCC0008D848460A220AA900F024FDDDF82890CC
:106DDC00804601E04FF0000899F80030452B01D0B7
:106DEC004F2B01D109F1010999F80000A0F12503FD
:106DFC00552B00F25D84DFE813F04A045B045B045E
:106E0C005B045B045B045B045B045B045B045B047E
:106E1C005B045B045B045B045B045B045B045B046E
:106E2C005B045B045B045B045B045B045B045B045E
:106E3C005B046F00A100D4001A015B043F01A001A8
:106E4C0026022D025B045B045B0460025B045B04A2
:106E5C0068025B0497021D0325033B03430386036F
:106E6C00C600A0031F045B045B045B045B045B04AF
:106E7C005B0456008900BA000C010C015B04710123
:106E8C0089005B043D0226022D025D0262025B0456
:106E9C0068025B04BE009C021F032E035B047F038D
:106EAC00C2009203E703AB69039A183352F82380AC
:106EBC00404600F007FC08F1FF383B19204484429F
:106ECC0000F0EB83029A944280F0F28318F8012FC1
:106EDC0003F8012B0134F2E7AB69039A02EB83034D
:106EEC00D3F87C80404600F0EDFB08F1FF383B19ED
:106EFC002044844200F0D183029A944280F0D883DB
:106F0C0018F8012F03F8012B0134F2E72B69039ACF
:106F1C0052F82380404600F0D5FB08F1FF383B19AE
:106F2C002044844200F0B983029A944280F0C083DA
:106F3C0018F8012F03F8012B0134F2E72B69039A9F
:106F4C000C3352F82380404600F0BCFB08F1FF38AC
:106F5C003B192044844200F0A083029A944280F0B2
:106F6C00A78318F8012F03F8012B0134F2E7039BD8
:106F7C00D3F8A0800AE0039BD3F8E48006E0039BDF
:106F8C00D3F89C8002E0039BD3F89880404600F035
:106F9C0099FB98F80030002B00F07F832B4642467B
:106FAC0093E0B649D5F814B08B45ACBF0021012154
:106FBC00BBF1000F04DB64209BFBF0F0133008E006
:106FCC000BF26C70079100F06FFE0799642390FB35
:106FDC00F3F0BAF1000F08D0632809DDA84BA94AD9
:106FEC00BAF12B0F18BF134603E0A64BA64A01E0DB
:106FFC00A44BA64A0190B8F1010F98BF4FF00208BC
:10700C00C1EB080100919D48A1498345B8BF0B46CF
:10701C001EE2A04AA049EB68642808BF0A46311B4F
:10702C003819FDF735FD002880F2028340E36869CA
:10703C002B69002803F1010B07EB0408C4EB060ACB
:10704C00EB6805DB642290FBF2F102FB11000AE015
:10705C0000F26C70079300F027FE6422079B90FBF4
:10706C00F2F101FB12008D4A0190009351465B46F0
:10707C004046FDF70DFDD6E725238DF82830BAF1F3
:10708C00000F07D0B8F1050F8DF829A098BF4FF06D
:10709C00060804E02B238DF829304FF00A08B8F1CC
:1070AC00060302D10DF12A000AE07D4A1E210DF1E2
:1070BC002A00FDF7EDFC0028F4DD0DF12A0318443D
:1070CC007849FFF7E3FD2B460AAA311B3819FFF765
:1070DC0045FE002840F3EC820444DEE22846FFF72C
:1070EC00DDFD80466869002805DB642290FBF2F127
:1070FC0002FB110008E000F26C7000F0D5FD642278
:10710C0090FBF2F303FB1200B8F1000F06DA6A6988
:10711C00654B9A42B8BF4FF0010806E005D06A698A
:10712C00564B9A42B8BF4FF0FF386423404490FB53
:10713C00F3F203FB12001844F9E1504B6969089112
:10714C009942ACBF0023012328460793FFF7A6FD05
:10715C0008990029834604DB642391FBF3F3133372
:10716C0008E001F26C70089100F09EFD0899642310
:10717C0090FBF3F36869002806DB4FF0640E90FB7C
:10718C00FEFC0EFB1C000DE000F26C7009910893E4
:10719C0000F08AFD4FF0640E0999089B90FBFEFCF1
:1071AC000CFB1E00BBF1000F08DA69693E4A9142E4
:1071BC000ADA4FF0010BCDF81CB005E004D02F4AD1
:1071CC009142B8BF4FF0FF3B0BEB0002501C02D1B9
:1071DC00013B632203E0642A04BF013300226420D4
:1071EC0000FB0323079A42B12D228DF82820B8F119
:1071FC00000F13D008F1FF3810E0BAF12B0F10D1AB
:10720C0042F20F7293420CD98DF828A0B8F1000FFE
:10721C00F0D112AA252102F81F1D0AE00DF1290256
:10722C0000E00AAA25211170BAF1000F01D1501CFF
:10723C0002E03021901C51701C490793FFF726FD8A
:10724C00079B0093ADE1144A1249AB686B2808BF49
:10725C000A46E4E6A9680C2331B199420EBF0B46ED
:10726C0091FBF3F203FB12130A4A0B49492808BF9E
:10727C000A46D4E6EB690E4A0133D0E694F8FFFFD8
:10728C0043840D007C800D0034840D003B840D0084
:10729C0045840D0047840D0055840D004B840D0072
:1072AC005A840D005E840D0095F8FFFF66840D0076
:1072BC006A840D002B6901333DE16B683BE1029B55
:1072CC009C4280F0F5810A23E5E1AB68039A0B2B15
:1072DC00CCBFA423A0231344D3F80480404600F071
:1072EC00F1F9B24BD3F800E03919424620448442FC
:1072FC0000F0D381029B9C4280F0DA8199F8003037
:10730C00502B04F1010413780AD10EEB030C9CF8FA
:10731C0001C00CF0030CBCF1010F08BF2033DBB231
:10732C0001F8013B0132E2E76B680093A04AAB68BD
:10733C0039E12B6A002B17DB00F02EFB069B1BB9E7
:10734C0000F02CFB0123069300F0F6FC2B6A002BBB
:10735C00D4BF002301231C2202FB0300036AC3F1E8
:10736C00000800F01AFB01E04FF00008D5F814E01B
:10737C007046BEF145024FEAE07141F1FF33002A3D
:10738C0073F1000BC4EB060C07EB040A03DABEF135
:10739C00420241F1FF33910841EA83719B10049141
:1073AC0005930EF1FF31642391FBF3F1DDE9042326
:1073BC00521A63EBE1730EF22B104FF4C87190FB71
:1073CC00F1F1521843EBE173AEF1460E40F26D1140
:1073DC0001FB0EFEE96912EB0E0243EBEE73521841
:1073EC004FF0180E43EBE173A2FB0E010EFB0311E1
:1073FC00AB684FF03C0EC01841EBE371A0FB0E23C1
:10740C000EFB01336968521843EBE173A2FB0E01CA
:10741C000EFB03112B68674AC01841EBE371B0EB0C
:10742C00080061EBE871CDE9000161465046FDF7BB
:10743C002FFBF8E52B687EE0029B9C4280F03881A4
:10744C00092328E12B6801936B6800935A4AAB68B7
:10745C00311B38190DE6029B9C4280F02981AB69E7
:10746C00621C0BB9372300E030333B55144614E152
:10747C00EB69AA6907339B1A072293FBF2F35AE0D4
:10748C002846FFF70BFCAA690AB1531E00E006233D
:10749C0000282FDCEA6901D10A323BE09A1A6B69A9
:1074AC0040F26B71002BB4BF08466FF064001844B7
:1074BC00810707D101464FF0640E90FBFEF00EFBE6
:1074CC00101181B9002B40F26B71A8BF6FF06401F1
:1074DC0019444FF4C87391FBF3F003FB1011B1FA8C
:1074EC0081F1490900E00121521A052AB4BF352364
:1074FC00342320E001231EE0029B9C4280F0D880C4
:10750C00AB693033C7E0AA690AB1531E00E0062309
:10751C00EA690732D21A072392FBF3F30BE068698E
:10752C00002803DA00F26C7000F0BEFB642390FBC1
:10753C00F3F202FB1303214A71E56B69204A934273
:10754C0003F26C7B05DA2D238DF82830CBF1000B80
:10755C0008E0BAF12B0F0DD142F20F739B4511D9F4
:10756C008DF828A0B8F1000F01D008F1FF380DF10B
:10757C00290300E00AAB25221A70BAF1000F08D1DA
:10758C00581C09E0B8F1000FF4D125238DF82830F0
:10759C000AAB3022981C5A700A49FFF777FBCDF8DA
:1075AC0000B043460AAA311B38193EE0B8E103206B
:1075BC0079840D006F840D0074840D0055840D00CA
:1075CC0094F8FFFF66840D002B6A002B65DB00F03E
:1075DC00E3F9069B1BB900F0E1F90123069300F0D7
:1075EC00ABFB2B6A002BD4BF002301231C2202FB14
:1075FC00030007EB040A036AC3F1000800F0CDF99D
:10760C003C2398FBF3F0079300F032FC079B90FBB4
:10761C00F3F2C4EB060B02FB1300284A0090594608
:10762C0050464FF4616398FBF3F3FDF731FAFAE43B
:10763C000444A64231D83BE02B6A002B2DDB00F032
:10764C00ABF9069B1BB900F0A9F9012306932B6A31
:10765C001B4A002BD4BF0023012352F82380404641
:10766C0000F030F808F1FF383B19204484420BD06D
:10767C00029A944205D218F8012F03F8012B013419
:10768C00F4E700F08AF913E000F087F905E0029BBB
:10769C009C420DD225233B55013499F800301BB187
:1076AC0009F10109FFF769BB26B100233B5501E045
:1076BC00002000E0204613B0BDE8F08F83840D005D
:1076CC0020E20320034613F8012B002AFBD1181AE1
:1076DC000138704730B582B1451E013915F8013FAC
:1076EC0011F8014FA34206D1EC431444E04201D0FF
:1076FC00002BF3D11C46181B30BD104630BD10B505
:10770C00034601448B4204D01A785C1C0AB1234610
:10771C00F8E7181A10BD00002DE9F04780463C48E8
:10772C00D0F800900E46354615F8014B09EB0400D5
:10773C00407800F0080000F0FF0708B12E46F2E791
:10774C002D2C03D1B51C7478012703E02B2C04BF1E
:10775C007478B51C13B1102B0AD153E0302C4FD1D7
:10776C00287800F0DF00582845D16C7810230235BA
:10777C004FF0FF3C0026BCFBF3FC03FB0CFA6FEA5A
:10778C000A0A304609EB040E9EF801E01EF0040FC5
:10779C0001D0303C0BE01EF0030E1AD0BEF1010FED
:1077AC000CBF4FF0370E4FF0570ECEEB0404A34234
:1077BC000FDD002E08DB604506D801D1544503DCF3
:1077CC0003FB0040012601E04FF0FF3615F8014B9A
:1077DC00D8E7002E07DA2223C8F800304FF0FF302C
:1077EC002AB9BDE8F08707B1404272B106B1691EF3
:1077FC001160BDE8F0873024002BB9D10823B7E71E
:10780C000A23B5E7302CABD0B2E7BDE8F08700BF58
:10781C00B8E1032013460A46014602480068FFF708
:10782C007BBF00BF1CE20320044B054A1868054BC4
:10783C00002814BF10461846704700BFC8E6032046
:10784C00CCE60320C0850D002DE9F74F044600F06F
:10785C0073FA40F2B1739C4240F396806FF4F66376
:10786C00E318A4F2B2729B1040F26D1505FB0235C1
:10787C00A4F26D726FF0630392FBF3F36FF4C862C2
:10788C002B44A5184FF4C87295FBF2F51D446423E4
:10789C0094FBF2F794FBF3F602FB174703FB164637
:1078AC0000F13803B7FA87FE019304F00303446038
:1078BC004FEA5E1E014600934FF0070C0B7A4A2BE1
:1078CC000ED14B69009AEC1802B906B927B93B2BBB
:1078DC00D4BF0023012300E000232344013B3FE0FD
:1078EC00442B02D14B692B443AE0009B2BB9002E60
:1078FC000CBFF0464FF0010800E0F046244BCC687A
:10790C00302202FB0838A8F1040AA9460123A3423D
:10791C0004DA5AF804BF0133D944F8E709F1040337
:10792C0093FBFCFBCBEBCB0A012CCAEB030A4B6998
:10793C00B8BF012404F18044B3EB0A0A0B6904F1CB
:10794C00FF3403F1FF3348BF0AF1070AC3EBC3034B
:10795C0058F824405344A34201DB073BFBE74B445C
:10796C008C690C4A02FB03430C6A234441F81C3F0C
:10797C00019B9942A2D1C369826B9342ACBF002395
:10798C0001230360012000E0002003B0BDE8F08F6C
:10799C00D4830D008051010070477047014B18686B
:1079AC0000F002B81CE203202DE9F04F8DB0074621
:1079BC0000F0C2F9B049B14E0446384600F0B4F9B3
:1079CC00054660B9AE4BAF4A1860AF4B1860AF4B71
:1079DC0030681A605A60FDF72BF8356048E1316861
:1079EC0079B93068FDF724F82846FFF76BFE411C87
:1079FC003846FDF765F8306048B12946FFF746F97F
:107A0C0005E0FFF739F9002800F03281E9E72B781F
:107A1C009F4AA0493A2B08BF01350AAE3346284687
:107A2C00FDF726F8002840F323810A9BEF18EB5C46
:107A3C002D2B03D101374FF0FF3503E02B2B08BF63
:107A4C00013701250DF1200A0DF11E0B4FF0000836
:107A5C000396CDF808A00196CDF800B0334607AADE
:107A6C008D49ADF81E803846ADF82080FDF700F842
:107A7C00404540F3FD80BDF81E20BDF82030DFF8F6
:107A8C0024923C2101FB0233BDF81C204FF46161B0
:107A9C0001FB02335D4325627C4D7D4B2B600A9BC1
:107AAC007C491F444A4633463846FCF7E1FF4045C3
:107ABC0008DC2B686B60724B226A1A60724BC3F83D
:107ACC000080D5E00A9BC5F80490FD18FB5C2D2BBB
:107ADC0003D101354FF0FF3703E02B2B08BF0135E5
:107AEC0001270023ADF81C30ADF81E30ADF8203066
:107AFC000A930396CDF808A00196CDF800B0334652
:107B0C0007AA65492846FCF7B3FF002804DC236A62
:107B1C00A3F56163E3630EE0BDF81E20BDF82030D1
:107B2C003C2101FB0233BDF81C204FF4616101FBC9
:107B3C0002335F43E7630A9B27461D444FF000095D
:107B4C002B782C2B08BF013595F80080B8F14D0F20
:107B5C0026D10DF12603029309AB009303960196EF
:107B6C0033460DF122024D492846FCF781FF0328CC
:107B7C007ED1BDF822104B1E0B2B79D8BDF82420DA
:107B8C00531E042B74D8BDF82630062B70D887F8FA
:107B9C000880F9603A617B610A9B05EB03082AE0D7
:107BAC00B8F14A0F06BF0135434644230A220BA9FC
:107BBC0028460593FFF72EFEDDF82C80ADF8260045
:107BCC004545059B14D14D23B9F1000F07D1237204
:107BDC000323E36002232361C4F814900BE084F8C0
:107BEC0024300B23A3620123E3620023236302E00E
:107BFC0080B23B7278610223ADF81C300023ADF8E3
:107C0C001E30ADF820300A9398F800302F2B0BD192
:107C1C000396CDF808A00196CDF800B0334607AA1C
:107C2C001F494046FCF724FFBDF81E20BDF820304C
:107C3C003C2101FB0233BDF81C204FF4616101FBB8
:107C4C000233BB610A9D09F10109B9F1020F4544E8
:107C5C0007F11C077FF474AF6068FFF7F5FD084B64
:107C6C00226A1A60E36B9B1A074A18BF0123136040
:107C7C000DB0BDE8F08F00BFBC860D00E0E703201F
:107C8C00E8E70320BF860D00E4E7032020E2032091
:107C9C00D3E70320C3860D00E6860D00D2860D00C7
:107CAC00E5860D00C8E703200028B8BF40427047A6
:107CBC002DE9F84F07468B46904600F0DDF8194B3E
:107CCC001D689A463DB15C46234613F8012B42B120
:107CDC003D2A1C46F8D1384600F0CFF80020BDE80C
:107CEC00F88FCBEB0404A94659F8040B0028F2D00A
:107CFC0022465946FFF7EEFC88B959F8043C1E1988
:107D0C001B5D3D2B0BD1DAF80030ED1AAD10384667
:107D1C00C8F8005000F0B1F8701CBDE8F88F4D4663
:107D2C00E1E700BF68E2032007B501AAFFF7C0FF37
:107D3C0003B05DF804FB00000048704728E2032004
:107D4C000268474BF0B592FBF3F403FB1422002AB4
:107D5C00BCBF02F5A83202F5C0724FF4616004F5A5
:107D6C002F2492FBF0F300FB13224FF03C00ACBF2E
:107D7C0004F66C2404F66B248B6092FBF0F300FB8E
:107D8C0013224B600A600723E21C92FBF3F3C3EB54
:107D9C00C303D31A8B61334B334D94FBF5F503FBC3
:107DAC00054448F6AC62B4FBF2F2224440F2B457FC
:107DBC00B4FBF7F3D21A2D48B4FBF0F048F69466F6
:107DCC00131AB3FBF6F6344440F26D12B3FBF2F027
:107DDC00B3FBF7F3E31A02FB1033992403EB830292
:107DEC000232B2FBF4F20A2A04FB02F404F102069A
:107DFC004FF00504B6FBF4F434BF02266FF009060D
:107E0C0016444FF4C87202FB05055F1C012E98BF87
:107E1C000135B3F5997FA7EB040702D3A3F599724B
:107E2C0014E0820705D16424B0FBF4F204FB1202C7
:107E3C004AB94FF4C872B0FBF2F402FB1400B0FA6A
:107E4C0080F2520900E001223B331A44A5F26C7512
:107E5C000023CA614D610E61CF600B620846F0BD14
:107E6C00805101004FC5FDFFB13A0200B03A02004B
:107E7C000028B8BF40427047704770471D400D0046
:107E8C0059400D0085400D0089400D000000000098
:107E9C0043616C6C6261636B007B22646576696321
:107EAC00654944223A222573222C2274696D65732C
:107EBC0074616D70223A222573222C2274656D70C8
:107ECC0065726174757265223A222566222C2274C1
:107EDC00656D70556E6974223A222563222C2268D6
:107EEC00756D6964697479223A222566222C2268A0
:107EFC00756D556E6974223A222563227D002573B7
:107F0C000073656E736F7244617461007075626C9E
:107F1C006973686564000000000000000000000048
:107F2C003B4B0D00314B0D00274B0D001D4B0D0035
:107F3C00114B0D00054B0D00F94A0D00F14A0D00D7
:107F4C00E74A0D00DD4A0D0055610D0000000000F0
:107F5C0000000000594B0D005B4B0D0000000000B1
:107F6C0000000000F5510D0019520D00D14B0D0011
:107F7C00FB4C0D00C94B0D00E74B0D00054C0D00E3
:107F8C001F4C0D00434C0D00DF4C0D00E14F0D005C
:107F9C00814D0D00014F0D00B14B0D0089510D00AD
:107FAC00854E0D00B94D0D00B7510D00254D0D003E
:107FBC00BF4B0D00614D0D00C54B0D00214C0D004C
:107FCC00F0FFFFFF000000003B4C0D006261756488
:107FDC000053657269616C0053657269616C3100A4
:107FEC007479706500706172616D00636D64006915
:107FFC006400686E64007374726D0066696C740062
:10800C006C766C0061646448616E646C65720072BD
:10801C00656D6F766548616E646C657200656E7532
:10802C006D48616E646C657273004A534F4E5374A5
:10803C007265616D4C6F6748616E646C657200614E
:10804C00707000253031307520005D20002C200030
:10805C0028293A2000205B00636F6465203D2000D6
:10806C0025690064657461696C73203D20000D0AFC
:10807C000066006C6E00666E00636F64650064657C
:10808C007461696C006E6F6E65007472616365007B
:10809C00696E666F007761726E006572726F720046
:1080AC0070616E696300616C6C00252B3033643A2F
:1080BC00253032750025592D256D2D256454254804
:1080CC003A254D3A2553257A0061736374696D65C1
:1080DC00000000000000000000000000C1570D006F
:1080EC00B1570D00B3570D00000000000000000058
:1080FC00C5580D0015590D0023590D0009530D00DD
:10810C0001590D00C7580D00DD580D000F590D0019
:10811C00F3580D00C1580D000000000000000000D5
:10812C00D9590D00295A0D00375A0D0009530D006D
:10813C00ED590D000F5A0D00FB590D00235A0D007F
:10814C00DB590D00DF590D0000000000000000009D
:10815C00DD5A0D00275B0D00FF5A0D00DF5A0D0094
:10816C00075B0D000F5B0D00175B0D001F5B0D0017
:10817C000000000000000000ED5B0D00E35B0D0053
:10818C00D95B0D00CF5B0D00C35B0D00B75B0D0021
:10819C00AB5B0D00A35B0D00995B0D008F5B0D00BD
:1081AC0055610D00666630333A3A313A3130303130
:1081BC0000776972696E6700706172736520706117
:1081CC00636B657420256400746831006D65736899
:1081DC00707562000000000000000000ED600D00F2
:1081EC00F7600D0001610D000B610D0015610D00B4
:1081FC0021610D002D610D0039610D0041610D00F3
:10820C004B610D0055610D000053756E4D6F6E5432
:10821C0075655765645468754672695361744A6133
:10822C006E4665624D61724170724D61794A756E30
:10823C004A756C4175675365704F63744E6F764425
:10824C006563252E337320252E3373253364202547
:10825C002E32643A252E32643A252E32642025645F
:10826C000A00002020202020202020202828282838
:10827C0028202020202020202020202020202020EA
:10828C00202020881010101010101010101010103A
:10829C00101010040404040404040404041010104A
:1082AC0010101010414141414141010101010101F6
:1082BC000101010101010101010101010101101084
:1082CC0010101010424242424242020202020202CA
:1082DC000202020202020202020202020202101056
:1082EC001010200000000000000000000000000042
:1082FC000000000000000000000000000000000072
:10830C000000000000000000000000000000000061
:10831C000000000000000000000000000000000051
:10832C000000000000000000000000000000000041
:10833C000000000000000000000000000000000031
:10834C000000000000000000000000000000000021
:10835C000000000000000000000000000000000011
:10836C000000000000000000000000000000000001
:10837C0000000000000000000000000000000000F1
:10838C0000000000000000000000000000000000E1
:10839C0000000000000000000000000000000000D1
:1083AC0000000000000000000000000000000000C1
:1083BC0000000000000000000000000000000000B1
:1083CC0000000000430000001F0000001C00000023
:1083DC001F0000001E0000001F0000001E00000017
:1083EC001F0000001F0000001E0000001F00000006
:1083FC001E0000001F0000001F0000001D000000F8
:10840C001F0000001E0000001F0000001E000000E6
:10841C001F0000001F0000001E0000001F000000D5
:10842C001E0000001F0000002573252E2A64002565
:10843C007325302E2A64002B002D00253264002574
:10844C002E32642F252E32642F252E326400256C9B
:10845C007500592D256D2D2564002E2A7500252EAD
:10846C00336400256C6C6400252E32643A252E3260
:10847C00643A252E326400252B30336C64252E3261
:10848C006C64004C435F54494D45004A616E004694
:10849C006562004D617200417072004D6179004A55
:1084AC00756E004A756C0041756700536570004F1E
:1084BC006374004E6F7600446563004A616E7561AB
:1084CC007279004665627275617279004D617263F2
:1084DC006800417072696C004A756E65004A756C73
:1084EC0079004175677573740053657074656D62BE
:1084FC006572004F63746F626572004E6F76656DC6
:10850C0062657200446563656D6265720053756ED9
:10851C00004D6F6E005475650057656400546875A6
:10852C0000467269005361740053756E6461790082
:10853C004D6F6E6461790054756573646179005791
:10854C0065646E65736461790054687572736461F7
:10855C007900467269646179005361747572646163
:10856C00790025483A254D3A255300256D2F256471
:10857C002F25790025612025622025652025483A84
:10858C00254D3A255320255900414D00504D0025CD
:10859C00612025622025652025483A254D3A255332
:1085AC0020255A2025590025493A254D3A25532096
:1085BC002570000097840D009B840D009F840D0096
:1085CC00A3840D00A7840D00AB840D00AF840D00B7
:1085DC00B3840D00B7840D00BB840D00BF840D0067
:1085EC00C3840D00C7840D00CF840D00D8840D000A
:1085FC00DE840D00A7840D00E4840D00E9840D00D9
:10860C00EE840D00F5840D00FF840D0007850D0030
:10861C0010850D0019850D001D850D0021850D009F
:10862C0025850D0029850D002D850D0031850D004A
:10863C0035850D003C850D0043850D004B850D00E7
:10864C0055850D005E850D0065850D006E850D0050
:10865C0077850D0080850D0095850D0098850D00A2
:10866C009B850D00C7840D00CF840D00D8840D00B0
:10867C00DE840D00A7840D00E4840D00E9840D0058
:10868C00EE840D00F5840D00FF840D0007850D00B0
:10869C0010850D00F87F0D00B3850D007C800D005A
:1086AC007C800D007C800D007C800D007C800D009A
:1086BC00545A00474D54002531305B5E302D392C17
:1086CC002B2D5D256E004D256875256E2E25687544
:1086DC00256E2E256875256E002F256875256E3A3A
:1086EC00256875256E3A256875256E00FD410D00CF
:1086FC0035420D00B1440D00454B0D00994B0D005A
:10870C00F9520D0061540D0079560D00B1560D0053
:10871C009D600D0021620D00A1620D006D630D00C6
:10872C00F1630D00B5640D0079650D0000000000CB
:04873C000000000039
:10874000C1800D00D5800D006E820D00000000007C
:1087500070830D0090830D00B0830D0000000000B9
:10876000000000000000000000000000D0830D00A9
:1087700000000000000000000000000000000000F9
:1087800000000000000000000000000000000000E9
:1087900000000000000000000000000000000000D9
:1087A000000000000000000000000000BCE1032009
:1087B000BF860D00BF860D00010000000000000014
:1087C0004A0000000000000000000000000000005F
:1087D0000000000000000000000000004A0000004F
:1087E0000000000000000000000000000000000089
:0C87F0000000000000000000ECE7032087
:1087FC00FFFFFFFF00000102030405060708090A3A
:10880C000B0C0D0E0F101112131415161718191A34
:08881C001B1C1D1E1F2028007B
:04882400785634123C
:04000003D000401CCD
:00000001FF
