:02000002D0002C
:1040000000400D00DC710D00000006000C000501F1
:0840100004014E040000000051
:10401800486B0D0009480A49884208B505D0094A85
:10402800824202D0121A02F06AFC0748074A0021AD
:10403800121A02F06FFC014808BD00BFE0DE032041
:1040480030710D0064DF032064DF0320F0E70320F4
:1040580070B501F095FA074C074BE41AA40800253F
:104068001E46A54204D056F8253098470135F8E792
:1040780070BD00BF28710D00EC700D0000F086B80F
:1040880008B500F0D1F8BDE8084001F047BA00F0E3
:1040980095BC00F093BC00F099BC00F097BC007888
:1040A800B0FA80F0400970470123037070470000A0
:1040B80037B5104C104D04F13C0001F0AEF80F4B31
:1040C80000932A460E4B0F48214600F02DF901F0C7
:1040D80051FB0D4901F060F901F04CFB29680A22F7
:1040E80001F0BFF901F046FBE16B03B0BDE83040D9
:1040F80001F052B998E3032084E303205C6B0D00C0
:10410800E0DE032068DF0320616B0D0010B5044674
:10411800043001F028F8204610BD10B504463C30A4
:1041280001F021F804F1280001F01DF8204601F003
:104138001AF8204610BD000038B584690A4B0360A0
:1041480005467CB16368013B63605BB92368204620
:104158009B689847A368013BA3601BB92368204666
:10416800DB689847284638BDC86E0D0010B5044670
:10417800FFF7E2FF204610BD10B50446FFF7DCFF4D
:104188002046FFF788FF204610BD000070B588B0B4
:1041980001F0F0FA4FF4165101F0E0FA01F0EAFAF2
:1041A800044602A800F0FAFB02991B4E204601F0D3
:1041B800F3F802A800F0D7FF01F0DCFA174901F084
:1041C800D2F801F0D7FA164B002211460446586877
:1041D80000F08CFB811C02A801F034FA02A92046E9
:1041E80001F0E4F81F230093A8220723C02102A8A6
:1041F80003AD01F05DFA0FCD06F114040FC42B686E
:104208002370084941F6927306F12800B36301F060
:1042180004F808B070BD00BF98E30320666B0D007A
:1042280018E703206B6B0D0008B5054A05490648D9
:1042380001F0F4FC4FF4FA70BDE8084001F030B921
:10424800B9400D007C6B0D0050E5032070B5184C8B
:10425800184E194D00F094F9204600F039F8204620
:10426800164C1749324602F0BFF92946204600F09D
:10427800C1FF04F1100001F0D7F9294604F1280024
:1042880000F0B8FF294604F13C0000F0B3FF2046D7
:104298000C4C0D49324602F0A7F92946201D00F0C2
:1042A800A9FF324620460949BDE8704002F09CB992
:1042B80068DF032064DF0320116C0D0098E30320FE
:1042C80075410D0084E3032023410D0015410D00C5
:1042D80010B5044602F066F8204610BD38B504460D
:1042E800154601F040F80549204601F03CF82946FA
:1042F8002046BDE8384001F04FB800BFEB6C0D0018
:1043080038B50446154601F02EF80549204601F057
:104318002AF8294620460A22BDE8384001F0A1B80B
:10432800EB6C0D0000F02CB92DE9F04F0D461E4640
:104338004FF0FF338FB0044613600021284617461C
:1043480000F097FFD5F8388060B92968B8F1000FF8
:1043580002D01FFA88F200E050220023204601F024
:10436800C7FD14E0744B089305F1140CBCE80F006A
:104378000DF1240EAEE80F00DCF800308EF80030A6
:104388001FFA88F2002308A9204601F0DBFE00305E
:1043980018BF012018B9204601F051FFC8E018994C
:1043A800204600F0E0FF6549204600F0DCFFA96ADE
:1043B800204600F0D8FF6249204600F0D4FF61494A
:1043C800614A2046FFF78AFF0021284600F051FF86
:1043D80020B92A685D492046FFF780FF05F13C08AF
:1043E8000021404600F045FF08B96A6C05E05849CD
:1043F800189802F0BFFA024618B956492046FFF746
:104408007FFF5EB1316849B17268204612B1FFF78B
:1044180065FF01E000F0C0FF0836F3E7204600F032
:10442800AFFF204601F036FD0021404600F021FF95
:1044380018B9E96B204600F0AFFF04F11C084FF4EF
:1044480080620021404602F065FA00F0E1F88146FA
:1044580000F0DEF80026354641F2883A204601F0A1
:1044680005FFD8B1204601F022FE834600F0D0F8BF
:1044780040F2FE339D42814603D8631983F81CB08D
:104488000AE040F2FF339D4206D1002384F81B3432
:10449800204601F0D4FE01260135DFE763191877BD
:1044A80000F0B6F8C9EB000B26B9D34502D8C820EE
:1044B80000F0F6FF204601F0EEFC18B1D34501D814
:1044C800002ECBD0204601F0BAFE4146684600F0E7
:1044D80091FE0C230922694604A800F0EFFE1E494C
:1044E80008A800F087FE08A9684600F0E3FE044625
:1044F80008A800F038FE631C14D03D1D1749284653
:1045080000F08BFE221D694608A800F0FFFE08A9EE
:10451800284600F0AAFE08A800F025FE049802F03C
:10452800CDF9386004A800F01EFE684600F01BFEB6
:104538000FB0BDE8F08F00BFD46D0D00E76C0D0023
:10454800DC6B0D00EE6B0D00E86B0D00F96B0D00D8
:104558005C6B0D00FE6B0D000D6C0D00116C0D00F9
:1045680008B5024B1B689B68019308BD68020300ED
:1045780008B5024B1B68DB68019308BD680203009D
:1045880008B5024B1B681B68019308BD2C02030089
:1045980008B5024B1B68DB69019308BD30020300B4
:1045A80008B5024B1B681B69019308BD6C02030028
:1045B80008B5024B1B685B69019308BD6C020300D8
:1045C80008B5024B1B689B69019308BD6C02030088
:1045D80008B5024B1B685B6D019308BD6C020300B4
:1045E80008B5024B1B689B6D019308BD6C02030064
:1045F80008B5024B1B685B68019308BD18020300ED
:1046080008B5024B1B689B68019308BD180203009C
:1046180008B5024B1B685B69019308BD18020300CB
:1046280008B5024B1B685B68019308BD480203008C
:1046380008B5024B1B689B68019308BD480203003C
:1046480008B5024B1B68DB68019308BD48020300EC
:1046580008B5024B1B681B69019308BD480203009B
:1046680008B5024B1B685B69019308BD480203004B
:1046780008B5024B1B681B6B019308BD4802030079
:1046880008B5024B1B685B6C019308BD4802030028
:1046980008B5024B1B68DB6C019308BD4802030098
:1046A80008B5024B1B685B6D019308BD4802030007
:1046B80008B5024B1B68DB6E019308BD4802030076
:1046C80008B5024B1B685B69019308BD64020300CF
:1046D80008B5024B1B689B69019308BD640203007F
:1046E80008B5024B1B681B6A019308BD64020300EE
:1046F80008B5024B1B685B6A019308BD640203009E
:1047080008B5024B1B689B6A019308BD640203004D
:1047180008B5024B1B681B68019308BD3C020300E7
:1047280008B5024B1B68DB68019308BD3C02030017
:1047380008B5024B1B681B69019308BD3C020300C6
:1047480008B5024B1B685B69019308BD3C02030076
:1047580008B5024B1B689B69019308BD3C02030026
:1047680008B5024B1B68DB69019308BD3C020300D6
:1047780008B5024B1B689B6A019308BD3C02030005
:1047880008B5024B1B685B68019308BD380203003B
:1047980008B5024B1B689B69019308BD38020300EA
:1047A80008B5024B1B68DB69019308BD380203009A
:1047B80008B5024B1B681B6A019308BD3802030049
:1047C80008B5024B1B689B6A019308BD38020300B9
:1047D80008B5024B1B68DB6A019308BD3802030069
:1047E80008B5024B1B681B6B019308BD3802030018
:1047F80008B5024B1B685B6B019308BD38020300C8
:1048080008B5024B1B689B6B019308BD3802030077
:1048180008B5024B1B681B68019308BD4C020300D6
:1048280008B5024B1B685B68019308BD4C02030086
:1048380008B5024B1B681B69019308BD4C020300B5
:1048480008B5024B1B685B69019308BD4C02030065
:1048580008B5024B1B689B69019308BD4C02030015
:1048680008B5024B1B68DB69019308BD4C020300C5
:1048780008B5024B1B681B6A019308BD4C02030074
:1048880008B5024B1B681B6D019308BD600203004D
:1048980008B5024B1B685B68019308BD2002030042
:1048A80008B5024B1B685B69019308BD2002030031
:1048B80008B5034B1B68D3F88830019308BD000086
:1048C8002002030008B5034B1B68D3F8943001930A
:1048D80008BD00002002030008B5034B1B68D3F88D
:1048E800A430019308BD00002002030008B5024B64
:1048F8001B681B68019308BD4002030008B5024B02
:104908001B685B68019308BD4002030008B5024BB1
:104918001B689B68019308BD4002030008B5024B61
:104928001B68DB68019308BD4002030008B5024B11
:104938001B681B69019308BD4002030008B5024BC0
:104948001B685B69019308BD4002030008B5024B70
:104958001B689B69019308BD4002030008B5024B20
:104968001B68DB69019308BD4002030008B5024BD0
:104978001B681B6A019308BD4002030008B5024B7F
:104988001B681B6B019308BD4002030008B5024B6E
:104998001B685B6B019308BD4002030008B5024B1E
:1049A8001B68DB69019308BD4402030008B5024B8C
:1049B8001B68DB6B019308BD4402030008B5024B7A
:1049C8001B681B68019308BD1C02030008B5024B55
:1049D8001B685B68019308BD1C02030008B5024B05
:1049E8001B689B68019308BD1C02030008B5024BB5
:1049F8001B68DB6A019308BD1C02030008B5024B63
:104A08001B68DB6B019308BD1C02030000221146E2
:104A18004068FFF7ABBF002211464068FFF7B6BFFA
:104A280000224068FFF7AABF002281F00101406818
:104A3800FFF794BF00231A4619464068FFF786BF60
:104A480000231A4619464068FFF778BF002211462E
:104A58004068FFF76BBF002211464068FFF756BF5A
:104A6800002202214068FFF759BF00231A46406818
:104A7800FFF744BF024B03225A60024A1A6070478C
:104A8800E4E303201C6C0D00704710B50446FFF7E3
:104A980002FB204610BD000070B5084B03600446B9
:104AA80000250E4640F80C5FFFF7E2FD3046267100
:104AB800FFF76EFDA560204670BD00BF506C0D006D
:104AC800044B00204FF6FF72187058809A80FFF749
:104AD800DFBE00BFECE3032010B40468246BA446D7
:104AE8005DF8044B604703689B6C1847808E7047DD
:104AF800028FC08E101A704713B502AB026803F814
:104B0800011DD46819460122A04702B010BD10B596
:104B180003681B690446984728B1E38EE26B591C69
:104B2800E186D05C10BD4FF0FF3010BD10B50368B2
:104B38001B690446984718B1E38EE26BD05C10BD40
:104B48004FF0FF3010BD704710B403460846DC6BC9
:104B5800D98E1A8F0368521ADB6821445DF8044B1A
:104B68001847A0F11000FFF7EFBFF0B503688DB04C
:104B78001C265B6A04460F461546984701233246B1
:104B8800002105A8029301F0C5FE8DF8146038468F
:104B98000A268DF81560FFF7B3FD1122ADF816004F
:104BA80002213046FFF72CFE0028606124DB042236
:104BB800009202AB40F6FF71FFF7EAFDE0B995B14C
:104BC8000390ADF8100003A9E8B2FFF7F1FC98B91B
:104BD8000623009341F20B0203AB40F6FF716069B4
:104BE800FFF7D6FD40B91C2205A96069FFF7C8FD8B
:104BF80010B96564012004E0236820465B6A984781
:104C080000200DB0F0BD10B504464069002801DB56
:104C1800FFF7C6FD4FF0FF3363610023E386238768
:104C280010BD38B5C36B0546C08E13B12C6C241A61
:104C380000E01C46944228BF14462246184401F05E
:104C48005EFEEB8E2344EB86204638BD70B50368C4
:104C58001B6904460E461546984788B123682046C6
:104C68001B699847E38EE16B8542A8BF0546194446
:104C78002A46304601F043FEE38E2B44E38601E0EA
:104C88004FF0FF35284670BD70B50446054B44F813
:104C9800043B01F1200506460FCD0FC42B68237095
:104CA800304670BDD46D0D00F0B59446026889B0E9
:104CB800976A0A4A02921D1D8E4606460FCD03AC1E
:104CC8000FC42B682370BDF838300093624602ABDE
:104CD80071463046B84709B0F0BD00BFD46D0D002D
:104CE800F0B50368B0F836E09F6A0D4B89B000F163
:104CF8002006044602930FCE03AD0FC533682B7010
:104D0800A38E0093724602ABE16B2046B847236836
:104D18000546DB6920469847284609B0F0BD00BF24
:104D2800D46D0D00F0B54378022B8DB005460C46C6
:104D3800174601D1011D33E00A2B35D1112200217C
:104D480001A801F0E7FDAB6843B9EB6833B94FF64A
:104D5800FF702E69FFF7C4FC86421FD005F10803D7
:104D680001AE05F1180E18685968324603C20833B7
:104D780073451646F7D1062301A906A807AE8DF894
:104D8800143000F05FFC0FCE04340FC43368237076
:104D980057B16888FFF7ACFC388005E005F11401CD
:104DA800204600F091FCF3E70DB0F0BD2DE9F0418D
:104DB8008EB00EAB002506461746084643F8345D0C
:104DC8002A462946FFF7D4FB00281FDB019BFBB1CD
:104DD8005B69EBB102A800F027FC019B2A465869E1
:104DE80002A9FFF79FFF02A800F03EFC80B13368DC
:104DF80003ADD3F838800B4B08930FCD09AC0FC423
:104E08002B6823703A4608A93046C047044601E09B
:104E18004FF0FF340198FFF7A3FB20460EB0BDE822
:104E2800F08100BFD46D0D002DE9F047D0F8148053
:104E3800B8F1000F8CB005460C461746994600DBC2
:104E480011B94FF0FF3035E04FF01C0A05AE52465D
:104E58000021304601F05EFDCDF808A0B9F1000F41
:104E680014D04FF47A72B9FBF2F1039102FB11915D
:104E78004A4308230492009341F2060203AB40F62A
:104E8800FF714046FFF784FC08B113E0082002AB2D
:104E980001932146034600963A466869FFF798FC55
:104EA800041E06DB05F1340205F11C013046FFF74C
:104EB80039FF20460CB0BDE8F08738B505461446E2
:104EC8002B7D062B084611D11C2313700A2353701F
:104ED800FFF716FC083424F8060C2B1D143553F87C
:104EE800042B44F8042BAB42F9D138BD042B0AD16A
:104EF8001023137002235370FFF702FC6080686868
:104F0800FFF7EEFB606038BD2DE9F0438BB003ACD2
:104F18001C25994606460F46904600212A462046FB
:104F280001F0F8FC2246BDF848104846FFF7C5FFD7
:104F38009DF80D3043B18DE83000002342463946D4
:104F48007069FFF755FC01E04FF0FF300BB0BDE88A
:104F5800F083F0B591B00C4606460021154609A825
:104F68001C221F4601F0D6FC09AA00212046FFF7A3
:104F7800A4FF9DF82530022B2ED1002305930A9B10
:104F88000493DDB102A92846FFF71AFBB0B910A9AE
:104F980041F8340D0298FFF71BFB60B9039B53B12E
:104FA800DA6812685178022903D152680AB1059269
:104FB80001E01B68F3E70398FFF712FB002F4FF09F
:104FC8000803009318BF032204AB08BF0422002182
:104FD8003046FFF7DDFB1EE00A2B1AD104AC142281
:104FE8000021204601F096FC0BAB0FCB002F84E884
:104FF8000F004FF01403009318BF0C22234608BF7C
:105008000D22292130460895FFF7C2FB00EAE0701F
:1050180001E04FF0FF3011B0F0BD000038B54FF49B
:105028007A7383600B4B03F108026C33002503612C
:105038004FF0FF3304464560026043611C3000F0C6
:10504800F3FA4FF40073E5862587E5632364656406
:10505800204638BD586C0D0010B590F8483004460D
:105068001BB1C06B08B1FFF716F80023E36384F89F
:1050780048302364E386238710BD70B5044616467E
:105088000D46FFF7E9FF0023E66323643EB935B117
:105098002846FEF7FEFF0123E06384F84830E36BFF
:1050A80003B12564206C003018BF012070BDF8B52D
:1050B8001746C26B05460C461AB9016C09B1FFF7D1
:1050C800DCFF04340FCC05F120060FC623683370CB
:1050D8000023AF86EB862B87286CF8BD70B5C26BB2
:1050E80004460E461AB9016C09B1FFF7C6FFE16B19
:1050F8000022E286228749B1226C3AB12368204611
:105108001D6B3346A8470028C8BF20872368204660
:105118001B69BDE87040184710B5074B03F108023A
:105128006C33044602600361FFF76DFD2046FFF70C
:1051380093FF204610BD00BF586C0D0010B5044603
:10514800FFF7EAFF2046FEF7A6FF204610BD0246FD
:105158004069002804DB012392F84420FFF7F9BED8
:105168004FF0FF30704710B504460068FFF72EFC7B
:10517800204610BD10B50446006808B1FFF726FCAC
:1051880000232360A360636010BD38B504460D4654
:1051980000680131FFF722FC10B184E821000120EA
:1051A80038BD10B50368044613B143688B4207D273
:1051B8002046FFF7EAFF20B1A3680BB922681370F5
:1051C800012010BD70B50E46114604461546FFF77E
:1051D800E8FF18B92046FFF7CDFF09E02A46314617
:1051E800A560206801F08BFB2268A3680021D154D8
:1051F800204670BD38B500230446036043608360D1
:1052080003730D4639B1084601F0C6FB294602462C
:105218002046FFF7D7FF204638BD38B505460C466F
:1052280041B1084601F0B8FB214602462846FFF77F
:10523800C9FF01E0FFF79EFF284638BD70B5044658
:105248000E4609B9002070BD6AB18368D518294691
:10525800FFF7A7FF0028F5D02068A3683146184457
:1052680001F092FBA560012070BD8A680968FFF70C
:10527800E5BF08B582680B4612B919B9012008BD07
:1052880011B90368187802E0006801F073FBB0FAFE
:1052980080F0400908BD10B58368934207D90468B7
:1052A8000968A01801F0A1FB08B1001B10BD4FF060
:1052B800FF3010BD0022FFF7EEBF00002DE9F041DE
:1052C8009A420E461C46104988BF134615460746A3
:1052D80084BF25461C46FFF78DFFB1688D420FD865
:1052E8008C4228BF0C463368002213F804801A55F4
:1052F800316838462944FFF790FF336803F8048083
:105308003846BDE8F08100BF116C0D0010B50446A9
:105318008B68FFF7D3FF204610BDF8B506460D464B
:105328008F180024BD420CD0336815F8011B9B6808
:1053380030469847002801DB0444F3E7002C08BFF7
:1053480004462046F8BD70B505460C46084649B1E6
:1053580001F022FB2B68024621462846DB68BDE89F
:105368007040184770BD08B5FFF7EDFF08BD03682A
:105378009B6818470A680B4612680146184610478A
:1053880038B50D210546FFF7F2FF0A2104462846E5
:10539800FFF7EDFF204438BD38B50546FFF7D3FFCA
:1053A80004462846FFF7ECFF204438BD38B50546CB
:1053B800FFF7E0FF04462846FFF7E2FF204438BD28
:1053C80030B58BB00B4600218DF82410012A98BF08
:1053D8000A220DF12304B3FBF2F505FB123303F0A7
:1053E800FF03092B94BF30333733DBB2214604F86F
:1053F80001392B46002DEED1FFF7A5FF0BB030BDCC
:1054080010B42AB903685DF8044B9B68C9B2184701
:10541800D2B25DF8044BFFF7D3BFFFF7F1BF2DE918
:10542800F04107460E4615462AB90368C9B29B687B
:10543800BDE8F04118470A2A02D1002901DA04E040
:10544800D2B2BDE8F041FFF7BBBF2D21FFF78FFFB8
:105458002A46044671423846FFF7B2FF2044BDE8A9
:10546800F08138B50546FFF7DAFF04462846FFF70E
:1054780087FF204438BD0068FFF70AB9014B024A8C
:105488001A607047F4E303207A6D0D00024B1A6826
:10549800024B1A60704700BFF8DE0320F8E30320D0
:1054A8000021FFF7FDB910B58368044613B1032244
:1054B80001469847204610BD10B50446FFF7F3FF94
:1054C800204610BD0348044A04490023836001F0C4
:1054D8008BB800BFFCE3032064DF0320C1540D0038
:1054E80008B50C4B33B100F045F903681B699847C0
:1054F800002809DC084B63B100F0A2F903681B69B6
:105508009847002803DC08BDAFF30080F2E7AFF34B
:10551800008008BD000000000000000008B5FFF78B
:10552800DFFFFFF775F8014B186008BD48E7032057
:1055380007B5002300931A466FF07701FFF7C2F909
:1055480003B05DF804FB000007B543880A2B08D0B8
:10555800502B09D1094B1B683BB103B05DF804EB34
:105568001847FFF7E5FF06E0002300931A466FF09F
:105578007701FFF7A7F903B05DF804FB0CE40320FB
:1055880010B5FFF735F8044601F0CCF9074B13B115
:105598002046AFF3008000210448FFF707FA0021F6
:1055A8000348BDE81040FFF783B900BF00000000C2
:1055B80051550D00704710B50446FEF76CFD2046A6
:1055C80010BDF0B5037D062B8DB00E4600F1040723
:1055D8004FF0000402D000F1080518E00CAD394680
:1055E80005F8304D2F232A460A20FFF769F8284688
:1055F80001F0D2F933680246DB68294630469847FD
:105608000FE024B12E213046FFF7B1FE044415F80F
:10561800011D0A223046FFF700FFBD420444F0D1C5
:1056280020460DB0F0BD000010B5054B0446112210
:1056380040F8043B002101F06DF9204610BD00BF81
:10564800D46D0D000346074A10B543F8042B01F149
:10565800100251F8044B43F8044B9142F9D10A78EF
:105668001A7010BDD46D0D00037D042B01D1406864
:1056780008E0062B0AD1436853B1836843B1C36875
:1056880033B10069003018BF01207047002070470F
:105698001846704710B59DF8084044EA032343EACA
:1056A800024242EA016104234160037510BD000013
:1056B80037B5044D05609DF818500095FFF7EAFFCF
:1056C80003B030BDD46D0D0037B50D788B784A78AE
:1056D800C97800912946FFF7DDFF03B030BD41745A
:1056E800704770470021007CFFF7B2B80121007CA9
:1056F800FFF7AEB8007CFFF7A3B8007CFFF798B8B7
:1057080038B50446007C0D46FFF79AF8002801DCFE
:10571800607C20B12946207CFFF7A2F8012038BD23
:10572800007CFFF7A5B810B50446FEF7B4FC204688
:1057380010BD000010B50446002363604FF47A736F
:10574800A360054B23600123084621746374114646
:10575800FFF75EF8204610BDE86D0D000022007CC2
:10576800FFF75EB810B514220446002101F0D2F804
:10577800204610BD30B50E4D87B001A8FFF7F2FFE7
:10578800296811F0010410D12846FEF788FC60B1A1
:1057980001AA21460748FFF7CDFF2846FEF784FCFB
:1057A800054A0649034800F01FFF024807B030BD0C
:1057B80010E4032014E4032064DF0320EB560D00FB
:1057C800704741747047007CFEF7D2BF007CFEF73B
:1057D800AFBF007CFEF7BCBF007CFEF7B1BF007C0A
:1057E800FEF7BEBF10B50446FEF755FC204610BDB7
:1057F80070B5457C04460E4625B9007CFEF7B8FF17
:10580800002805DD3146207CBDE87040FEF788BFE2
:10581800284670BD10B5044608461146002262604D
:105828004FF47A72A260054A2260012220746274E1
:105838001A46FEF76DFF204610BD00BF186E0D001A
:1058480038B50C4D296811F0010411D12846FEF72E
:1058580026FC68B1084A094B09482146FFF7DAFFD8
:105868002846FEF721FC074A0749054800F0BCFE18
:10587800034838BDC0E40320C4E403203CE403200B
:1058880028E4032064DF0320C9570D0010B5012365
:105898000374836804460BB1C06806E0006828B149
:1058A80083680BB900F0BFFEC3689847012363748F
:1058B8000020BDE81040FEF7FBBE002211464068FC
:1058C800FFF754B8002211464068FFF75FB800227E
:1058D8004068FFF753B8002281F001014068FFF7E4
:1058E8003DB800231A4619464068FFF72FB8002331
:1058F8001A4619464068FFF721B800221146406849
:10590800FFF714B8002211464068FEF7FFBF0022D7
:1059180002214068FFF702B800231A464068FEF7E4
:10592800EDBF38B5054678B1046844B1A3681BB12A
:1059380003222146204698472046FEF7ACFB28461E
:10594800BDE83840FEF7A7BB38BD10B103685B68F7
:105958001847704710B503680446BBB15868FEF78E
:1059680067FE78B923685A7C12B95868FEF770FE4A
:1059780023685868FEF774FE20680023236028B166
:10598800FFF7CFFF206808B1FFF7CBFF204610BD17
:1059980038B50B4B03600446D0F8CC0108B1FEF7CC
:1059A8007CFBD4F8C4512DB12846FFF7D3FF284615
:1059B800FEF771FBA06808B1FFF7C7FF204638BDA6
:1059C800486E0D002DE9F84F0B9F9DF828B006464C
:1059D800884691469A4604460025236C4B4529D1B2
:1059E800636C534526D194F848305B4522D1402159
:1059F800404600F0EEFF41460246204600F0D4FF44
:105A0800C0B96FB10C21384600F0E3FF024638B147
:105A1800582303FB05603946493000F0C5FF04E010
:105A2800582000FB056595F84900B0FA80F0400958
:105A3800BDE8F88F0135052D04F15804CDD10020BB
:105A4800BDE8F88F2DE9F04F85B007469DF838A0DE
:105A58000F9E0196CDF800A0894602920393FFF7A6
:105A6800B1FF00283CD10446582303FB0475D5F840
:105A78004080B8F1000F2ED14021484600F0A9FF20
:105A8800494683460246284600F039FFCBF14002DA
:105A9800414605EB0B0000F03DFF029B2B64039B86
:105AA8006B6485F849802EB10C21304600F091FFD7
:105AB800054600E035465820444338193C442A46F8
:105AC80031464930254400F01AFF002085F8490086
:105AD80084F848A005E00134052CC6D1024800E04E
:105AE800002005B0BDE8F08FFCFEFFFF07B50023DE
:105AF80001930093FFF7A6FF03B05DF804FB2DE9BF
:105B0800F341044608460D46904600F045FF04F56B
:105B1800DC760746236CABB14021204600F059FFE4
:105B2800874202460BD32946204600F0D9FE30B9F9
:105B3800009043462A4621465820FEF7CDFE5834A9
:105B4800B442E7D102B0BDE8F081000030B58DB0B5
:105B580004461122002101A800F0DCFE062301AA58
:105B680009498DF814300A20FEF7B2FD07AD01A9E6
:105B780006A8FFF767FD0FCD04340FC42B68237008
:105B880000200DB030BD00BF746E0D0030B5044666
:105B980089B000F5E070FFF76EFC236883BB4C20EA
:105BA800FEF775FA054608B1FFF738FA2068256050
:105BB80008B1FFF7CAFE206820B300224FF49A61AB
:105BC800FFF75BFA08A9002501F8195D1148FEF7EF
:105BD800E7FC20689DF80720036849F269011B6A01
:105BE800984702A8FFF720FD02A8FFF7AFFF00289B
:105BF80004DB02A92068FFF7AAFA04E0054602E0E0
:105C0800002500E0044DD4F8C001FEF749FD284600
:105C180009B030BD816E0D00FCFEFFFF2DE9F34198
:105C2800044600F5E0700F469046FFF724FCD4F8D0
:105C3800BC61002E39D12849042000F0E5FC054656
:105C480040B32549142000F0DFFC28B10674066033
:105C580046608660C66046742860A8B11F4B8360A2
:105C68002B681F49DC6028684FF440638DE8090001
:105C780003221C4B0430FEF7D3FC28B92B681B7C8D
:105C880043B9FEF7DDFCF9E7286800232B6008B16B
:105C9800FFF747FED4F8BC61C4F8BC512EB13046BA
:105CA800FFF758FE3046FEF7F6F92046FFF76EFF7D
:105CB800002807DB42463946201DFFF717FF00EA98
:105CC800E07500E00546D4F8C001FEF7E9FC284677
:105CD80002B0BDE8F08100BF846F0D00015E0D00C9
:105CE800856E0D0095580D002DE9F041054600F52B
:105CF800E0768AB03046FFF7BEFB2C68D5F8C001C5
:105D0800FEF7CEFC002C63D0D5F8C43163B123680C
:105D1800D5F8C4111F6B20464FF47A734FF49A627A
:105D2800B847041E13DC56E02D494FF49A6000F082
:105D380069FCD5F8C431C5F8C40113B11846FEF79B
:105D4800ACF9D5F8C431002BE1D1264844E0202332
:105D5800254A029300920023019402AA234903933F
:105D68000120FEF78DFDD5F8C4315F1C1B786BBB95
:105D7800013C2146384600F02CFE38B3241A002C8A
:105D880007EB000822DD3B5C03BB013C0ED008F1A9
:105D980001082146404600F01CFE241A002C15DD9F
:105DA80018F8003093B9012C02D00FE0DFF84480D6
:105DB8003046FFF760FB42463946281DFFF79FFE35
:105DC800D5F8C001FEF76CFC002005E0084803E0A8
:105DD8006420FEF715FC20460AB0BDE8F08100BF3C
:105DE800846F0D00FCFEFFFF946E0D008D6E0D009C
:105DF800E8FEFFFF116C0D0008B504462046FFF7CA
:105E080073FFFBE738B50D4C0D4B236000250223CB
:105E180004F5E4706360A560C4F8C451C4F8C851BF
:105E2800FEF72EFC074BC4F8CC5123602046064AE7
:105E38000649BDE8384000F0D7BB00BF48E503205D
:105E4800586F0D00486E0D0064DF032099590D004E
:105E580037B502AC036804F8011DDD6B01224FF071
:105E6800FF332146A84703B030BD10B40368DC6B8C
:105E78004FF0FF33A4465DF8044B604737B502ACDA
:105E8800036804F8011DDD6B214613460122A8476B
:105E980003B030BD704738B543691A68002A044614
:105EA80005DAB3F88620B3F884309A4201D0012588
:105EB8000BE003681B699847002814BF01250025DB
:105EC80003D123682046DB6A9847284638BD4369D2
:105ED8001868C043C00F704770470020704710B55E
:105EE8000446FEF7D8F8204610BDFEF7D4B80000E7
:105EF8002DE9F0439846036893B0DB6A0C460646E2
:105F08001746984712AB002543F8485D2A462946AC
:105F18002046FEF72DFB00283ADB009B002B39D0EA
:105F28005B69002B36D006A8FFF77EFB009B5C69F7
:105F38006378022B01D1211D13E00A2B14D1112201
:105F4800294601A800F0E6FCA36833BBE36823BB3D
:105F58004FF6FF702569FEF7C3FB85421DD104F19A
:105F6800140106A8FFF7B0FB06A8FFF77DFB88B170
:105F7800336807ADD3F82090184B0C930FCD0DACB8
:105F88000FC42B6823703A4643460CA93046C847CD
:105F980004461CE04FF0FF3419E004F1080301AD9A
:105FA8001834186859682A4603C20833A3421546AC
:105FB800F7D1062301A90CA80DAD8DF81430FFF711
:105FC80041FB0FCD07AC0FC42B682370CCE70098BA
:105FD800FEF7C6FA204613B0BDE8F083D46D0D0075
:105FE8007FB5164600224260029203925A1C04466C
:105FF8000D4608D04FF47A72B3FBF2F1029102FB1E
:1060080011314A43039260690823009341F2050263
:106018006B4440F6FF710068FEF7BAFB002808DB06
:1060280060690023324629460068FEF7D9FB00283C
:1060380004DAFEF7E3FC03686360002004B070BD77
:1060480010B5036804469B689847A368013BA360A2
:106058002BB923682046DB68BDE81040184710BDFF
:1060680070B504464D69054B44F8043B8C3506462B
:106078000FCD0FC42B682370304670BDD46D0D0052
:1060880010B54369B3F88620B3F884309A420446C1
:1060980005D06269B2F884301344187910BD0368DA
:1060A8001B6998470028F4D14FF0FF3010BD10B598
:1060B8004369B3F88620B3F884309A42044608D07E
:1060C8006269B2F88430591C1344A2F88410187914
:1060D80010BD03681B6998470028F1D14FF0FF30C5
:1060E80010BDF8B543691746B3F88620B3F8843075
:1060F8009A4205460E4606D103681B69984710B9AF
:106108004FF0FF3414E06969B1F88430B1F8864083
:10611800E41ABC4228BF3C461944224604313046A2
:1061280000F0EDFB6A69B2F884302344A2F88430A9
:106138002046F8BD42690023A2F884304269A2F8DB
:10614800863070472DE9F041984603680D468AB0BD
:10615800DB6A0646174698472B7D7469042B0CBFEB
:1061680002200A2006220121FEF74AFB20607369FB
:106178001C68002C5BDB3046FFF7DCFFB8F1000F32
:1061880017D0002303A95FFA88F00393ADF8103005
:10619800FEF70EFA002849DB70690623009341F2E6
:1061A8000B0203AB40F6FF710068FEF7F1FA002816
:1061B8003CDB1C242246002103A800F0ABFB2B7D0E
:1061C8008DF80C40042B0CD1022338468DF80D3085
:1061D800FEF796FAADF80E006868FEF781FA0490AB
:1061E80013E00A2338468DF80D30FEF789FA05AC1E
:1061F800ADF80E002B1D05F11407186859682246E2
:1062080003C20833BB421446F7D173691C2203A9A1
:106218001868FEF7CDFA002808DB2C1D0FCC76692C
:106228008C360FC623683370012404E004463368B3
:106238003046DB6A984720460AB0BDE8F08110B5C1
:10624800436904461868002801DBFEF7A9FA636968
:106258004FF0FF321A606069112200218C3000F083
:1062680059FB2046BDE81040FFF764BF30B54269CE
:10627800B2F886308BB004461BB1B2F884209A423B
:1062880040D06369186800283FDBB3F886507F2D3B
:106298003BD8191DC5F1800208232944FEF790FA5E
:1062A80000280CDD6369B3F886200AB9A3F88420B6
:1062B8006269B2F886301844A2F8860025E0FEF735
:1062C8009DFB03680B2B20D0FEF798FB03680B2B74
:1062D8001BD02023002502930395FEF78FFB03684C
:1062E80001930E4B009302AA2B460D493220FEF76C
:1062F800C7FA63691868FEF753FA63694FF0FF320B
:106308001A6002E0FFF716FFBBE76269B2F8863051
:10631800B2F88400181A0BB030BD00BF0C6F0D0026
:106328008D6E0D0010B5002304460160A0F884307E
:10633800A0F886308830FFF777F9204610BD0000B6
:106348004FF47A7270B500238260144A4360026089
:10635800436183610446A0200E46FDF798FE05467A
:1063680010B13146FFF7DEFF1420FDF790FE03461B
:1063780028B1012242608260094A02600561A06971
:106388006561A36128B14368013B43600BB9FFF71E
:1063980057FE2046FFF7CEFE204670BDC86E0D00A2
:1063A800AC6E0D0010B54FF0FF310446FFF7C8FF83
:1063B800204610BD10B504460068002801DBFEF732
:1063C800EFF9204610BD10B504692046FFF7F2FF2B
:1063D80024B12046BDE81040FDF75DBE10BD002287
:1063E80011464068FEF7A2BA002211464068FEF73F
:1063F800BDBA002211464068FEF7C8BA00224068BC
:10640800FEF7BCBA002281F001014068FEF7A6BA87
:1064180000231A4619464068FEF798BA00231A4620
:1064280019464068FEF78ABA002211464068FEF70E
:106438006DBA002202214068FEF770BA00231A469E
:106448004068FEF75BBA0000024B04225A60024A19
:106458001A60704718E70320246F0D0000231A46BE
:106468004068FEF74BBA002202214068FEF756BA90
:10647800002211464068FEF749BA002211464068DA
:10648800FEF754BA00231A4619464068FEF756BA72
:1064980000231A4619464068FEF758BA002281F0D0
:1064A80001014068FEF75ABA00224068FEF766BA52
:1064B800002211464068FEF769BA0022114640687A
:1064C800FEF754BA2DE9F043002495B016460D4660
:1064D8000746FFF7A9F8214620220CA8009400F0EF
:1064E80019FA40230C9321466B460CAA3046FEF756
:1064F8003FF80446002844D1024601216868FEF7A7
:1065080015FA0221804622466868FEF70FFA009EB7
:1065180081462146002E34D0002932D17368022BDF
:1065280002D00A2B09D02AE0B8F1000F27D07169F0
:1065380038460431FFF7C8F820E0B9F1000F1ED043
:106548007469112201A800F0E5F906238DF81430CA
:1065580001AD04F108031834186859682A4603C2C3
:106568000833A3421546F7D101A906A807ADFFF7DE
:1065780069F80FCD3C1D0FC42B6823700121F66903
:10658800C8E70098FDF7ECFF384615B0BDE8F08382
:10659800024B034A1A6000225A60704720E7032022
:1065A800586F0D0070B50C4C0C4E0D4D0021204657
:1065B800FEF772FA20460B4C3246294600F014F8D2
:1065C80001212046FEF768FA324629462046BDE8F2
:1065D800704000F009B800BF28E7032064DF0320FB
:1065E800914A0D0038E703200B460146184600F093
:1065F80069B90000024B1868BFF35F8F704700BF8E
:106608004CE7032000F000B810B5002814BF04467A
:1066180001242046FEF7D2F920B9FFF7EBFF08B1B5
:106628008047F6E710BD08B5FEF7E0F9184B1A6881
:10663800D1075CBF01221A60164B1A68D2075CBFEB
:1066480001221A60144B1A68D0075CBF01221A6035
:10665800124B1A68D1075CBF01221A60104B1A68E6
:10666800D2075CBF01221A600E4B1A68D0075CBFC4
:1066780001221A600C4B1A68D1075CBF01221A600C
:106688000A4B1A68D2075CBF01221A60704700BF24
:106698006CE7032068E7032064E7032060E7032032
:1066A8005CE7032058E7032054E7032050E7032062
:1066B800244B1A68D0075CBF01221A60224B1A6863
:1066C800D1075CBF01221A60204B1A68D2075CBF51
:1066D80001221A601E4B1A68D0075CBF01221A609B
:1066E8001C4B1A68D1075CBF01221A601A4B1A6842
:1066F800D2075CBF01221A60184B1A68D0075CBF2A
:1067080001221A60164B1A68D1075CBF01221A6071
:10671800144B1A68D2075CBF01221A60124B1A6820
:10672800D0075CBF01221A60104B1A68D1075CBF02
:1067380001221A600E4B1A68D2075CBF01221A6048
:10674800704700BF9CE7032098E7032094E70320E5
:1067580090E703208CE7032088E7032084E70320E1
:1067680080E703207CE7032078E7032074E7032011
:1067780070E70320244B1A68D0075CBF01221A6017
:10678800224B1A68D1075CBF01221A60204B1A6895
:10679800D2075CBF01221A601E4B1A68D0075CBF83
:1067A80001221A601C4B1A68D1075CBF01221A60CB
:1067B8001A4B1A68D2075CBF01221A60184B1A6874
:1067C800D0075CBF01221A60164B1A68D1075CBF5C
:1067D80001221A60144B1A68D2075CBF01221A60A2
:1067E800124B1A68D0075CBF01221A60104B1A6856
:1067F800D1075CBF01221A600E4B1A68D2075CBF32
:1068080001221A60704700BFCCE70320C8E70320C5
:10681800C4E70320C0E70320BCE70320B8E7032050
:10682800B4E70320B0E70320ACE70320A8E7032080
:10683800A4E70320A0E70320184B1A68D1075CBF20
:1068480001221A60164B1A68D2075CBF01221A602F
:10685800144B1A68D0075CBF01221A60124B1A68E1
:10686800D1075CBF01221A60104B1A68D2075CBFBF
:1068780001221A600E4B1A68D0075CBF01221A6009
:106888000C4B1A68D1075CBF01221A600A4B1A68C0
:10689800D2075CBF01221A60704700BFECE70320F3
:1068A800E8E70320E4E70320E0E70320DCE7032030
:1068B800D8E70320D4E70320D0E703200A220021E9
:1068C80000F034B910B5054C13462CB10A46014600
:1068D8000220AFF3008010BD204610BD000000006C
:1068E80010B501390244904207D010F8013B11F865
:1068F800014FA342F7D0181B10BD002010BD10B5E2
:10690800431E0A44914204D011F8014B03F8014F89
:10691800F8E710BD02440346934202D003F8011B76
:10692800FAE7704738B5124B1C68A36B0546D3B914
:106938001820FEF743F843F20E33A06303804AF6AB
:10694800CD33438041F2342383804EF26D63C3809C
:106958004DF6EC630381052343810B2383810122D8
:106968000023C0E90423A36B00221D615A6138BDCE
:1069780060DF032010F8012B11F8013B012A28BF22
:106988009A42F7D0D01A7047034611F8012B03F842
:10699800012B002AF9D17047034613F8012B002A6E
:1069A800FBD1181A0138704730B582B1451E01393C
:1069B80015F8013F11F8014FA34206D1EC431444E6
:1069C800E04201D0002BF3D11C46181B30BD104605
:1069D80030BD10B5034601448B4204D01A785C1CC4
:1069E8000AB12346F8E7181A10BDF0B5037863B961
:1069F8000B78002B18BF0020F0BD15F8012F62B1ED
:106A080014F8017F97423046F7D00346461C0078B9
:106A180010B14D1E5C1EF0E7F0BD1846F0BD000039
:106A28002DE9F04780464048D0F800900F463D4693
:106A380015F8014B09EB0400407800F0080000F05D
:106A4800FF0608B12F46F2E72D2C03D1BD1C7C7838
:106A5800012603E02B2C04BF7C78BD1C13B1102B3E
:106A68000AD15BE0302C57D1287800F0DF00582895
:106A78004DD16C7810230235002E14BF4FF0004C16
:106A88006FF0004C0027BCFBF3FA384603FB1ACC26
:106A980009EB040E9EF801E01EF0040F01D0303C13
:106AA8000BE01EF0030E1BD0BEF1010F0CBF4FF020
:106AB800370E4FF0570ECEEB0404A34210DDB7F1AA
:106AC800FF3F0AD0504506D801D1644503DC03FBDB
:106AD8000040012701E04FF0FF3715F8014BD7E7D9
:106AE8007B1C0CD1002E4FF0220314BF4FF0004046
:106AF8006FF00040C8F800302AB9BDE8F08706B149
:106B0800404272B107B1691E1160BDE8F0873024B8
:106B1800002BB1D10823AFE70A23ADE7302CA3D06F
:106B2800AAE7BDE8F08700BFFCDE032013460A464B
:106B3800014602480068FFF773BF00BF60DF03200B
:106B48001D400D0059400D0085400D0089400D0085
:106B580000000000504F53540073656E6400697064
:106B68003A20002F746F706963732F6461746161D8
:106B780076726F0073656E736F7244617461004161
:106B88006363657074006170706C69636174696FC8
:106B98006E2F766E642E6B61666B612E76322B6A71
:106BA800736F6E00436F6E74656E742D54797065E3
:106BB800006170706C69636174696F6E2F766E64C2
:106BC8002E6B61666B612E6176726F2E76322B6A40
:106BD800736F6E0020485454502F312E300D0A0028
:106BE800636C6F736500436F6E6E656374696F6E77
:106BF80000484F535400436F6E74656E742D4C6596
:106C08006E677468000D0A0D0A000000000000009D
:106C180000000000734A0D00694A0D005F4A0D002C
:106C2800554A0D00494A0D003D4A0D00314A0D00F4
:106C3800294A0D001F4A0D00154A0D00CD640D00AC
:106C48000000000000000000914A0D00934A0D006A
:106C5800000000000000000021510D0045510D000A
:106C6800014B0D002B4C0D00F94A0D00174B0D0080
:106C7800354B0D004F4B0D00734B0D000F4C0D00A5
:106C8800114F0D00B14C0D00314E0D00E14A0D00C1
:106C9800B7500D00B54D0D00E94C0D00E5500D0045
:106CA800554C0D00EF4A0D00914C0D00F54A0D00B2
:106CB800514B0D00F0FFFFFF000000006B4B0D0073
:106CC80066006C6E00666E00636F646500646574D0
:106CD80061696C00253031307520005D20002C2062
:106CE8000028293A2000205B00636F6465203D205E
:106CF8000025690064657461696C73203D20006239
:106D08006175640053657269616C005365726961ED
:106D18006C31007479706500706172616D00636D2B
:106D28006400696400686E64007374726D0066695B
:106D38006C74006C766C0061646448616E646C65A8
:106D4800720072656D6F766548616E646C6572007D
:106D5800656E756D48616E646C657273004A534F59
:106D68004E53747265616D4C6F6748616E646C65F3
:106D78007200617070006E6F6E6500747261636599
:106D880000696E666F007761726E006572726F726D
:106D98000070616E696300616C6C005A00252B30CD
:106DA80033643A253032750025592D256D2D25641B
:106DB8005425483A254D3A2553257A006173637462
:106DC800696D65000000000000000000CB550D0053
:106DD800BD550D00BF550D0000000000000000006B
:106DE800EB560D002F570D0009570D0023530D00CA
:106DF80003570D00ED560D00F5560D0029570D00EF
:106E0800FD560D00E7560D000000000000000000D0
:106E1800C9570D00ED570D00F9570D0023530D000C
:106E2800D5570D00E1570D00DB570D00E7570D0052
:106E3800CB570D00CF570D000000000000000000E8
:106E480021590D0017590D000D590D0003590D005A
:106E5800F7580D00EB580D00DF580D00D7580D00FE
:106E6800CD580D00C3580D00CD640D006666303353
:106E78003A3A313A3130303100746831006D657317
:106E88006870756200776972696E67007061727305
:106E980065207061636B6574202564000000000044
:106EA80000000000E15E0D00E75E0D00CF630D00FD
:106EB800F35E0D00E35E0D0000000000000000001E
:106EC80041410D0081410D00595E0D00735E0D00BA
:106ED80075620D00B7600D0089600D009D5E0D00A4
:106EE8004D610D00F95E0D00EB600D0047620D006D
:106EF8009F5E0D00D75E0D00855E0D00E95F0D00F9
:106F080069600D0072656376206572726F72203D4C
:106F180020256400000000000000000045640D000A
:106F28003B640D0031640D00E7630D0025640D001E
:106F380019640D000D640D0005640D00FB630D0060
:106F4800F1630D00CD640D0000000000000000009A
:106F580065640D006F640D0079640D0083640D0095
:106F68008D640D0099640D00A5640D00B1640D00D9
:106F7800B9640D00C3640D00CD640D00000020202D
:106F880020202020202020282828282820202020D1
:106F98002020202020202020202020202020881091
:106FA80010101010101010101010101010100404F1
:106FB80004040404040404041010101010101041F8
:106FC8004141414141010101010101010101010169
:106FD80001010101010101010110101010101042FE
:106FE8004242424242020202020202020202020239
:106FF8000202020202020202021010101020000017
:107008000000000000000000000000000000000078
:107018000000000000000000000000000000000068
:107028000000000000000000000000000000000058
:107038000000000000000000000000000000000048
:107048000000000000000000000000000000000038
:107058000000000000000000000000000000000028
:107068000000000000000000000000000000000018
:107078000000000000000000000000000000000008
:1070880000000000000000000000000000000000F8
:1070980000000000000000000000000000000000E8
:1070A80000000000000000000000000000000000D8
:1070B80000000000000000000000000000000000C8
:1070C80000000000000000000000000000000000B8
:1070D80000000000000000000000000000000000A8
:1070E8004300000055420D002D430D007D4A0D0060
:1070F800C94A0D0085540D0095540D00CD540D005E
:107108000D5E0D0051640D0099650D00AD650D0013
:1071180035660D00B9660D007D670D0041680D00EC
:0871280000000000000000005F
:10713000876B0D008E6B0D00AC6B0D00B96B0D00F5
:107140000000000000000000C46D0D00856F0D0000
:107150000000000088700D00A8700D00C8700D00C0
:10716000000000000000000000000000000000001F
:10717000E8700D00000000000000000000000000AA
:1071800000000000000000000000000000000000FF
:1071900000000000000000000000000000000000EF
:1071A00000000000000000000000000000000000DF
:0471B00000DF0320D9
:1071B400FFFFFFFF00000102030405060708090A98
:1071C4000B0C0D0E0F101112131415161718191A93
:0871D4001B1C1D1E1F202800DA
:0471DC00785634129B
:04000003D0004018D1
:00000001FF
