:02000002D0002C
:1040000000400D0034710D00000006000C00050199
:0840100004014E040000000051
:10401800106C0D0009480A49884208B505D0094ABC
:10402800824202D0121A02F08AFD0748074A00218C
:10403800121A02F08FFD014808BD00BF04E30320F7
:10404800A0700D0070E3032070E30320F0E7032065
:1040580070B501F0BDFB074C074BE41AA408002516
:104068001E46A54204D056F8253098470135F8E792
:1040780070BD00BF98700D0054700D0000F068B856
:1040880008B500F0AFF8BDE8084001F06FBB00F0DC
:10409800F9BD00F0F7BD00F0FDBD00F0FBBD0078F4
:1040A800B0FA80F0400970470123037070470000A0
:1040B80008B501F083FC034A0021BDE8084001F07F
:1040C800ABBA00BF246C0D0010B514480C4600F0C4
:1040D800F3F920B18CB901F071FC114904E0002C0E
:1040E800F9D001F06BFC0F4901F053FA0E4B0B4865
:1040F8001968BDE8104000F0C3BA22460B490748CA
:1041080000F03EFB01F05AFC214601F042FA01F0B2
:1041180055FC0749BDE8104001F03BBA84E3032091
:104128002D6C0D00386C0D0074E30320496C0D00F4
:104138004E6C0D0008B5002000F094FD28B100F089
:1041480079FD80F00100C0B208BD012008BD000063
:1041580010B586B001F032FC4FF4165101F022FC84
:10416800B7EE000A01F09EFA01F028FC0446684602
:1041780000F068FD0099204601F00BFA684601F04E
:104188005EF9002000F066FDFFF7D4FFF0B1FFF7FD
:10419800D1FF01F013FC0F4901F0E2F901F00EFC28
:1041A8000D4B002211460446586800F0E3FC811CC0
:1041B800684601F06FFB6946204601F0F4F9074BA9
:1041C8000748196800F05CFA06B010BD00F02AFD37
:1041D800DAE700BF586C0D0018E7032074E30320EA
:1041E80084E3032008B5054A0549064801F03AFE6C
:1041F8004FF4FA70BDE8084001F07ABAD1400D00DA
:104208005D6C0D0050E5032038B50D4C0D4D00F0E8
:10421800FBFA204600F016FD20460B4C0B492A46B7
:1042280002F006FB0A4B0B4940F25B72204600F095
:104238005BF82A4620460849BDE8384002F0F8BA3B
:1042480074E3032070E3032084E3032047540D0044
:10425800B9400D0004E30320AF470D0038B5846969
:104268000A4B036005467CB16368013B63605BB938
:10427800236820469B689847A368013BA3601BB945
:1042880023682046DB689847284638BD306F0D0004
:1042980010B50446FFF7E2FF2046FFF7FCFE204674
:1042A80010BD38B51D46059B0363002304464363D0
:1042B80002B1826419B104F1380001F01AF9049BC3
:1042C8002365069BE069A4F84C50FF2BB8BFFF2379
:1042D800A4F8543008B1FFF7E0FEB4F85400FFF733
:1042E800D8FEE06138BD00002DE9FF4104460025F5
:1042F800174698460E4602F079F9E5610A4904F135
:10430800380001F0E3F8FF2302930F2300932046BF
:10431800A564CDF804803B4632462946FFF7C1FF25
:10432800204604B0BDE8F081426D0D0010B504468A
:10433800204602F0BFF80028FAD0204601F0DBFF43
:10434800C0B210BD2DE9F0470546C4698846FFF79D
:10435800EDFF2070EB6993F800A04FF001090AF017
:10436800F00A00274E462846FFF7E0FFEB6998550C
:1043780000F07F0313FB09F31F44741C0306A4B267
:10438800BFB24FEAC91901D52646ECE7631EBAF158
:10439800300F88F8003013D12846D5F81C80FFF775
:1043A800C5FF08F804002846F41CD5F81C8002361E
:1043B800FFF7BCFFB6B2A4B208F80600022300E07B
:1043C80000231B1B9EB2A3199BB29F420BD9284600
:1043D800FFF7ACFFB5F85430A34284BFEB6918551A
:1043E8000134A4B2EFE7B5F85400A0422CBF204630
:1043F8000020BDE8F087F7B507468E461E461D46E5
:10440800002402A905F07F032144ED0918BF43F0F9
:104418008003013401F8043CE4B2002DF1D1C4F169
:104428000403D11802F803E0A54206DA2B1B01A801
:104438001344285C58710135F6E7721C224438464B
:1044480001F037FE054600F027FA0134786234445B
:10445800A8B2231A5842584103B0F0BD10B5C36939
:10446800E0221A70C36900225A7004460222C16908
:1044780001F01FFE204602F006F800F00DFA606217
:10448800A06210BD0233F0B59BB20D466C1A15F848
:10449800016BA4B23EB1B0F854709F4203D95C1CC2
:1044A800D654A3B2F2E7191B0A44211202F8021CDF
:1044B80002F8014C1846F0BD38B5054601F00FFE6C
:1044C800002814BF0124002402D1284601F0DBFF94
:1044D800204638BD2DE9F04387B004468946174683
:1044E8001E46DDF83880FFF7E7FF0546002840F054
:1044F800BD80A16C39B90346B4F84C20A16B2046A5
:1045080001F01AFE09E0684601F004FA2B46B4F8F7
:104518004C206946204601F039FF002800F0A280AF
:10452800012323849DF84C30042B15D1524B186875
:104538009A88ADF804200090E2699B7900988DF87C
:104548000630531DC2F80500BDF804109DF806207A
:104558009A7199800C2312E0484BD4F81CC0186853
:1045680059681B7A6A4603C213706B4603CBCCF8B2
:104578000500CCF8091013788CF80D300E23B8F12B
:10458800000F0AD09DF840209DF83C10520142F0DF
:10459800060242EAC102D2B200E002229DF84810A7
:1045A80009B902F0FD022FB116B942F0800201E00C
:1045B80042F0C002E169CA54226DE169581C121226
:1045C8000A549A1CE169206D88540333E26949460C
:1045D8002046FFF757FFB8F1000F0BD00346E269FA
:1045E80041462046FFF74EFFE269119903462046EF
:1045F800FFF748FF67B10346E26939462046FFF7EF
:1046080041FF2EB10346E26931462046FFF73AFFE3
:10461800431F9BB2E26910212046FFF7ECFE00F031
:104628003BF94FF47A766062A062204601F042FFBF
:1046380040B900F031F9A36AC01A236D7343984258
:10464800F3D90FE069462046FFF77CFE042809D11C
:10465800E369DE7836B900F01FF90125A06284F815
:104668002C6004E0204601F00EFF00E000252846FB
:1046780007B0BDE8F08300BF686C0D006F6C0D00DB
:104688007FB5042305930123049300230393029326
:10469800019300931A46FFF71DFF07B05DF804FB6E
:1046A8002DE9F14F0D9E9DF828809DF82C509DF81E
:1046B800307004468B4691469A46FFF7FDFE002867
:1046C8004CD0B4F85420E069002102F043FA0523E5
:1046D800E26959462046FFF7D5FE6B1E012B12D81A
:1046E800238CE26901339BB223841B121354411CAF
:1046F80089B2E369228C5A54023080B21EB1238CED
:104708005A1C22843380002291B283188A459BB2B6
:104718000AD9B4F854609E4202F1010204D919F88A
:104728000160E169CE54EFE7B8F1000F0CBF30210A
:1047380031210FB141F00801022D02D141F00401ED
:1047480003E0012D08BF41F00201053BE2699BB27D
:10475800204601B0BDE8F04FFFF74DBE01B0BDE8FF
:10476800F08F1FB5089C0394002402949DF81C4008
:1047780001949DF818400094FFF792FF04B010BD13
:104788007FB5054610460E46144602F013FA00237C
:104798000293019300932246034631462846FFF7C9
:1047A800E0FF04B070BD10B50446FFF785FE10B1F8
:1047B8002046FFF753FEE06908B1FFF76EFC04F1ED
:1047C800380000F03CFE2046FFF748FD204610BDAB
:1047D80000F01AB808B500F017F8014B186008BDCA
:1047E800DCE3032000F010B808B5024B1B689B6897
:1047F800019308BD6802030008B5024B1B68DB681B
:10480800019308BD6802030008B5024B1B681B68CA
:10481800019308BD2C02030008B5024B1B68DB6935
:10482800019308BD3002030008B5024B1B681B69E1
:10483800019308BD6C02030008B5024B1B685B6955
:10484800019308BD6C02030008B5024B1B689B6905
:10485800019308BD6C02030008B5024B1B685B6D31
:10486800019308BD6C02030008B5024B1B689B6DE1
:10487800019308BD6C02030008B5024B1B685B6816
:10488800019308BD1802030008B5024B1B689B681A
:10489800019308BD1802030008B5024B1B685B6949
:1048A800019308BD1802030008B5024B1B685B683A
:1048B800019308BD4802030008B5024B1B689B68BA
:1048C800019308BD4802030008B5024B1B68DB686A
:1048D800019308BD4802030008B5024B1B681B6919
:1048E800019308BD4802030008B5024B1B685B69C9
:1048F800019308BD4802030008B5024B1B681B6BF7
:10490800019308BD4802030008B5024B1B685B6CA5
:10491800019308BD4802030008B5024B1B68DB6C15
:10492800019308BD4802030008B5024B1B685B6D84
:10493800019308BD4802030008B5024B1B68DB6EF3
:10494800019308BD4802030008B5024B1B685B6968
:10495800019308BD6402030008B5024B1B689B69FC
:10496800019308BD6402030008B5024B1B681B6A6B
:10497800019308BD6402030008B5024B1B685B6A1B
:10498800019308BD6402030008B5024B1B689B6ACB
:10499800019308BD6402030008B5024B1B681B683D
:1049A800019308BD3C02030008B5024B1B68DB6895
:1049B800019308BD3C02030008B5024B1B681B6944
:1049C800019308BD3C02030008B5024B1B685B69F4
:1049D800019308BD3C02030008B5024B1B689B69A4
:1049E800019308BD3C02030008B5024B1B68DB6954
:1049F800019308BD3C02030008B5024B1B689B6A83
:104A0800019308BD3C02030008B5024B1B685B68B4
:104A1800019308BD3802030008B5024B1B689B6967
:104A2800019308BD3802030008B5024B1B68DB6917
:104A3800019308BD3802030008B5024B1B681B6AC6
:104A4800019308BD3802030008B5024B1B689B6A36
:104A5800019308BD3802030008B5024B1B68DB6AE6
:104A6800019308BD3802030008B5024B1B681B6B95
:104A7800019308BD3802030008B5024B1B685B6B45
:104A8800019308BD3802030008B5024B1B689B6BF5
:104A9800019308BD3802030008B5024B1B681B6868
:104AA800019308BD4C02030008B5024B1B685B6804
:104AB800019308BD4C02030008B5024B1B681B6933
:104AC800019308BD4C02030008B5024B1B685B69E3
:104AD800019308BD4C02030008B5024B1B689B6993
:104AE800019308BD4C02030008B5024B1B68DB6943
:104AF800019308BD4C02030008B5024B1B681B6AF2
:104B0800019308BD4C02030008B5024B1B681B6DDE
:104B1800019308BD6002030008B5024B1B685B687F
:104B2800019308BD2002030008B5024B1B685B69AE
:104B3800019308BD2002030008B5034B1B68D3F896
:104B48008830019308BD00002002030008B5034B1C
:104B58001B68D3F89430019308BD000020020300BD
:104B680008B5034B1B68D3F8A430019308BD0000B7
:104B78002002030008B5024B1B681B68019308BD9F
:104B88004002030008B5024B1B685B68019308BD2F
:104B98004002030008B5024B1B689B68019308BDDF
:104BA8004002030008B5024B1B68DB68019308BD8F
:104BB8004002030008B5024B1B681B69019308BD3E
:104BC8004002030008B5024B1B685B69019308BDEE
:104BD8004002030008B5024B1B689B69019308BD9E
:104BE8004002030008B5024B1B68DB69019308BD4E
:104BF8004002030008B5024B1B681B6A019308BDFD
:104C08004002030008B5024B1B681B6B019308BDEB
:104C18004002030008B5024B1B685B6B019308BD9B
:104C28004002030008B5024B1B689B68019308BD4E
:104C38004402030008B5024B1B685B69019308BD79
:104C48004402030008B5024B1B68DB69019308BDE9
:104C58004402030008B5024B1B68DB6A019308BDD8
:104C68004402030008B5024B1B681B6B019308BD87
:104C78004402030008B5024B1B68DB6B019308BDB7
:104C88004402030008B5024B1B681B68019308BD6A
:104C98001C02030008B5024B1B685B68019308BD42
:104CA8001C02030008B5024B1B689B68019308BDF2
:104CB8001C02030008B5024B1B685B6A019308BD20
:104CC8001C02030008B5024B1B68DB6A019308BD90
:104CD8001C02030008B5024B1B68DB6B019308BD7F
:104CE8001C020300002211464068FFF783BF002220
:104CF80011464068FFF78EBF00224068FFF782BF69
:104D0800002281F001014068FFF76CBF00231A46BA
:104D180019464068FFF75EBF00231A4619464068E7
:104D2800FFF750BF002211464068FFF743BF00223B
:104D380011464068FFF72EBF002202214068FFF7A6
:104D480031BF00231A464068FFF71CBF024B0322FD
:104D58005A60024A1A607047E0E30320806C0D0035
:104D6800704710B50446FFF796F9204610BD0000BD
:104D780070B5084B0360044600250E4640F80C5FEA
:104D8800FFF7BAFD30462671FFF746FDA5602046BD
:104D980070BD00BFB46C0D00044B00204FF6FF72CD
:104DA800187058809A80FFF7B7BE00BFE8E3032069
:104DB80010B40468246BA4465DF8044B604703688C
:104DC8009B6C1847808E7047028FC08E101A7047F0
:104DD80013B502AB026803F8011DD4681946012215
:104DE800A04702B010BD10B503681B690446984778
:104DF80028B1E38EE26B591CE186D05C10BD4FF000
:104E0800FF3010BD10B503681B690446984718B1F8
:104E1800E38EE26BD05C10BD4FF0FF3010BD7047E1
:104E280010B403460846DC6BD98E1A8F0368521AF1
:104E3800DB6821445DF8044B1847A0F11000FFF728
:104E4800EFBFF0B503688DB01C265B6A04460F46B9
:104E58001546984701233246002105A8029301F020
:104E680079FE8DF8146038460A268DF81560FFF72C
:104E78008BFD1122ADF8160002213046FFF704FE23
:104E88000028606124DB0422009202AB40F6FF7127
:104E9800FFF7C2FDE0B995B10390ADF8100003A982
:104EA800E8B2FFF7C9FC98B90623009341F20B0258
:104EB80003AB40F6FF716069FFF7AEFD40B91C22F5
:104EC80005A96069FFF7A0FD10B96564012004E039
:104ED800236820465B6A984700200DB0F0BD10B5E6
:104EE80004464069002801DBFFF79EFD4FF0FF33C1
:104EF80063610023E386238710BD38B5C36B05467D
:104F0800C08E13B12C6C241A00E01C46944228BFB2
:104F180014462246184401F012FEEB8E2344EB8619
:104F2800204638BD70B503681B6904460E46154611
:104F3800984788B1236820461B699847E38EE16B40
:104F48008542A8BF054619442A46304601F0F7FDB8
:104F5800E38E2B44E38601E04FF0FF35284670BD11
:104F680070B50446054B44F8043B01F1200506469C
:104F78000FCD0FC42B682370304670BD3C6E0D00FA
:104F8800F0B59446026889B0976A0A4A02921D1DD4
:104F98008E4606460FCD03AC0FC42B682370BDF8B0
:104FA80038300093624602AB71463046B84709B0C4
:104FB800F0BD00BF3C6E0D00F0B50368B0F836E0F8
:104FC8009F6A0D4B89B000F12006044602930FCE6C
:104FD80003AD0FC533682B70A38E0093724602ABE6
:104FE800E16B2046B84723680546DB6920469847A9
:104FF800284609B0F0BD00BF3C6E0D00F0B54378FF
:10500800022B8DB005460C46174601D1011D33E031
:105018000A2B35D11122002101A801F09BFDAB68B4
:1050280043B9EB6833B94FF6FF702E69FFF79CFC64
:1050380086421FD005F1080301AE05F1180E186865
:105048005968324603C2083373451646F7D106231A
:1050580001A906A807AE8DF8143000F01BFC0FCE8E
:1050680004340FC43368237057B16888FFF784FC91
:10507800388005E005F11401204600F040FCF3E714
:105088000DB0F0BD2DE9F0418EB00EAB00250646FF
:105098001746084643F8345D2A462946FFF7ACFB15
:1050A80000281FDB019BFBB15B69EBB102A800F094
:1050B800E3FB019B2A46586902A9FFF79FFF02A854
:1050C80000F0FAFB80B1336803ADD3F838800B4B9E
:1050D80008930FCD09AC0FC42B6823703A4608A972
:1050E8003046C047044601E04FF0FF340198FFF70F
:1050F8007BFB20460EB0BDE8F08100BF3C6E0D0082
:105108002DE9F047D0F81480B8F1000F8CB00546AF
:105118000C461746994600DB11B94FF0FF3035E0D1
:105128004FF01C0A05AE52460021304601F012FD30
:10513800CDF808A0B9F1000F14D04FF47A72B9FB7A
:10514800F2F1039102FB11914A4308230492009360
:1051580041F2060203AB40F6FF714046FFF75CFCE4
:1051680008B113E0082002AB0193214603460096DC
:105178003A466869FFF770FC041E06DB05F1340245
:1051880005F11C013046FFF739FF20460CB0BDE899
:10519800F08738B5054614462B7D062B084611D1F5
:1051A8001C2313700A235370FFF7EEFB083424F80E
:1051B800060C2B1D143553F8042B44F8042BAB4272
:1051C800F9D138BD042B0AD1102313700223537070
:1051D800FFF7DAFB60806868FFF7C6FB606038BDE0
:1051E8002DE9F0438BB003AC1C25994606460F46C3
:1051F800904600212A46204601F0ACFC2246BDF824
:1052080048104846FFF7C5FF9DF80D3043B18DE8BB
:1052180030000023424639467069FFF72DFC01E053
:105228004FF0FF300BB0BDE8F083F0B591B00C46FD
:1052380006460021154609A81C221F4601F08AFCD3
:1052480009AA00212046FFF7A4FF9DF82530022B6C
:105258002ED1002305930A9B0493DDB102A92846A9
:10526800FFF7F2FAB0B910A941F8340D0298FFF728
:10527800F3FA60B9039B53B1DA68126851780229CE
:1052880003D152680AB1059201E01B68F3E703985D
:10529800FFF7EAFA002F4FF00803009318BF032224
:1052A80004AB08BF042200213046FFF7B5FB1EE01F
:1052B8000A2B1AD104AC14220021204601F04AFC22
:1052C8000BAB0FCB002F84E80F004FF014030093B3
:1052D80018BF0C22234608BF0D2229213046089505
:1052E800FFF79AFB00EAE07001E04FF0FF3011B0E1
:1052F800F0BD000038B54FF47A7383600B4B03F1AF
:1053080008026C33002503614FF0FF330446456003
:10531800026043611C3000F0AFFA4FF40073E58679
:105328002587E56323646564204638BDBC6C0D00A1
:1053380010B590F8483004461BB1C06B08B1FEF7B1
:10534800AAFE0023E36384F848302364E3862387B6
:1053580010BD70B5044616460D46FFF7E9FF002359
:10536800E66323643EB935B12846FEF792FE012371
:10537800E06384F84830E36B03B12564206C0030A7
:1053880018BF012070BDF8B51746C26B05460C461C
:105398001AB9016C09B1FFF7DCFF04340FCC05F131
:1053A80020060FC6236833700023AF86EB862B8751
:1053B800286CF8BD70B5C26B04460E461AB9016C6C
:1053C80009B1FFF7C6FFE16B0022E286228749B1E7
:1053D800226C3AB1236820461D6B3346A847002843
:1053E800C8BF2087236820461B69BDE8704018475E
:1053F80010B5074B03F108026C33044602600361E1
:10540800FFF76DFD2046FFF793FF204610BD00BF54
:10541800BC6C0D0010B50446FFF7EAFF2046FEF706
:105428003AFE204610BD02464069002804DB0123ED
:1054380092F84420FFF7F9BE4FF0FF30704710B5DF
:1054480004460068FFF726FC204610BD10B5044648
:10545800006808B1FFF71EFC00232360A3606360A7
:1054680010BD38B504460D4600680131FFF71AFC37
:1054780010B184E82100012038BD10B50368044646
:1054880013B143688B4207D22046FFF7EAFF20B1E9
:10549800A3680BB922681370012010BD70B50E46C1
:1054A800114604461546FFF7E8FF18B92046FFF7EE
:1054B800CDFF09E02A463146A560206801F03FFB90
:1054C8002268A3680021D154204670BD38B5002356
:1054D800044603604360836003730D4639B1084690
:1054E80001F068FB294602462046FFF7D7FF204611
:1054F80038BD38B505460C4641B1084601F05AFB9F
:10550800214602462846FFF7C9FF01E0FFF79EFF44
:10551800284638BDF8B506460D468F180024BD420A
:105528000CD0336815F8011B9B6830469847002853
:1055380001DB0444F3E7002C08BF04462046F8BD0D
:1055480070B505460C46084649B101F033FB2B6897
:10555800024621462846DB68BDE87040184770BD02
:1055680008B5FFF7EDFF08BD03689B6818470A6890
:105578000B46126801461846104738B50D210546F6
:10558800FFF7F2FF0A2104462846FFF7EDFF204403
:1055980038BD38B50546FFF7D3FF04462846FFF760
:1055A800ECFF204438BD38B50546FFF7E0FF044658
:1055B8002846FFF7E2FF204438BD30B58BB00B46D4
:1055C80000218DF82410012A98BF0A220DF1230426
:1055D800B3FBF2F505FB123303F0FF03092B94BF6D
:1055E80030333733DBB2214604F801392B46002D1E
:1055F800EED1FFF7A5FF0BB030BD10B42AB9036890
:105608005DF8044B9B68C9B21847D2B25DF8044BE9
:10561800FFF7D3BFFFF7F1BF0CB42DE9F04387B014
:1056280000AF07F13804054654F8049B3C600E4669
:1056380023464A461421381DFFF73CFB132805D89A
:10564800391D2846FFF77CFF044613E000F10803E4
:1056580023F00703E846ADEB030D411C23464A46F9
:1056680068463C60FFF726FB69462846FFF768FF57
:105678000446C5461EB12846FFF77FFF044420466E
:105688001C37BD46BDE8F04302B070470068FFF71D
:1056980043B90000014B024A1A607047F0E3032047
:1056A800E16D0D00FAEE087AB4EEE70AF1EE10FAB1
:1056B8000FD4F2EE0C7AB4EEE70AF1EE10FA08DC39
:1056C800DFED047A044B20EE270ABDEEC00A83ED15
:1056D800000A704700006145F8E30320024B1A688E
:1056E800024B1A60704700BF08E30320F4E303206D
:1056F8000021FFF719BA10B58368044613B10322D5
:1057080001469847204610BD10B50446FFF7F3FF41
:10571800204610BD0348044A04490023836001F071
:1057280087B800BFFCE3032070E3032011570D0086
:1057380008B50C4B33B100F041F903681B69984771
:10574800002809DC084B63B100F09EF903681B6967
:105758009847002803DC08BDAFF30080F2E7AFF3F9
:10576800008008BD000000000000000008B5FFF739
:10577800DFFFFFF791F8014B186008BD48E70320E9
:1057880007B5002300931A466FF07701FFF7DEF99B
:1057980003B05DF804FB000007B543880A2B08D066
:1057A800502B09D1094B1B683BB103B05DF804EBE2
:1057B8001847FFF7E5FF06E0002300931A466FF04D
:1057C8007701FFF7C3F903B05DF804FB0CE403208D
:1057D80010B5FFF751F8044601F0C4F9074B13B1AF
:1057E8002046AFF3008000210448FFF743FA002168
:1057F8000348BDE81040FFF79FB900BF0000000054
:10580800A1570D00704710B50446FEF744FC20462A
:1058180010BDF0B5037D062B8DB00E4600F10407D0
:105828004FF0000402D000F1080518E00CAD39462D
:1058380005F8304D2F232A460A20FFF785F8284619
:1058480001F0B8F933680246DB68294630469847C4
:105858000FE024B12E213046FFF786FE044415F8E8
:10586800011D0A223046FFF7D5FEBD420444F0D19F
:1058780020460DB0F0BD000010B5054B04461122BE
:1058880040F8043B002101F065F9204610BD00BF37
:105898003C6E0D000346074A10B543F8042B01F18E
:1058A800100251F8044B43F8044B9142F9D10A789D
:1058B8001A7010BD3C6E0D00037D042B01D14068A9
:1058C80008E0062B0AD1436853B1836843B1C36823
:1058D80033B10069003018BF0120704700207047BD
:1058E8001846704710B59DF8084044EA032343EA78
:1058F800024242EA016104234160037510BD37B5D5
:105908000D788B784A78C97800912946FFF7EAFF25
:1059180003B030BD10B5034B03600446FFF7EFFF3B
:10592800204610BD3C6E0D00417470477047002141
:10593800007CFFF7D1B80121007CFFF7CDB8007CCF
:10594800FFF7C2B8007CFFF7B7B838B50446007C4B
:105958000D46FFF7B9F8002801DC607C20B1294624
:10596800207CFFF7C1F8012038BD007CFFF7C4B8E0
:1059780010B50446FEF78FFB204610BD10B504464F
:10598800002363604FF47A73A360054B23600123FF
:105998000846217463741146FFF77EF8204610BD4F
:1059A800506E0D000022007CFFF77EB810B514225F
:1059B8000446002101F0CEF8204610BD30B50E4D4A
:1059C80087B001A8FFF7F2FF296811F0010410D190
:1059D8002846FEF764FB60B101AA21460748FFF795
:1059E800CDFF2846FEF760FB054A0649034800F04C
:1059F8001FFF024807B030BD10E4032014E4032061
:105A080070E3032035590D00704741747047007CDE
:105A1800FEF7F2BF007CFEF7CFBF007CFEF7DCBFCD
:105A2800007CFEF7D1BF007CFEF7DEBF10B5044650
:105A3800FEF731FB204610BD70B5457C04460E4686
:105A480025B9007CFEF7D8FF002805DD3146207C0B
:105A5800BDE87040FEF7A8BF284670BD10B50446E3
:105A680008461146002262604FF47A72A260054A25
:105A780022600122207462741A46FEF78DFF2046C8
:105A880010BD00BF806E0D0038B50C4D296811F0AF
:105A9800010411D12846FEF702FB68B1084A094BF8
:105AA80009482146FFF7DAFF2846FEF7FDFA074ABC
:105AB8000749054800F0BCFE034838BDC0E4032090
:105AC800C4E403203CE4032028E4032070E303201B
:105AD800115A0D0010B501230374836804460BB1F5
:105AE800C06806E0006828B183680BB900F0BFFE03
:105AF800C3689847012363740020BDE81040FEF78F
:105B08001BBF002211464068FFF774B800221146F7
:105B18004068FFF77FB800224068FFF773B800229B
:105B280081F001014068FFF75DB800231A46194665
:105B38004068FFF74FB800231A4619464068FFF738
:105B480041B8002211464068FFF734B800221146D8
:105B58004068FFF71FB8002202214068FFF722B80B
:105B680000231A464068FFF70DB838B5054678B1E6
:105B7800046844B1A3681BB1032221462046984714
:105B88002046FEF788FA2846BDE83840FEF783BA73
:105B980038BD10B103685B681847704710B50368D3
:105BA8000446BBB15868FEF787FE78B923685A7C6B
:105BB80012B95868FEF790FE23685868FEF794FEFD
:105BC80020680023236028B1FFF7CFFF206808B1C1
:105BD800FFF7CBFF204610BD38B50B4B03600446DA
:105BE800D0F8CC0108B1FEF758FAD4F8C4512DB159
:105BF8002846FFF7D3FF2846FEF74DFAA06808B1FC
:105C0800FFF7C7FF204638BDB06E0D002DE9F84FED
:105C18000B9F9DF828B00646884691469A4604464A
:105C28000025236C4B4529D1636C534526D194F844
:105C380048305B4522D14021404600F0D8FF41461C
:105C48000246204600F0BEFFC0B96FB10C213846AD
:105C580000F0CDFF024638B1582303FB05603946F2
:105C6800493000F0AFFF04E0582000FB056595F8C7
:105C78004900B0FA80F04009BDE8F88F0135052DDC
:105C880004F15804CDD10020BDE8F88F2DE9F04F7C
:105C980085B007469DF838A00F9E0196CDF800A064
:105CA800894602920393FFF7B1FF00283CD10446CE
:105CB800582303FB0475D5F84080B8F1000F2ED1A6
:105CC8004021484600F093FF49468346024628464D
:105CD80000F035FFCBF14002414605EB0B0000F028
:105CE80039FF029B2B64039B6B6485F849802EB1B6
:105CF8000C21304600F07BFF054600E03546582071
:105D0800444338193C442A4631464930254400F07A
:105D180016FF002085F8490084F848A005E0013402
:105D2800052CC6D1024800E0002005B0BDE8F08F80
:105D3800FCFEFFFF07B5002301930093FFF7A6FFC2
:105D480003B05DF804FB2DE9F341044608460D460F
:105D5800904600F02FFF04F5DC760746236CABB1C4
:105D68004021204600F043FF874202460BD32946D4
:105D7800204600F0D5FE30B9009043462A46214619
:105D88005820FEF7EDFE5834B442E7D102B0BDE822
:105D9800F081000030B58DB004461122002101A821
:105DA80000F0D8FE062301AA09498DF814300A200C
:105DB800FEF7D2FD07AD01A906A8FFF76BFD0FCDD1
:105DC80004340FC42B68237000200DB030BD00BF11
:105DD800DC6E0D0030B5044689B000F5E070FFF7C1
:105DE80055FC236883BB4C20FEF751F9054608B1E2
:105DF800FFF780FA2068256008B1FFF7CAFE20681F
:105E080020B300224FF49A61FFF7A3FA08A90025EE
:105E180001F8195D1148FEF707FD20689DF8072075
:105E2800036849F269011B6A984702A8FFF724FD35
:105E380002A8FFF7AFFF002804DB02A92068FFF7DC
:105E4800F2FA04E0054602E0002500E0044DD4F82B
:105E5800C001FEF769FD284609B030BDE96E0D00A6
:105E6800FCFEFFFF2DE9F341044600F5E0700F4604
:105E78009046FFF70BFCD4F8BC61002E39D12849B5
:105E8800042000F0E5FC054640B32549142000F045
:105E9800DFFC28B10674066046608660C6604674FA
:105EA8002860A8B11F4B83602B681F49DC602868F5
:105EB8004FF440638DE8090003221C4B0430FEF7C1
:105EC800F3FC28B92B681B7C43B9FEF7FDFCF9E706
:105ED800286800232B6008B1FFF747FED4F8BC619F
:105EE800C4F8BC512EB13046FFF758FE3046FEF7D5
:105EF800D2F82046FFF76EFF002807DB42463946F6
:105F0800201DFFF717FF00EAE07500E00546D4F80A
:105F1800C001FEF709FD284602B0BDE8F08100BFC8
:105F2800EC6F0D0049600D00ED6E0D00DD5A0D009F
:105F38002DE9F041054600F5E0768AB03046FFF7D6
:105F4800A5FB2C68D5F8C001FEF7EEFC002C63D049
:105F5800D5F8C43163B12368D5F8C4111F6B204646
:105F68004FF47A734FF49A62B847041E13DC56E074
:105F78002D494FF49A6000F069FCD5F8C431C5F892
:105F8800C40113B11846FEF788F8D5F8C431002BC0
:105F9800E1D1264844E02023254A029300920023B9
:105FA800019402AA234903930120FEF7ADFDD5F819
:105FB800C4315F1C1B786BBB013C2146384600F09E
:105FC80016FE38B3241A002C07EB000822DD3B5CD0
:105FD80003BB013C0ED008F101082146404600F001
:105FE80006FE241A002C15DD18F8003093B9012C90
:105FF80002D00FE0DFF844803046FFF747FB424607
:106008003946281DFFF79FFED5F8C001FEF78CFC26
:10601800002005E0084803E06420FEF735FC204630
:106028000AB0BDE8F08100BFEC6F0D00FCFEFFFF79
:10603800FC6E0D00F56E0D00E8FEFFFF426D0D00D1
:1060480008B504462046FFF773FFFBE738B50D4C4B
:106058000D4B23600025022304F5E4706360A560FE
:10606800C4F8C451C4F8C851FEF74EFC074BC4F835
:10607800CC5123602046064A0649BDE8384000F066
:10608800D7BB00BF48E50320C06F0D00B06E0D0000
:1060980070E30320E15B0D0037B502AC036804F838
:1060A800011DDD6B01224FF0FF332146A84703B0E5
:1060B80030BD10B40368DC6B4FF0FF33A4465DF8C5
:1060C800044B604737B502AC036804F8011DDD6B6B
:1060D800214613460122A84703B030BD704738B5A2
:1060E80043691A68002A044605DAB3F88620B3F82B
:1060F80084309A4201D001250BE003681B69984758
:10610800002814BF0125002503D123682046DB6A37
:106118009847284638BD43691868C043C00F704780
:1061280070470020704710B50446FDF7B4FF2046BD
:1061380010BDFDF7B0BF00002DE9F0439846036895
:1061480093B0DB6A0C4606461746984712AB002503
:1061580043F8485D2A4629462046FEF74DFB0028AD
:106168003ADB009B002B39D05B69002B36D006A8A0
:10617800FFF782FB009B5C696378022B01D1211D2C
:1061880013E00A2B14D11122294601A800F0E2FCE1
:10619800A36833BBE36823BB4FF6FF702569FEF79E
:1061A800E3FB85421DD104F1140106A8FFF7A7FB04
:1061B80006A8FFF781FB88B1336807ADD3F82090B4
:1061C800184B0C930FCD0DAC0FC42B6823703A46B7
:1061D80043460CA93046C84704461CE04FF0FF343C
:1061E80019E004F1080301AD1834186859682A4603
:1061F80003C20833A3421546F7D1062301A90CA808
:106208000DAD8DF81430FFF745FB0FCD07AC0FC46B
:106218002B682370CCE70098FEF7E6FA204613B007
:10622800BDE8F0833C6E0D007FB516460022426043
:10623800029203925A1C04460D4608D04FF47A7213
:10624800B3FBF2F1029102FB11314A4303926069F8
:106258000823009341F205026B4440F6FF71006881
:10626800FEF7DAFB002808DB60690023324629467E
:106278000068FEF7F9FB002804DAFEF72BFD036837
:106288006360002004B070BD10B5036804469B68C5
:106298009847A368013BA3602BB923682046DB68B5
:1062A800BDE81040184710BD70B504464D69054B50
:1062B80044F8043B8C3506460FCD0FC42B68237079
:1062C800304670BD3C6E0D0010B54369B3F88620AA
:1062D800B3F884309A42044605D06269B2F8843033
:1062E8001344187910BD03681B6998470028F4D136
:1062F8004FF0FF3010BD10B54369B3F88620B3F8EE
:1063080084309A42044608D06269B2F88430591C35
:106318001344A2F88410187910BD03681B699847C4
:106328000028F1D14FF0FF3010BDF8B5436917468A
:10633800B3F88620B3F884309A4205460E4606D153
:1063480003681B69984710B94FF0FF3414E0696976
:10635800B1F88430B1F88640E41ABC4228BF3C4604
:10636800194422460431304600F0E9FB6A69B2F864
:1063780084302344A2F884302046F8BD42690023C3
:10638800A2F884304269A2F8863070472DE9F041BE
:10639800984603680D468AB0DB6A06461746984752
:1063A8002B7D7469042B0CBF02200A2006220121D0
:1063B800FEF76AFB206073691C68002C5BDB3046C3
:1063C800FFF7DCFFB8F1000F17D0002303A95FFA2D
:1063D80088F00393ADF81030FEF72EFA002849DB59
:1063E80070690623009341F20B0203AB40F6FF717C
:1063F8000068FEF711FB00283CDB1C242246002124
:1064080003A800F0A7FB2B7D8DF80C40042B0CD1C2
:10641800022338468DF80D30FEF7B6FAADF80E00B7
:106428006868FEF7A1FA049013E00A2338468DF84D
:106438000D30FEF7A9FA05ACADF80E002B1D05F1DD
:10644800140718685968224603C20833BB42144629
:10645800F7D173691C2203A91868FEF7EDFA002822
:1064680008DB2C1D0FCC76698C360FC62368337079
:10647800012404E0044633683046DB6A9847204626
:106488000AB0BDE8F08110B54369044618680028D1
:1064980001DBFEF7C9FA63694FF0FF321A606069E1
:1064A800112200218C3000F055FB2046BDE8104039
:1064B800FFF764BF30B54269B2F886308BB0044646
:1064C8001BB1B2F884209A4240D06369186800284A
:1064D8003FDBB3F886507F2D3BD8191DC5F18002EC
:1064E80008232944FEF7B0FA00280CDD6369B3F8E5
:1064F80086200AB9A3F884206269B2F88630184465
:10650800A2F8860025E0FEF7E5FB03680B2B20D0F8
:10651800FEF7E0FB03680B2B1BD02023002502931A
:106528000395FEF7D7FB036801930E4B009302AA6D
:106538002B460D493220FEF7E7FA63691868FEF723
:1065480073FA63694FF0FF321A6002E0FFF716FF33
:10655800BBE76269B2F88630B2F88400181A0BB04B
:1065680030BD00BF746F0D00F56E0D0010B500232F
:1065780004460160A0F88430A0F886308830FFF720
:106588007BF9204610BD00004FF47A7270B50023E5
:106598008260144A43600260436183610446A0201C
:1065A8000E46FDF774FD054610B13146FFF7DEFFD4
:1065B8001420FDF76CFD034628B101224260826079
:1065C800094A02600561A0696561A36128B1436851
:1065D800013B43600BB9FFF757FE2046FFF7CEFE9D
:1065E800204670BD306F0D00146F0D0010B54FF0D0
:1065F800FF310446FFF7C8FF204610BD10B504461A
:106608000068002801DBFEF70FFA204610BD10B520
:1066180004692046FFF7F2FF24B12046BDE8104088
:10662800FDF739BD10BD002211464068FEF7C2BA19
:10663800002211464068FEF7DDBA00221146406884
:10664800FEF7E8BA00224068FEF7DCBA002281F0C3
:1066580001014068FEF7C6BA00231A461946406889
:10666800FEF7B8BA00231A4619464068FEF7AABAD8
:10667800002211464068FEF78DBA002202214068C8
:10668800FEF790BA00231A464068FEF77BBA00006E
:10669800024B04225A60024A1A60704718E7032026
:1066A8008C6F0D0000231A464068FEF76BBA002273
:1066B80002214068FEF776BA002211464068FEF7CC
:1066C80069BA002211464068FEF774BA00231A46D8
:1066D80019464068FEF776BA00231A4619464068FC
:1066E800FEF778BA002281F001014068FEF77ABA15
:1066F80000224068FEF786BA002211464068FEF77D
:1067080089BA002211464068FEF774BA2DE9F043B1
:10671800002495B016460D460746FFF7ADF821460A
:1067280020220CA8009400F015FA40230C9321466F
:106738006B460CAA3046FEF75FF80446002844D1A1
:10674800024601216868FEF735FA02218046224692
:106758006868FEF72FFA009E81462146002E34D045
:10676800002932D17368022B02D00A2B09D02AE003
:10677800B8F1000F27D0716938460431FFF7BFF828
:1067880020E0B9F1000F1ED07469112201A800F0B1
:10679800E1F906238DF8143001AD04F1080318342B
:1067A800186859682A4603C20833A3421546F7D128
:1067B80001A906A807ADFFF76DF80FCD3C1D0FC462
:1067C8002B6823700121F669C8E70098FEF70CF8DA
:1067D800384615B0BDE8F083024B034A1A60002220
:1067E8005A60704720E70320C06F0D0070B50C4C4D
:1067F8000C4E0D4D00212046FEF7BAFA20460B4CF0
:106808003246294600F014F801212046FEF7B0FA76
:10681800324629462046BDE8704000F009B800BF5E
:1068280028E7032070E30320694D0D0038E70320B3
:106838000B460146184600F065B90000024B18687F
:10684800BFF35F8F704700BF4CE7032000F000B82C
:1068580010B5002814BF044601242046FEF712FA9A
:1068680020B9FFF7EBFF08B18047F6E710BD08B580
:10687800FEF728FA184B1A68D1075CBF01221A6084
:10688800164B1A68D2075CBF01221A60144B1A68AB
:10689800D0075CBF01221A60124B1A68D1075CBF8F
:1068A80001221A60104B1A68D2075CBF01221A60D5
:1068B8000E4B1A68D0075CBF01221A600C4B1A688D
:1068C800D1075CBF01221A600A4B1A68D2075CBF65
:1068D80001221A60704700BF6CE7032068E70320B5
:1068E80064E7032060E703205CE7032058E7032000
:1068F80054E7032050E70320244B1A68D0075CBFF5
:1069080001221A60224B1A68D1075CBF01221A6063
:10691800204B1A68D2075CBF01221A601E4B1A6806
:10692800D0075CBF01221A601C4B1A68D1075CBFF4
:1069380001221A601A4B1A68D2075CBF01221A603A
:10694800184B1A68D0075CBF01221A60164B1A68E8
:10695800D1075CBF01221A60144B1A68D2075CBFCA
:1069680001221A60124B1A68D0075CBF01221A6014
:10697800104B1A68D1075CBF01221A600E4B1A68C7
:10698800D2075CBF01221A60704700BF9CE7032052
:1069980098E7032094E7032090E703208CE703207F
:1069A80088E7032084E7032080E703207CE70320AF
:1069B80078E7032074E7032070E70320244B1A6864
:1069C800D0075CBF01221A60224B1A68D1075CBF4E
:1069D80001221A60204B1A68D2075CBF01221A6094
:1069E8001E4B1A68D0075CBF01221A601C4B1A683C
:1069F800D1075CBF01221A601A4B1A68D2075CBF24
:106A080001221A60184B1A68D0075CBF01221A606D
:106A1800164B1A68D1075CBF01221A60144B1A681A
:106A2800D2075CBF01221A60124B1A68D0075CBFFC
:106A380001221A60104B1A68D1075CBF01221A6044
:106A48000E4B1A68D2075CBF01221A60704700BF5C
:106A5800CCE70320C8E70320C4E70320C0E70320EE
:106A6800BCE70320B8E70320B4E70320B0E703201E
:106A7800ACE70320A8E70320A4E70320A0E703204E
:106A8800184B1A68D1075CBF01221A60164B1A68A6
:106A9800D2075CBF01221A60144B1A68D0075CBF8A
:106AA80001221A60124B1A68D1075CBF01221A60D2
:106AB800104B1A68D2075CBF01221A600E4B1A6885
:106AC800D0075CBF01221A600C4B1A68D1075CBF63
:106AD80001221A600A4B1A68D2075CBF01221A60A9
:106AE800704700BFECE70320E8E70320E4E7032052
:106AF800E0E70320DCE70320D8E70320D4E70320FE
:106B0800D0E7032010B5054C13462CB10A460146C0
:106B18000220AFF3008010BD204610BD0000000029
:106B280010B501390244904207D010F8013B11F822
:106B3800014FA342F7D0181B10BD002010BD10B59F
:106B4800431E0A44914204D011F8014B03F8014F47
:106B5800F8E710BD02440346934202D003F8011B34
:106B6800FAE7704738B5124B1C68A36B0546D3B9D2
:106B78001820FEF787F843F20E33A06303804AF625
:106B8800CD33438041F2342383804EF26D63C3805A
:106B98004DF6EC630381052343810B238381012296
:106BA8000023C0E90423A36B00221D615A6138BD8C
:106BB8006CE30320034613F8012B002AFBD1181AB3
:106BC8000138704730B582B1451E013915F8013FCB
:106BD80011F8014FA34206D1EC431444E04201D01E
:106BE800002BF3D11C46181B30BD104630BD10B524
:106BF800034601448B4204D01A785C1C0AB1234630
:106C0800F8E7181A10BD00001D400D0059400D008E
:106C180085400D0089400D000000000043616C6C48
:106C28006261636B0044617461204572726F720027
:106C3800536572766572206E6F7420666F756E6428
:106C48000064617461007075626C697368656400E2
:106C580069703A200073656E736F724461746100E5
:106C680000044D5154540400064D51497364700397
:106C780000000000000000004B4D0D00414D0D00CC
:106C8800374D0D002D4D0D00214D0D00154D0D00FA
:106C9800094D0D00014D0D00F74C0D00ED4C0D0098
:106CA80015670D000000000000000000694D0D0090
:106CB8006B4D0D000000000000000000F9530D00AE
:106CC8001D540D00D94D0D00034F0D00D14D0D0081
:106CD800EF4D0D000D4E0D00274E0D004B4E0D00D3
:106CE800E74E0D00E9510D00894F0D0009510D00C7
:106CF800B94D0D008F530D008D500D00C14F0D0083
:106D0800BD530D002D4F0D00C74D0D00694F0D00EF
:106D1800CD4D0D00294E0D00F0FFFFFF00000000D3
:106D2800434E0D0066006C6E00666E00636F64650E
:106D38000064657461696C000D0A00253031307596
:106D480020005D20002C200028293A2000205B002C
:106D5800636F6465203D200025690064657461697E
:106D68006C73203D2000626175640053657269612F
:106D78006C0053657269616C3100747970650070DC
:106D88006172616D00636D6400696400686E64001F
:106D98007374726D0066696C74006C766C00616463
:106DA8006448616E646C65720072656D6F766548E3
:106DB800616E646C657200656E756D48616E646CB9
:106DC800657273004A534F4E53747265616D4C6F10
:106DD8006748616E646C657200617070006E6F6EFA
:106DE8006500747261636500696E666F0077617231
:106DF8006E006572726F720070616E696300616C1B
:106E08006C005A00252B3033643A25303275002542
:106E1800592D256D2D25645425483A254D3A25537D
:106E2800257A0061736374696D65000000000000D5
:106E3800000000001B580D000D580D000F580D00E4
:106E4800000000000000000035590D0079590D00C0
:106E580053590D001D550D004D590D0037590D00A2
:106E68003F590D0073590D0047590D0031590D0058
:106E78000000000000000000115A0D00355A0D00F6
:106E8800415A0D001D550D001D5A0D00295A0D00BF
:106E9800235A0D002F5A0D00135A0D00175A0D00D2
:106EA8000000000000000000695B0D005F5B0D0042
:106EB800555B0D004B5B0D003F5B0D00335B0D0018
:106EC800275B0D001F5B0D00155B0D000B5B0D00B4
:106ED80015670D00666630333A3A313A3130303151
:106EE80000746831006D6573687075620077697247
:106EF800696E67007061727365207061636B657499
:106F080020256400000000000000000029610D0039
:106F18002F610D0017660D003B610D002B610D0000
:106F2800000000000000000065420D0099420D00BD
:106F3800A1600D00BB600D00BD640D00FF620D0077
:106F4800D1620D00E5600D0095630D0041610D00F3
:106F580033630D008F640D00E7600D001F610D00A5
:106F6800CD600D0031620D00B1620D00726563766F
:106F7800206572726F72203D2025640000000000B9
:106F8800000000008D660D0083660D0079660D0017
:106F98002F660D006D660D0061660D0055660D00CB
:106FA8004D660D0043660D0039660D0015670D002E
:106FB8000000000000000000AD660D00B7660D007F
:106FC800C1660D00CB660D00D5660D00E1660D00AB
:106FD800ED660D00F9660D0001670D000B670D00E9
:106FE80015670D0000000000000000000000000010
:106FF8000000000000000000000000000000000089
:107008000000000000000000000000000000000078
:107018000000000000000000000000000000000068
:107028000000000000000000000000000000000058
:107038000000000000000000000000000000000048
:1070480000000000000000004300000011420D0095
:10705800D9470D00DD470D00ED470D00554D0D00DA
:10706800A14D0D009D560D00E5560D001D570D0054
:1070780055600D0099660D00E1670D00F5670D007C
:107088007D680D0001690D00C5690D00896A0D0054
:087098000000000000000000F0
:1070A000C0A8071F2B6E0D0000000000F06F0D0040
:1070B00010700D0030700D00000000000000000096
:1070C000000000000000000050700D0000000000F3
:1070D00000000000000000000000000000000000B0
:1070E00000000000000000000000000000000000A0
:1070F0000000000000000000000000000000000090
:0C71000000000000000000000CE3032071
:10710C00FFFFFFFF00000102030405060708090A40
:10711C000B0C0D0E0F101112131415161718191A3B
:08712C001B1C1D1E1F20280082
:047134007856341243
:04000003D0004018D1
:00000001FF
