:02000002D0002C
:1040000000400D0054840D00000006000E00050164
:0840100004014E040000000051
:10401800C47A0D0009480A49884208B505D0094AFA
:10402800824202D0121A02F017FC0748074A002100
:10403800121A02F01CFC014808BD00BFBCE10320B5
:1040480070830D0078E2032078E20320F0E7032074
:1040580070B501F04FFB074C074BE41AA408002584
:104068001E46A54204D056F8253098470135F8E792
:1040780070BD00BF6C830D0030830D0000F024B8C4
:1040880008B500F055F8BDE8084001F001BB00F0A4
:104098009DBC00F09BBC00F0A1BC00F09FBC007868
:1040A800B0FA80F04009704701230370704708B5E3
:1040B800002000F07BFC28B100F060FC80F00100DB
:1040C800C0B208BD012008BD1FB501F0FFFB4FF4C9
:1040D800165101F0EFFBB7EE000A01F093F901F079
:1040E800F5FB0446684600F051FC0099204601F0B3
:1040F800FDF8684601F06BF8002000F04FFCFFF770
:10410800D6FF68B1FFF7D3FF074800F0CDF807489E
:1041180000231A461946406800F0D8FB04B010BDC9
:1041280000F024FCEBE700BF8CE2032014E403203A
:1041380070B5274CCAB0204600F0A0F9204610EE12
:10414800105A00F0ADF98DED090A01F04AFA064659
:104158000BA800F01BFC1F4B1F491B680B9C324629
:104168000FA801F0EBF99DED090A252310EE100ABE
:10417800069302F0DBF94323CDE9040128460293B4
:1041880002F0D4F90F9B2246CDE90001134913A888
:1041980000F034FC0FA801F01AF80BA801F017F88A
:1041A80001F094FB13AB0E4A012101F0D8F813AAD1
:1041B8000C490D4801F04EFD01F088FB0B4901F058
:1041C80095F84FF47A7001F01DFA4AB070BD00BF3F
:1041D8008CE20320BCE10320B8E20320E17A0D0061
:1041E800427B0D00457B0D001CE40320507B0D0035
:1041F80010B5094C00F06EF9204600F0C7FB074ADD
:104208000749204601F0E0FE062211210548BDE8D5
:10421800104000F043B800BF7CE2032078E203209E
:10422800D7510D008CE2032000F054B910B5036893
:104238002F2B044604D9074A00210A2000F00AFB64
:1042480023681F2B83BF03F01F03236002484FF02E
:10425800A04010BD9D450D000003005007B502ABFE
:1042680043F8040D1846FFF7E1FF019A0123934034
:10427800C0F8083503B05DF804FB07B502AB43F896
:10428800040D1846FFF7D2FFD0F81035019823FA2D
:1042980000F000F0010003B05DF804FB0272012297
:1042A800817102747047000010B5002104468079BE
:1042B80001F036FE074AA37912681B01D118D05CB9
:1042C8004B7803F01F0343EA4010FFF7C7FF0023B2
:1042D800E36010BDA0E203202DE9F74F044600F08B
:1042E80061F9E368834284BF0023E360237C33B928
:1042F800E368C01AB0F5FA6F01D20120A8E00025E2
:10430800554E257400F04EF9A3793268E0601B0120
:10431800D1182571E570A57065702570D05C4B7853
:1043280003F01F0343EA4010FFF798FFFA2001F05B
:1043380069F90121A07901F0F3FDA37932681B0125
:10434800D118D25C4B7802A803F01F0343EA42134A
:1043580040F8043DFFF76AFF019B4FF0010808FA97
:1043680003F3C0F80C35142001F04CF901F0D4FA2D
:10437800A37932681B01D118D05C4B7803F01F0376
:1043880043EA4010FFF76AFF282000F003F92946A6
:10439800A07901F0C5FD2F464FF0000BA3793268D4
:1043A8001B01D11812F803A04B7803F01F0343EA4E
:1043B8004A1A5046FFF761FF5046FFF75EFF8045F7
:1043C8005FFA8BF908D101200BF1010B00F0E2F83C
:1043D800BBF1FF0FE2D1D946A37932681B01D1188E
:1043E80012F803804B7803F01F0343EA481840464D
:1043F800FFF743FF4046FFF740FFB9F1FF0F5FFAB1
:1044080080F814D0032D0ED9EB070CD4FA08013725
:10441800A35C5B00DBB2A354217A49453CBF43F05F
:104428000103A354FFB20135EDB2552DB4D101F00B
:1044380075FA272F0BD92278637821791344A2784B
:104448001344E2781344DBB299423FF456AF00209C
:1044580003B0BDE8F08F00BFA0E2032010B504460A
:10446800FFF73AFF28B1A37800EE103AB8EE400AF9
:1044780010BD9FED010A10BD0000C07FFFF7EEBF21
:1044880010B50446FFF728FF28B1237800EE103A4C
:10449800B8EE400A10BD9FED010A10BD0000C07FB4
:1044A800FFF7EEBF08B500F015F8014B186008BD1E
:1044B800A0E2032008B5024B1B689B68019308BD66
:1044C8006802030008B5024B1B68DB68019308BD4E
:1044D8006802030008B5024B1B681B68019308BDFE
:1044E8002C02030008B5024B1B689B68019308BDAA
:1044F8002C02030008B5024B1B681B6A019308BD18
:104508002C02030008B5024B1B685B6A019308BDC7
:104518002C02030008B5024B1B68DB69019308BD38
:104528003002030008B5024B1B681B6A019308BDE3
:104538003002030008B5024B1B681B69019308BDD4
:104548006C02030008B5024B1B685B69019308BD48
:104558006C02030008B5024B1B689B69019308BDF8
:104568006C02030008B5024B1B685B6D019308BD24
:104578006C02030008B5024B1B689B6D019308BDD4
:104588006C02030008B5024B1B685B68019308BD09
:104598001802030008B5024B1B68DB68019308BDCD
:1045A8001802030008B5024B1B685B69019308BD3C
:1045B8001802030008B5024B1B68DB69019308BDAC
:1045C8001802030008B5024B1B689B6D019308BDD8
:1045D8001802030008B5024B1B689B68019308BDCD
:1045E8004802030008B5024B1B681B69019308BD0C
:1045F8004802030008B5024B1B685B69019308BDBC
:104608004802030008B5024B1B681B6B019308BDE9
:104618004802030008B5024B1B685B6C019308BD98
:104628004802030008B5024B1B68DB6C019308BD08
:104638004802030008B5024B1B685B6D019308BD77
:104648004802030008B5024B1B685B69019308BD6B
:104658006402030008B5024B1B689B69019308BDFF
:104668006402030008B5024B1B681B6A019308BD6E
:104678006402030008B5024B1B685B6A019308BD1E
:104688006402030008B5024B1B689B6A019308BDCE
:104698006402030008B5024B1B681B68019308BD40
:1046A8003C02030008B5024B1B68DB68019308BD98
:1046B8003C02030008B5024B1B681B69019308BD47
:1046C8003C02030008B5024B1B685B69019308BDF7
:1046D8003C02030008B5024B1B689B69019308BDA7
:1046E8003C02030008B5024B1B68DB69019308BD57
:1046F8003C02030008B5024B1B681B6A019308BD06
:104708003C02030008B5024B1B689B6A019308BD75
:104718003C02030008B5024B1B681B6A019308BDE5
:104728002802030008B5024B1B685B6A019308BDA9
:104738002802030008B5024B1B689B6A019308BD59
:104748002802030008B5024B1B68DB6A019308BD09
:104758002802030008B5024B1B681B6B019308BDB8
:104768002802030008B5024B1B685B6B019308BD68
:104778002802030008B5024B1B681B6C019308BD97
:104788002802030008B5024B1B685B68019308BD4B
:104798003802030008B5024B1B689B69019308BDEA
:1047A8003802030008B5024B1B68DB69019308BD9A
:1047B8003802030008B5024B1B68DB6A019308BD89
:1047C8003802030008B5024B1B685B6B019308BDF8
:1047D8003802030008B5024B1B689B6B019308BDA8
:1047E8003802030008B5024B1B681B68019308BD1B
:1047F8004C02030008B5024B1B685B68019308BDB7
:104808004C02030008B5024B1B681B69019308BDE5
:104818004C02030008B5024B1B685B69019308BD95
:104828004C02030008B5024B1B689B69019308BD45
:104838004C02030008B5024B1B68DB69019308BDF5
:104848004C02030008B5024B1B681B6A019308BDA4
:104858004C02030008B5024B1B685B6B019308BD53
:104868006002030008B5024B1B681B68019308BD72
:104878002002030008B5024B1B685B68019308BD62
:104888002002030008B5024B1B685B69019308BD51
:104898002002030008B5024B1B689B6D019308BDFD
:1048A8002002030008B5034B1B68D3F88830019336
:1048B80008BD00002002030008B5034B1B68D3F8AD
:1048C8009430019308BD00002002030008B5024B94
:1048D8001B685B68019308BD4002030008B5024BE2
:1048E8001B689B68019308BD4002030008B5024B92
:1048F8001B68DB68019308BD4002030008B5024B42
:104908001B681B69019308BD4002030008B5024BF0
:104918001B685B69019308BD4002030008B5024BA0
:104928001B689B69019308BD4002030008B5024B50
:104938001B68DB69019308BD4002030008B5024B00
:104948001B681B6A019308BD4002030008B5024BAF
:104958001B681B6B019308BD4002030008B5024B9E
:104968001B685B6B019308BD4002030008B5024B4E
:104978001B689B68019308BD4402030008B5024BFD
:104988001B685B69019308BD4402030008B5024B2C
:104998001B68DB69019308BD4402030008B5024B9C
:1049A8001B68DB6A019308BD4402030008B5024B8B
:1049B8001B681B6B019308BD4402030008B5024B3A
:1049C8001B68DB6B019308BD4402030008B5024B6A
:1049D8001B681B68019308BD1C02030008B5024B45
:1049E8001B685B68019308BD1C02030008B5024BF5
:1049F8001B689B68019308BD1C02030008B5024BA5
:104A08001B68DB68019308BD1C02030008B5024B54
:104A18001B681B69019308BD1C02030008B5024B03
:104A28001B689B69019308BD1C02030008B5024B73
:104A38001B68DB69019308BD1C02030008B5024B23
:104A48001B681B6A019308BD1C02030008B5024BD2
:104A58001B685B6A019308BD1C02030008B5024B82
:104A68001B681B6B019308BD1C0203000022114642
:104A78004068FFF763BF002211464068FFF76EBF2A
:104A880000224068FFF762BF002281F00101406800
:104A9800FFF74CBF00231A4619464068FFF73EBF90
:104AA80000231A4619464068FFF730BF0022114616
:104AB8004068FFF723BF002211464068FFF70EBF8A
:104AC800002202214068FFF711BF00231A46406800
:104AD800FFF7FCBE024B03225A60024A1A60704775
:104AE800A4E20320647B0D00704710B50446FFF76D
:104AF800D2FA204610BD000070B5084B036004468A
:104B080000250E4640F80C5FFFF77CFD3046267105
:104B1800FFF700FDA560204670BD00BF987B0D0023
:104B28000079FFF7FFBC0000044B00204FF6FF722E
:104B3800187058809A80FFF79DBE00BFACE2032032
:104B480010B40468246BA4465DF8044B60470368FE
:104B58009B6C1847808E7047028FC08E101A704762
:104B680013B502AB026803F8011DD4681946012287
:104B7800A04702B010BD10B503681B6904469847EA
:104B880028B1E38EE26B591CE186D05C10BD4FF072
:104B9800FF3010BD10B503681B690446984718B16B
:104BA800E38EE26BD05C10BD4FF0FF3010BD704754
:104BB80010B403460846DC6BD98E1A8F0368521A64
:104BC800DB6821445DF8044B1847A0F11000FFF79B
:104BD800EFBFF0B503688DB01C265B6A04460F462C
:104BE8001546984701233246002105A8029301F093
:104BF8003EFE8DF8146038460A268DF81560FFF7DA
:104C080041FD1122ADF8160002213046FFF7E2FD02
:104C18000028606124DB0422009202AB40F6FF7199
:104C2800FFF7B8FDE0B995B10390ADF8100003A9FE
:104C3800E8B2FFF787FC98B90623009341F20B020C
:104C480003AB40F6FF716069FFF7A4FD40B91C2271
:104C580005A96069FFF796FD10B96564012004E0B5
:104C6800236820465B6A984700200DB0F0BD10B558
:104C780004464069002801DBFFF794FD4FF0FF333D
:104C880063610023E386238710BD38B5C36B0546EF
:104C9800C08E13B12C6C241A00E01C46944228BF25
:104CA80014462246184401F0D7FDEB8E2344EB86C8
:104CB800204638BD70B503681B6904460E46154684
:104CC800984788B1236820461B699847E38EE16BB3
:104CD8008542A8BF054619442A46304601F0BCFD66
:104CE800E38E2B44E38601E04FF0FF35284670BD84
:104CF80070B50446054B44F8043B01F1200506460F
:104D08000FCD0FC42B682370304670BD207D0D0079
:104D1800F0B59446026889B0976A0A4A02921D1D46
:104D28008E4606460FCD03AC0FC42B682370BDF822
:104D380038300093624602AB71463046B84709B036
:104D4800F0BD00BF207D0D00F0B50368B0F836E077
:104D58009F6A0D4B89B000F12006044602930FCEDE
:104D680003AD0FC533682B70A38E0093724602AB58
:104D7800E16B2046B84723680546DB69204698471B
:104D8800284609B0F0BD00BF207D0D00F0B543787E
:104D9800022B8DB005460C46174601D1011D33E0A4
:104DA8000A2B35D11122002101A801F060FDAB6862
:104DB80043B9EB6833B94FF6FF702E69FFF752FC21
:104DC80086421FD005F1080301AE05F1180E1868D8
:104DD8005968324603C2083373451646F7D106238D
:104DE80001A906A807AE8DF8143000F0E5FC0FCE37
:104DF80004340FC43368237057B16888FFF73AFC4E
:104E0800388005E005F11401204600F00AFDF3E7BB
:104E18000DB0F0BD2DE9F0418EB00EAB0025064671
:104E28001746084643F8345D2A462946FFF74AFBE9
:104E380000281FDB019BFBB15B69EBB102A800F006
:104E4800ADFC019B2A46586902A9FFF79FFF02A8FB
:104E580000F0C4FC80B1336803ADD3F838800B4B45
:104E680008930FCD09AC0FC42B6823703A4608A9E4
:104E78003046C047044601E04FF0FF340198FFF781
:104E880019FB20460EB0BDE8F08100BF207D0D0063
:104E98002DE9F047D0F81480B8F1000F8CB0054622
:104EA8000C461746994600DB11B94FF0FF3035E044
:104EB8004FF01C0A05AE52460021304601F0D7FCDF
:104EC800CDF808A0B9F1000F14D04FF47A72B9FBED
:104ED800F2F1039102FB11914A43082304920093D3
:104EE80041F2060203AB40F6FF714046FFF752FC61
:104EF80008B113E0082002AB01932146034600964F
:104F08003A466869FFF756FC041E06DB05F13402D1
:104F180005F11C013046FFF739FF20460CB0BDE80B
:104F2800F08738B5054614462B7D062B084611D167
:104F38001C2313700A235370FFF7A4FB083424F8CA
:104F4800060C2B1D143553F8042B44F8042BAB42E4
:104F5800F9D138BD042B0AD11023137002235370E2
:104F6800FFF790FB60806868FFF77CFB606038BDE6
:104F78002DE9F0438BB003AC1C25994606460F4635
:104F8800904600212A46204601F071FC2246BDF8D1
:104F980048104846FFF7C5FF9DF80D3043B18DE82E
:104FA80030000023424639467069FFF70BFC01E0E8
:104FB8004FF0FF300BB0BDE8F083F0B591B00C4670
:104FC80006460021154609A81C221F4601F04FFC81
:104FD80009AA00212046FFF7A4FF9DF82530022BDF
:104FE8002ED1002305930A9B0493DDB102A928461C
:104FF800FFF7B0FAB0B910A941F8340D0298FFF7DD
:10500800B1FA60B9039B53B1DA6812685178022982
:1050180003D152680AB1059201E01B68F3E70398CF
:10502800FFF7A8FA002F4FF00803009318BF0322D8
:1050380004AB08BF042200213046FFF7ABFB1EE09B
:105048000A2B1AD104AC14220021204601F00FFCCF
:105058000BAB0FCB002F84E80F004FF01403009325
:1050680018BF0C22234608BF0D2229213046089577
:10507800FFF790FB00EAE07001E04FF0FF3011B05D
:10508800F0BD000038B54FF47A7383600B4B03F121
:1050980008026C33002503614FF0FF330446456076
:1050A800026043611C3000F079FB4FF40073E58621
:1050B8002587E56323646564204638BDA07B0D0021
:1050C80010B590F8483004461BB1C06B08B1FEF724
:1050D800E2FF0023E36384F848302364E3862387F0
:1050E80010BD70B5044616460D46FFF7E9FF0023CC
:1050F800E66323643EB935B12846FEF7CAFF0123AB
:10510800E06384F84830E36B03B12564206C003019
:1051180018BF012070BDF8B51746C26B05460C468E
:105128001AB9016C09B1FFF7DCFF04340FCC05F1A3
:1051380020060FC6236833700023AF86EB862B87C3
:10514800286CF8BD70B5C26B04460E461AB9016CDE
:1051580009B1FFF7C6FFE16B0022E286228749B159
:10516800226C3AB1236820461D6B3346A8470028B5
:10517800C8BF2087236820461B69BDE870401847D0
:1051880010B5074B03F108026C3304460260036153
:10519800FFF76DFD2046FFF793FF204610BD00BFC7
:1051A800A07B0D0010B50446FFF7EAFF2046FEF786
:1051B80072FF204610BD02464069002804DB012327
:1051C80092F84420FFF7F9BE4FF0FF30704710B552
:1051D80004460068FFF702FC204610BD10B50446DF
:1051E800006808B1FFF7FAFB00232360A36063603F
:1051F80010BD38B504460D4600680131FFF7F6FBCF
:1052080010B184E82100012038BD10B503680446B8
:1052180013B143688B4207D22046FFF7EAFF20B15B
:10522800A3680BB922681370012010BD70B50E4633
:10523800114604461546FFF7E8FF18B92046FFF760
:10524800CDFF09E02A463146A560206801F004FB3D
:105258002268A3680021D154204670BD38B50023C8
:10526800044603604360836003730D4639B1084602
:1052780002F054F8294602462046FFF7D7FF204699
:1052880038BDF8B506460D468F180024BD420CD02F
:10529800336815F8011B9B6830469847002801DBE6
:1052A8000444F3E7002C08BF04462046F8BD70B557
:1052B80005460C46084649B102F030F82B6802460C
:1052C80021462846DB68BDE87040184770BD036872
:1052D8009B68184738B50D210546FFF7F8FF0A21E6
:1052E80004462846FFF7F3FF204438BD38B5054685
:1052F800FFF7DDFF04462846FFF7ECFF204438BDE2
:1053080030B58BB00B4600218DF82410012A98BFC8
:105318000A220DF12304B3FBF2F505FB123303F067
:10532800FF03092B94BF30333733DBB2214604F82F
:1053380001392B46002DEED1FFF7B9FF0BB030BD78
:1053480010B42AB903685DF8044B9B68C9B21847C2
:10535800D2B25DF8044BFFF7D3BFFFF7F1BF0CB42F
:105368002DE9F04387B000AF07F13804054654F83B
:10537800049B3C600E4623464A461421381DFFF71D
:1053880065FB132805D8391D2846FFF790FF04460A
:1053980013E000F1080323F00703E846ADEB030D23
:1053A800411C23464A4668463C60FFF74FFB694666
:1053B8002846FFF77CFF0446C5461EB12846FFF77E
:1053C80089FF044420461C37BD46BDE8F04302B0BF
:1053D80070470068FFF726B9014B024A1A60704708
:1053E800B4E20320C57C0D0008B50020FFF7DEFA03
:1053F80028B1FFF7C3FA80F00100C0B208BD012050
:1054080008BD0000FAEE087AB4EEE70AF1EE10FAE9
:105418000FD4F2EE0C7AB4EEE70AF1EE10FA08DCDB
:10542800DFED047A044B20EE270ABDEEC00A83EDB7
:10543800000A704700006145C4E2032037B50E4BEF
:105448001B6819440D4B1B68044602A8194440F810
:10545800041D01F009F901F0BDF8054601F05EFFF1
:105468002844002300F8013C29462046FFF7F6FEB1
:10547800204603B030BD00BFC4E20320C0E20320D1
:105488002DE9F047A4B014AC0746894620461146DA
:105498001D4601F027FA204601F040FF804625B955
:1054A800244903A801F01EFA13E03C2195FBF1F210
:1054B800002AB8BF524292FBF1F301FB132200927B
:1054C8004FF461631C4A95FBF3F3102103A8FFF71F
:1054D800ADFA25462E1B08F1FF3AB2451BD92B78A9
:1054E800252B16D16B787A2B13D103A801F016FF60
:1054F80080463044C6EB0A02A91C204401F0ACF9EE
:10550800424603A9284601F0A7F9204601F006FF04
:1055180080460135DEE74B462246322107A801F0D6
:1055280049FA07A93846FFF799FE384624B0BDE87E
:10553800F08700BFF5820D00EE7C0D00F7B505463B
:1055480001921C4613B9124B1C682CB1114B204612
:10555800196801F0BDF920B901992846FFF76EFFD7
:1055680013E00D4F019A3B680C4E1A44336802A8A9
:10557800134440F8043D01F077F83A68336801466F
:10558800134428462246FFF77BFF284603B0F0BDA8
:10559800BCE20320C0E10320C4E20320C0E20320F0
:1055A80010B50020FFF70EF8044668B9FFF75AF95E
:1055B80001280BD12046FFF76DF938B9FFF714FF22
:1055C80030B9FFF7D3F9F9E7012010BD002010BD6D
:1055D800FFF70AFF0020FEF7F5FF003018BF012093
:1055E80010BD08B5FFF7DCFFBDE80840FEF7E2BFD5
:1055F800024B1A68024B1A60704700BFC0E10320D3
:10560800BCE203200021FFF73DB910B583680446CA
:1056180013B1032201469847204610BD10B5044631
:10562800FFF7F3FF204610BD0348044A044900234E
:10563800836000F0C9BC00BFC8E2032078E2032001
:1056480025560D0008B50F4B33B100F03FF903683C
:105658001B69984700280DDC0B4B33B100F0A4F907
:1056680003681B699847002807DC084B43B1AFF370
:10567800008008BDAFF30080EEE7AFF30080F4E7E9
:1056880008BD00BF0000000000000000000000008E
:1056980008B5FFF7D7FFFEF785FF014B186008BD77
:1056A8000CE6032007B5002300931A466FF0770134
:1056B800FFF702F903B05DF804FB000007B5438863
:1056C8000A2B08D0502B09D1094B1B683BB103B0FA
:1056D8005DF804EB1847FFF7E5FF06E000230093A9
:1056E8001A466FF07701FFF7E7F803B05DF804FB9F
:1056F800D8E2032010B5FEF745FF044601F0C0F8D4
:10570800074B13B12046AFF3008000210448FFF790
:1057180055F900210348BDE81040FFF7C3B800BFA2
:1057280000000000C5560D00704710B50446FEF78E
:10573800B2FC204610BDF0B5037D062B8DB00E4699
:1057480000F104074FF0000402D000F1080518E04A
:105758000CAD394605F8304D2F232A460A20FEF7AE
:1057680071FF284601F0DAFD33680246DB682946F6
:10577800304698470FE024B12E213046FFF7A7FDA9
:10578800044415F8011D0A223046FFF7E6FDBD4224
:105798000444F0D120460DB0F0BD000010B5054B13
:1057A8000446112240F8043B002101F060F820462D
:1057B80010BD00BF207D0D000346074A10B543F811
:1057C800042B01F1100251F8044B43F8044B9142A9
:1057D800F9D10A781A7010BD207D0D00037D042BC5
:1057E80001D1406808E0062B0AD1436853B18368A9
:1057F80043B1C36833B10069003018BF0120704756
:10580800002070471846704710B59DF8084044EAD4
:10581800032343EA024242EA01610423416003751B
:1058280010BD37B50D788B784A78C978009129462C
:10583800FFF7EAFF03B030BD41747047704700219D
:10584800007CFEF7EFBF0121007CFEF7EBBF007C78
:10585800FEF7E0BF007CFEF7D5BF38B50446007CF4
:105868000D46FEF7D7FF002801DC607C20B12946F1
:10587800207CFEF7DFFF012038BD007CFEF7E2BF89
:1058880010B50446FEF707FC204610BD10B50446C7
:10589800002363604FF47A73A360054B23600123F0
:1058A8000846217463741146FEF79CFF204610BD1C
:1058B800347D0D000022007CFEF79CBF10B5142239
:1058C8000446002100F0D3FF204610BD30B50E4D30
:1058D80087B001A8FFF7F2FF296811F0010410D181
:1058E8002846FEF7DCFB60B101AA21460748FFF70E
:1058F800CDFF2846FEF7D8FB054A0649034800F0C5
:1059080063FB024807B030BDDCE20320E0E203207D
:1059180078E2032045580D00FEF7F4BDFEF7EABD16
:10592800704741747047007CFEF7ECBE007CFEF7C0
:10593800C1BE007CFEF7CEBE007CFEF7C3BE007C75
:10594800FEF7D0BE10B50446FEF7A5FB204610BDF5
:1059580070B5457C04460E4625B9007CFEF7D2FE9C
:10596800002805DD3146207CBDE87040FEF79ABE70
:10597800284670BD10B504460846114600226260EC
:105988004FF47A72A260054A226001222074627480
:105998001A46FEF77FFE204610BD00BF647D0D004D
:1059A800007CFEF7A7BE000038B50C4D296811F041
:1059B800010411D12846FEF772FB68B1084A094B69
:1059C80009482146FFF7D6FF2846FEF76DFB074A30
:1059D8000749054800F0F8FA034838BD8CE303206E
:1059E80090E3032008E30320F4E2032078E2032095
:1059F80029590D007047F8B5064615460C468F180C
:105A0800BC4206D0336814F8011B9B68304698479F
:105A1800F6E72846F8BD0022007CFEF77BBE002191
:105A2800007CFEF77FBE0021007CFEF783BE0021CC
:105A3800007CFEF787BE0021007CFEF78BBE10B508
:105A48000446FEF728FB204610BD000010B50446AA
:105A58004FF47A730846A3600021044B20746160F8
:105A68002360FEF787FE204610BD00BF947D0D0021
:105A78000021007CFEF776BE002211464068FEF742
:105A88005DBF002211464068FEF768BF00224068EB
:105A9800FEF75CBF002281F001014068FEF746BFB7
:105AA80000231A4619464068FEF738BF00231A46F5
:105AB80019464068FEF72ABF002211464068FEF7E3
:105AC8001DBF002211464068FEF708BF00220221D0
:105AD8004068FEF70BBF00231A464068FEF7F6BE83
:105AE80038B5054678B1046844B1A3681BB10322F0
:105AF8002146204698472046FEF7CDFA2846BDE8BD
:105B08003840FEF7C8BA38BD10B103685B6818475B
:105B1800704710B503680446BBB15868FEF75AFDD4
:105B280078B923685A7C12B95868FEF75BFD236878
:105B38005868FEF75FFD20680023236028B1FFF74F
:105B4800CFFF206808B1FFF7CBFF204610BD00004B
:105B580038B50B4B03600446D0F8CC0108B1FEF70A
:105B68009CFAD4F8C4512DB12846FFF7D2FF284635
:105B7800FEF791FAA06808B1FFF7C6FF204638BDC6
:105B8800BC7D0D0030B58DB004461122002101A85E
:105B980000F06DFE062301AA09498DF814300A2089
:105BA800FEF758FD07AD01A906A8FFF705FE0FCDC2
:105BB80004340FC42B68237000200DB030BD00BF23
:105BC800E87D0D0030B5044689B000F5E070FFF7B8
:105BD80000FC236883BB4C20FEF759FA054608B140
:105BE800FFF750FA2068256008B1FFF78DFF20689D
:105BF80020B300224FF49A61FFF773FA08A9002531
:105C080001F8195D1148FEF795FC20689DF80720FA
:105C1800036849F269011B6A984702A8FFF7BEFDAD
:105C280002A8FFF7AFFF002804DB02A92068FFF7EE
:105C3800C2FA04E0054602E0002500E0044DD4F86D
:105C4800C001FEF7F7FC284609B030BDF57D0D0010
:105C5800FCFEFFFF2DE9F04705468CB016460F46BF
:105C680009B10B780BB9354C64E0084601F056FBD6
:105C78008046002E5CD0304601F050FB441C08F1F1
:105C880002032344B3F59A6F4FD805F5E070FFF788
:105C9800A0FB2846FFF796FF002840DB6846FFF781
:105CA8007DFD6846FFF76EFF002838DBD5F800A0B9
:105CB800DAF800300DF1040CD3F83890204B069335
:105CC800BCE80F000DF11C0EAEE80F00DCF8003048
:105CD8008EF8003049F2690206A95046C8470028E4
:105CE8001DDB002328688DF8183003680122DB6863
:105CF80006A998472868036808F10102DB68394655
:105D080098472CB1286803682246DB6831469847D3
:105D1800286803681B6C984700EAE07400E00446B2
:105D2800D5F8C001FEF786FC04E06FF0BD0401E081
:105D38003446A4E720460CB0BDE8F087F2FEFFFF2A
:105D4800207D0D0038B50D4C0D4B23600025022336
:105D580004F5E4706360A560C4F8C451C4F8C85180
:105D6800FEF758FC074BC4F8CC5123602046064A7E
:105D78000649BDE8384000F027B900BF14E4032005
:105D8800207E0D00BC7D0D0078E20320595B0D00DC
:105D980000231A464068FEF799BD00220221406898
:105DA800FEF7A4BD002211464068FEF797BD002209
:105DB80011464068FEF7A2BD00231A4619464068FE
:105DC800FEF7A4BD00231A4619464068FEF7A6BD93
:105DD800002281F001014068FEF7A8BD002240685A
:105DE800FEF7B4BD002211464068FEF7B7BD002299
:105DF80011464068FEF7A2BD2DE9F043002495B096
:105E080016460D460746FFF7C9FC214620220CA876
:105E1800009400F02CFD40230C9321466B460CAAFD
:105E28003046FEF74FFB0446002844D102460121C4
:105E38006868FEF763FD0221804622466868FEF71F
:105E48005DFD009E81462146002E34D0002932D1C6
:105E58007368022B02D00A2B09D02AE0B8F1000F90
:105E680027D0716938460431FFF7DBFC20E0B9F12F
:105E7800000F1ED07469112201A800F0F8FC062357
:105E88008DF8143001AD04F1080318341868596806
:105E98002A4603C20833A3421546F7D101A906A82A
:105EA80007ADFFF789FC0FCD3C1D0FC42B6823708D
:105EB8000121F669C8E70098FEF7FCFA384615B0E4
:105EC800BDE8F083024B034A1A6000225A6070470B
:105ED800E4E50320207E0D0010B504460F48FEF7C8
:105EE8001FFE28B1A4F10B03022B01D8002010BD1E
:105EF80000F04AF8FFF7BCFD08B1012CF6D9FFF70E
:105F080053FDFFF74DFD18B1A4F10903012BEDD99D
:105F18001E2C8CBF0020012010BD00BFECE5032023
:105F28001E2838B504460D460AD8FF2908D0FFF7C1
:105F3800D3FF28B129462046BDE83840FEF7D2BA3B
:105F480038BD000070B50C4C0C4E0D4D002120469C
:105F5800FEF7D2FD20460B4C3246294600F034F8B5
:105F680001212046FEF7C8FD324629462046BDE8F5
:105F7800704000F029B800BFECE5032078E2032068
:105F8800F14A0D00FCE5032038B50B4D296811F0E6
:105F980001040FD12846FEF782F858B12146074878
:105FA800FFF754FD2846FEF77FF8054A05490348E0
:105FB80000F00AF8014838BD10E6032014E6032073
:105FC80078E20320FD590D000B460146184600F003
:105FD8003DBB0000184B1A68D1075CBF01221A604C
:105FE800164B1A68D2075CBF01221A60144B1A6854
:105FF800D0075CBF01221A60124B1A68D1075CBF38
:1060080001221A60104B1A68D2075CBF01221A607D
:106018000E4B1A68D0075CBF01221A600C4B1A6835
:10602800D1075CBF01221A600A4B1A68D2075CBF0D
:1060380001221A60704700BF44E6032040E60320AF
:106048003CE6032038E6032034E6032030E603204C
:106058002CE6032028E60320244B1A68D0075CBFEF
:1060680001221A60224B1A68D1075CBF01221A600C
:10607800204B1A68D2075CBF01221A601E4B1A68AF
:10608800D0075CBF01221A601C4B1A68D1075CBF9D
:1060980001221A601A4B1A68D2075CBF01221A60E3
:1060A800184B1A68D0075CBF01221A60164B1A6891
:1060B800D1075CBF01221A60144B1A68D2075CBF73
:1060C80001221A60124B1A68D0075CBF01221A60BD
:1060D800104B1A68D1075CBF01221A600E4B1A6870
:1060E800D2075CBF01221A60704700BF74E6032024
:1060F80070E603206CE6032068E6032064E60320CC
:1061080060E603205CE6032058E6032054E60320FB
:1061180050E603204CE6032048E60320244B1A6887
:10612800D0075CBF01221A60224B1A68D1075CBFF6
:1061380001221A60204B1A68D2075CBF01221A603C
:106148001E4B1A68D0075CBF01221A601C4B1A68E4
:10615800D1075CBF01221A601A4B1A68D2075CBFCC
:1061680001221A60184B1A68D0075CBF01221A6016
:10617800164B1A68D1075CBF01221A60144B1A68C3
:10618800D2075CBF01221A60124B1A68D0075CBFA5
:1061980001221A60104B1A68D1075CBF01221A60ED
:1061A8000E4B1A68D2075CBF01221A60704700BF05
:1061B800A4E60320A0E603209CE6032098E603203B
:1061C80094E6032090E603208CE6032088E603206B
:1061D80084E6032080E603207CE6032078E603209B
:1061E800184B1A68D1075CBF01221A60164B1A684F
:1061F800D2075CBF01221A60144B1A68D0075CBF33
:1062080001221A60124B1A68D1075CBF01221A607A
:10621800104B1A68D2075CBF01221A600E4B1A682D
:10622800D0075CBF01221A600C4B1A68D1075CBF0B
:1062380001221A600A4B1A68D2075CBF01221A6051
:10624800704700BFC4E60320C0E60320BCE6032075
:10625800B8E60320B4E60320B0E60320ACE603204A
:10626800A8E6032081F0004102E000BF83F000436C
:1062780030B54FEA41044FEA430594EA050F08BFD9
:1062880090EA020F1FBF54EA000C55EA020C7FEA9D
:10629800645C7FEA655C00F0E2804FEA5454D4EB1A
:1062A8005555B8BF6D420CDD2C4480EA020281EAE4
:1062B800030382EA000083EA010180EA020281EA1C
:1062C8000303362D88BF30BD11F0004F4FEA01316E
:1062D8004FF4801C4CEA113102D0404261EB41017D
:1062E80013F0004F4FEA03334CEA133302D0524203
:1062F80063EB430394EA050F00F0A780A4F10104BF
:10630800D5F1200E0DDB02FA0EFC22FA05F28018F8
:1063180041F1000103FA0EF2801843FA05F35941DE
:106328000EE0A5F120050EF1200E012A03FA0EFC5D
:1063380028BF4CF0020C43FA05F3C01851EBE37187
:1063480001F0004507D54FF0000EDCF1000C7EEBA4
:1063580000006EEB0101B1F5801F1BD3B1F5001FE2
:106368000CD349085FEA30004FEA3C0C04F1010401
:106378004FEA445212F5800F80F09A80BCF1004F2A
:1063880008BF5FEA500C50F1000041EB045141EAAC
:10639800050130BD5FEA4C0C404141EB010111F4AD
:1063A800801FA4F10104E9D191F0000F04BF014658
:1063B8000020B1FA81F308BF2033A3F10B03B3F136
:1063C80020020CDA0C3208DD02F1140CC2F10C02C6
:1063D80001FA0CF021FA02F10CE002F11402D8BF24
:1063E800C2F1200C01FA02F120FA0CFCDCBF41EAF0
:1063F8000C019040E41AA2BF01EB0451294330BDBF
:106408006FEA04041F3C1CDA0C340EDC04F114049B
:10641800C4F1200220FA04F001FA02F340EA030072
:1064280021FA04F345EA030130BDC4F10C04C4F1B8
:10643800200220FA02F001FA04F340EA0300294698
:1064480030BD21FA04F0294630BD94F0000F83F4E2
:10645800801306BF81F480110134013D4EE77FEAC5
:10646800645C18BF7FEA655C29D094EA050F08BF11
:1064780090EA020F05D054EA000C04BF19461046F2
:1064880030BD91EA030F1EBF0021002030BD5FEA36
:10649800545C05D14000494128BF41F0004130BD5E
:1064A80014F580043CBF01F5801130BD01F00045B2
:1064B80045F0FE4141F470014FF0000030BD7FEA25
:1064C800645C1ABF194610467FEA655C1CBF0B4620
:1064D800024650EA013406BF52EA033591EA030F37
:1064E80041F4002130BD00BF90F0000F04BF00212F
:1064F800704730B54FF4806404F132044FF0000562
:106508004FF0000150E700BF90F0000F04BF0021DA
:10651800704730B54FF4806404F1320410F0004540
:1065280048BF40424FF000013EE700BF42004FEA3B
:10653800E2014FEA31014FEA02701FBF12F07F43B8
:1065480093F07F4F81F06051704792F0000F14BFB5
:1065580093F07F4F704730B54FF4607401F00045F9
:1065680021F0004120E700BF50EA010208BF704750
:1065780030B54FF000050AE050EA010208BF704745
:1065880030B511F0004502D5404261EB41014FF4AE
:10659800806404F132045FEA915C3FF4DCAE4FF0B2
:1065A80003025FEADC0C18BF03325FEADC0C18BF99
:1065B800033202EBDC02C2F1200300FA03FC20FAEA
:1065C80002F001FA03FE40EA0E0021FA02F1144437
:1065D800C1E600BF094B70B51C68256C06463DB97D
:1065E8001A20FEF7F3F91A222064294600F03FF931
:1065F800216C3046BDE8704000F002B828E2032064
:1066080010B50C4641690369826986B001F26C7164
:106618000491016803914168029181680191C16800
:106628000091074903EB43030B44064902EB42027E
:106638000A4420460449FEF7E9F9204606B010BD91
:10664800617E0D004C7E0D00857E0D0010B5054C59
:1066580013462CB10A4601460220AFF3008010BD54
:10666800204610BD0000000038B5074B1C68E36BDE
:1066780005461BB92420FEF7A9F9E063E16B28461B
:10668800BDE8384000F002B828E203202DE9F041C7
:106698000C46804601F070F921460746404601F055
:1066A8006FF9466906F26C76B307044605D1642291
:1066B80096FBF2F302FB13634BB94FF4C87596FBD4
:1066C800F5F305FB1365B5FA85F35B0900E00123D3
:1066D8005F4A302505FB032500F07EFF00F07EFFB2
:1066E8005C4B1B68F3B17B689E4205D13968D8F8CA
:1066F8000030FA6941B90AE0304600F0C5FE0028CA
:10670800F4D14FF0FF330DE0934208DB01E09342F0
:1067180007DABA6B9342ACBF0023012302E00023DF
:1067280000E001232362236A012B0CBFF96B396A4D
:106738004FF461633C2091FBF3F603FB1613616889
:1067480093FBF0F200FB12302368891AA26861609B
:106758001B1A921B3B2B2360A26003DD0131616091
:106768003C3B04E0002B03DA013961603C332360D1
:1067780063683B2B03DD0132A2603C3B04E0002B45
:1067880003DA013AA2603C336360A368172B22DD69
:10679800E2690132E261A2690132062AC8BF002219
:1067A800A261E268183B0132A3602369E26055F8F0
:1067B80023108A4246DD01330C2B0CBF6369236129
:1067C800A2EB0102E26001BF013300222261636192
:1067D80008BFE26136E0002B34DAE269013AE2618F
:1067E800A269013A48BF0622A261E2681833013A59
:1067F800E260A36032BB2369013B01D423611DE041
:106808000B23236163695A1E12F0030F626103F2BE
:106818006B7305D1642193FBF1F201FB12324AB983
:106828004FF4C87193FBF1F201FB1233B3FA83F30F
:106838005B0900E0012303F5B673E361236955F8AA
:106848002330E36000F0C9FE2046BDE8F08100BFB8
:106858000C800D00E4E7032010B5431E0A44914262
:1068680004D011F8014B03F8014FF8E710BD0244BA
:106878000346934202D003F8011BFAE77047000071
:1068880038B5124B1C68A36B0546D3B91820FEF720
:106898009DF843F20E33A06303804AF6CD3343805C
:1068A80041F2342383804EF26D63C3804DF6EC636E
:1068B8000381052343810B23838101220023C0E93F
:1068C8000423A36B00221D615A6138BD28E203200E
:1068D80010F8012B11F8013B012A28BF9A42F7D082
:1068E800D01A7047034611F8012B03F8012B002A30
:1068F800F9D1704741698B0710B50CD1002940F2D6
:106908006C73A8BF6FF063030B44642493FBF4F229
:1069180004FB123383B9002940F26C73A8BF6FF0EF
:1069280063034FF4C8720B4493FBF2F102FB11337B
:10693800B3FA83F2520900E001228369C1695B005E
:1069480003EB01131344212B0EDC202B2FDA0D2B24
:1069580002DC0A2B05DB2AE0102B26DB112B26DDB7
:106968001C3B012B23D920E041F2C66293420EDC86
:1069780041F2C262934216DA41F2A262934212D005
:1069880013DBA3F5B553123B022B0CD90DE041F2F2
:10699800D562934207D041F2D762934203D041F2C5
:1069A800D362934201D1012010BD002010BD4FF0E9
:1069B800FF3010BD2DE9F04F93B00E461D46074637
:1069C800914600F051FD002306931C46731E039068
:1069D800029399F80030002B00F09284252B08D000
:1069E800029A944280F090843B5509F101090134E0
:1069F800EFE799F801A0BAF1300F07D0BAF12B0FE1
:106A080004D009F101094FF0000A01E009F1020977
:106A180099F80030313B082B08D848460A220AA9C1
:106A280000F018FDDDF82890804601E04FF00008DE
:106A380099F80030452B01D04F2B01D109F10109FC
:106A480099F80000A0F12503552B00F25D84DFE8DA
:106A580013F04A045B045B045B045B045B045B04A3
:106A68005B045B045B045B045B045B045B045B0426
:106A78005B045B045B045B045B045B045B045B0416
:106A88005B045B045B045B045B046F00A100D4003F
:106A98001A015B043F01A00126022D025B045B047E
:106AA8005B0460025B045B0468025B0497021D03DD
:106AB80025033B0343038603C600A0031F045B04AE
:106AC8005B045B045B045B045B0456008900BA004A
:106AD8000C010C015B04710189005B043D02260274
:106AE8002D025D0262025B0468025B04BE009C0228
:106AF8001F032E035B047F03C2009203E703AB6905
:106B0800039A183352F82380404600F007FC08F136
:106B1800FF383B192044844200F0EB83029A9442E8
:106B280080F0F28318F8012F03F8012B0134F2E703
:106B3800AB69039A02EB8303D3F87C80404600F0EC
:106B4800EDFB08F1FF383B192044844200F0D18363
:106B5800029A944280F0D88318F8012F03F8012B89
:106B68000134F2E72B69039A52F82380404600F07B
:106B7800D5FB08F1FF383B192044844200F0B98363
:106B8800029A944280F0C08318F8012F03F8012B71
:106B98000134F2E72B69039A0C3352F823804046FC
:106BA80000F0BCFB08F1FF383B192044844200F098
:106BB800A083029A944280F0A78318F8012F03F863
:106BC800012B0134F2E7039BD3F8A0800AE0039B72
:106BD800D3F8E48006E0039BD3F89C8002E0039B93
:106BE800D3F89880404600F099FB98F80030002BC5
:106BF80000F07F832B46424693E0B649D5F814B09F
:106C08008B45ACBF00210121BBF1000F04DB6420E0
:106C18009BFBF0F0133008E00BF26C70079100F06A
:106C280063FE0799642390FBF3F0BAF1000F08D0D4
:106C3800632809DDA84BA94ABAF12B0F18BF1346E0
:106C480003E0A64BA64A01E0A44BA64A0190B8F17E
:106C5800010F98BF4FF00208C1EB080100919D4851
:106C6800A1498345B8BF0B461EE2A04AA049EB687C
:106C7800642808BF0A46311B3819FDF7DFFE0028D3
:106C880080F2028340E368692B69002803F1010B55
:106C980007EB0408C4EB060AEB6805DB642290FBEB
:106CA800F2F102FB11000AE000F26C70079300F0A9
:106CB8001BFE6422079B90FBF2F101FB12008D4A38
:106CC8000190009351465B464046FDF7B7FED6E774
:106CD80025238DF82830BAF1000F07D0B8F1050F39
:106CE8008DF829A098BF4FF0060804E02B238DF8F3
:106CF80029304FF00A08B8F1060302D10DF12A0035
:106D08000AE07D4A1E210DF12A00FDF797FE0028B2
:106D1800F4DD0DF12A0318447849FFF7E3FD2B460B
:106D28000AAA311B3819FFF745FE002840F3EC8208
:106D38000444DEE22846FFF7DDFD80466869002846
:106D480005DB642290FBF2F102FB110008E000F27F
:106D58006C7000F0C9FD642290FBF2F303FB120093
:106D6800B8F1000F06DA6A69654B9A42B8BF4FF06E
:106D7800010806E005D06A69564B9A42B8BF4FF041
:106D8800FF386423404490FBF3F203FB12001844DD
:106D9800F9E1504B696908919942ACBF002301237E
:106DA80028460793FFF7A6FD08990029834604DBC8
:106DB800642391FBF3F3133308E001F26C7008913C
:106DC80000F092FD0899642390FBF3F368690028AA
:106DD80006DB4FF0640E90FBFEFC0EFB1C000DE082
:106DE80000F26C700991089300F07EFD4FF0640E7C
:106DF8000999089B90FBFEFC0CFB1E00BBF1000FE1
:106E080008DA69693E4A91420ADA4FF0010BCDF877
:106E18001CB005E004D02F4A9142B8BF4FF0FF3BA9
:106E28000BEB0002501C02D1013B632203E0642AF1
:106E380004BF01330022642000FB0323079A42B1F8
:106E48002D228DF82820B8F1000F13D008F1FF3853
:106E580010E0BAF12B0F10D142F20F7293420CD905
:106E68008DF828A0B8F1000FF0D112AA252102F858
:106E78001F1D0AE00DF1290200E00AAA2521117060
:106E8800BAF1000F01D1501C02E03021901C517062
:106E98001C490793FFF726FD079B0093ADE1144AB1
:106EA8001249AB686B2808BF0A46E4E6A9680C23B8
:106EB80031B199420EBF0B4691FBF3F203FB12135B
:106EC8000A4A0B49492808BF0A46D4E6EB690E4A24
:106ED8000133D0E694F8FFFF7B800D00267C0D007F
:106EE8006C800D0073800D007D800D007F800D008B
:106EF8008D800D0083800D0092800D0096800D001E
:106F080095F8FFFF9E800D00A2800D002B690133CC
:106F18003DE16B683BE1029B9C4280F0F5810A23CE
:106F2800E5E1AB68039A0B2BCCBFA423A023134441
:106F3800D3F80480404600F0F1F9B24BD3F800E0F2
:106F4800391942462044844200F0D381029B9C4276
:106F580080F0DA8199F80030502B04F1010413789D
:106F68000AD10EEB030C9CF801C00CF0030CBCF129
:106F7800010F08BF2033DBB201F8013B0132E2E721
:106F88006B680093A04AAB6839E12B6A002B17DBCA
:106F980000F022FB069B1BB900F020FB012306939F
:106FA80000F0EAFC2B6A002BD4BF002301231C222B
:106FB80002FB0300036AC3F1000800F00EFB01E0C6
:106FC8004FF00008D5F814E07046BEF145024FEACC
:106FD800E07141F1FF33002A73F1000BC4EB060C9A
:106FE80007EB040A03DABEF1420241F1FF339108CC
:106FF80041EA83719B10049105930EF1FF316423DC
:1070080091FBF3F1DDE90423521A63EBE1730EF20D
:107018002B104FF4C87190FBF1F1521843EBE17358
:10702800AEF1460E40F26D1101FB0EFEE96912EB5E
:107038000E0243EBEE7352184FF0180E43EBE17358
:10704800A2FB0E010EFB0311AB684FF03C0EC018FB
:1070580041EBE371A0FB0E230EFB01336968521864
:1070680043EBE173A2FB0E010EFB03112B68674A89
:10707800C01841EBE371B0EB080061EBE871CDE9B2
:10708800000161465046FDF7D9FCF8E52B687EE023
:10709800029B9C4280F03881092328E12B680193E8
:1070A8006B6800935A4AAB68311B38190DE6029B8E
:1070B8009C4280F02981AB69621C0BB9372300E040
:1070C80030333B55144614E1EB69AA6907339B1A20
:1070D800072293FBF2F35AE02846FFF70BFCAA6954
:1070E8000AB1531E00E0062300282FDCEA6901D10B
:1070F8000A323BE09A1A6B6940F26B71002BB4BFFD
:1071080008466FF064001844810707D101464FF024
:10711800640E90FBFEF00EFB101181B9002B40F2BB
:107128006B71A8BF6FF0640119444FF4C87391FBE9
:10713800F3F003FB1011B1FA81F1490900E00121D4
:10714800521A052AB4BF3523342320E001231EE058
:10715800029B9C4280F0D880AB693033C7E0AA69B3
:107168000AB1531E00E00623EA690732D21A072340
:1071780092FBF3F30BE06869002803DA00F26C7005
:1071880000F0B2FB642390FBF3F202FB1303214AE5
:1071980071E56B69204A934203F26C7B05DA2D2373
:1071A8008DF82830CBF1000B08E0BAF12B0F0DD188
:1071B80042F20F739B4511D98DF828A0B8F1000F42
:1071C80001D008F1FF380DF1290300E00AAB2522B0
:1071D8001A70BAF1000F08D1581C09E0B8F1000F75
:1071E800F4D125238DF828300AAB3022981C5A7028
:1071F8000A49FFF777FBCDF800B043460AAA311BCE
:1072080038193EE0C4E10320B1800D00A7800D00CD
:10721800AC800D008D800D0094F8FFFF9E800D005E
:107228002B6A002B65DB00F0D7F9069B1BB900F031
:10723800D5F90123069300F09FFB2B6A002BD4BFDE
:10724800002301231C2202FB030007EB040A036A44
:10725800C3F1000800F0C1F93C2398FBF3F0079351
:1072680000F026FC079B90FBF3F2C4EB060B02FB35
:107278001300284A0090594650464FF4616398FB22
:10728800F3F3FDF7DBFBFAE40444A64231D83BE014
:107298002B6A002B2DDB00F09FF9069B1BB900F031
:1072A8009DF9012306932B6A1B4A002BD4BF0023A8
:1072B800012352F82380404600F030F808F1FF38E7
:1072C8003B19204484420BD0029A944205D218F804
:1072D800012F03F8012B0134F4E700F07EF913E0E5
:1072E80000F07BF905E0029B9C420DD225233B551B
:1072F800013499F800301BB109F10109FFF769BBA6
:1073080026B100233B5501E0002000E0204613B0E1
:10731800BDE8F08FBB800D002CE20320034613F874
:10732800012B002AFBD1181A0138704730B582B1F9
:10733800451E013915F8013F11F8014FA34206D146
:10734800EC431444E04201D0002BF3D11C46181B37
:1073580030BD104630BD00002DE9F04780463C485E
:10736800D0F800900E46354615F8014B09EB04009D
:10737800407800F0080000F0FF0708B12E46F2E759
:107388002D2C03D1B51C7478012703E02B2C04BFE6
:107398007478B51C13B1102B0AD153E0302C4FD19F
:1073A800287800F0DF00582845D16C781023023582
:1073B8004FF0FF3C0026BCFBF3FC03FB0CFA6FEA22
:1073C8000A0A304609EB040E9EF801E01EF0040F8D
:1073D80001D0303C0BE01EF0030E1AD0BEF1010FB5
:1073E8000CBF4FF0370E4FF0570ECEEB0404A342FC
:1073F8000FDD002E08DB604506D801D1544503DCBB
:1074080003FB0040012601E04FF0FF3615F8014B61
:10741800D8E7002E07DA2223C8F800304FF0FF30F3
:107428002AB9BDE8F08707B1404272B106B1691EBA
:107438001160BDE8F0873024002BB9D10823B7E7E5
:107448000A23B5E7302CABD0B2E7BDE8F08700BF20
:10745800C4E1032013460A46014602480068FFF7C4
:107468007BBF00BF28E20320044B054A1868054B80
:10747800002814BF10461846704700BFC8E603200E
:10748800CCE60320F8810D002DE9F74F044600F003
:1074980073FA40F2B1739C4240F396806FF4F6633E
:1074A800E318A4F2B2729B1040F26D1505FB023589
:1074B800A4F26D726FF0630392FBF3F36FF4C8628A
:1074C8002B44A5184FF4C87295FBF2F51D446423AC
:1074D80094FBF2F794FBF3F602FB174703FB1646FF
:1074E80000F13803B7FA87FE019304F00303446000
:1074F8004FEA5E1E014600934FF0070C0B7A4A2BA9
:107508000ED14B69009AEC1802B906B927B93B2B82
:10751800D4BF0023012300E000232344013B3FE0C4
:10752800442B02D14B692B443AE0009B2BB9002E27
:107538000CBFF0464FF0010800E0F046244BCC6841
:10754800302202FB0838A8F1040AA9460123A34205
:1075580004DA5AF804BF0133D944F8E709F10403FF
:1075680093FBFCFBCBEBCB0A012CCAEB030A4B6960
:10757800B8BF012404F18044B3EB0A0A0B6904F193
:10758800FF3403F1FF3348BF0AF1070AC3EBC30313
:1075980058F824405344A34201DB073BFBE74B4424
:1075A8008C690C4A02FB03430C6A234441F81C3FD4
:1075B800019B9942A2D1C369826B9342ACBF00235D
:1075C80001230360012000E0002003B0BDE8F08F34
:1075D8000C800D008051010070477047014B1868FE
:1075E80000F002B828E203202DE9F04F8DB00746DD
:1075F80000F0C2F9B049B14E0446384600F0B4F97B
:10760800054660B9AE4BAF4A1860AF4B1860AF4B38
:1076180030681A605A60FDF7E1F9356048E1316871
:1076280079B93068FDF7DAF92846FFF777FE411C8B
:107638003846FDF713FA306048B12946FFF752F98A
:1076480005E0FFF745F9002800F03281E9E72B78DB
:107658009F4AA0493A2B08BF01350AAE334628464F
:10766800FDF7DCF9002840F323810A9BEF18EB5C57
:107678002D2B03D101374FF0FF3503E02B2B08BF2B
:10768800013701250DF1200A0DF11E0B4FF00008FE
:107698000396CDF808A00196CDF800B0334607AAA6
:1076A8008D49ADF81E803846ADF82080FDF7B6F953
:1076B800404540F3FD80BDF81E20BDF82030DFF8BE
:1076C80024923C2101FB0233BDF81C204FF4616178
:1076D80001FB02335D4325627C4D7D4B2B600A9B89
:1076E8007C491F444A4633463846FDF797F94045DA
:1076F80008DC2B686B60724B226A1A60724BC3F805
:107708000080D5E00A9BC5F80490FD18FB5C2D2B82
:1077180003D101354FF0FF3703E02B2B08BF0135AC
:1077280001270023ADF81C30ADF81E30ADF820302D
:107738000A930396CDF808A00196CDF800B0334619
:1077480007AA65492846FDF769F9002804DC236A79
:10775800A3F56163E3630EE0BDF81E20BDF8203099
:107768003C2101FB0233BDF81C204FF4616101FB91
:1077780002335F43E7630A9B27461D444FF0000925
:107788002B782C2B08BF013595F80080B8F14D0FE8
:1077980026D10DF12603029309AB009303960196B7
:1077A80033460DF122024D492846FDF737F90328E3
:1077B8007ED1BDF822104B1E0B2B79D8BDF82420A2
:1077C800531E042B74D8BDF82630062B70D887F8C2
:1077D8000880F9603A617B610A9B05EB03082AE09F
:1077E800B8F14A0F06BF0135434644230A220BA9C4
:1077F80028460593FFF72EFEDDF82C80ADF826000D
:107808004545059B14D14D23B9F1000F07D12372CB
:107818000323E36002232361C4F814900BE084F887
:1078280024300B23A3620123E3620023236302E0D5
:1078380080B23B7278610223ADF81C300023ADF8AA
:107848001E30ADF820300A9398F800302F2B0BD15A
:107858000396CDF808A00196CDF800B0334607AAE4
:107868001F494046FDF7DAF8BDF81E20BDF8203064
:107878003C2101FB0233BDF81C204FF4616101FB80
:107888000233BB610A9D09F10109B9F1020F4544B0
:1078980007F11C077FF474AF6068FFF7F5FD084B2C
:1078A800226A1A60E36B9B1A074A18BF0123136008
:1078B8000DB0BDE8F08F00BFF4820D00E0E70320B3
:1078C800E8E70320F7820D00E4E703202CE2032019
:1078D800D3E70320FB820D001E830D000A830D00F1
:1078E8001D830D00C8E703200028B8BF4042704739
:1078F8002DE9F84F07468B46904600F0DDF8194B06
:107908001D689A463DB15C46234613F8012B42B1E7
:107918003D2A1C46F8D1384600F0CFF80020BDE8D3
:10792800F88FCBEB0404A94659F8040B0028F2D0D1
:1079380022465946FFF7FAFC88B959F8043C1E1943
:107948001B5D3D2B0BD1DAF80030ED1AAD1038462F
:10795800C8F8005000F0B1F8701CBDE8F88F4D462B
:10796800E1E700BF74E2032007B501AAFFF7C0FFF3
:1079780003B05DF804FB00000048704734E20320C0
:107988000268474BF0B592FBF3F403FB1422002A7C
:10799800BCBF02F5A83202F5C0724FF4616004F56D
:1079A8002F2492FBF0F300FB13224FF03C00ACBFF6
:1079B80004F66C2404F66B248B6092FBF0F300FB56
:1079C80013224B600A600723E21C92FBF3F3C3EB1C
:1079D800C303D31A8B61334B334D94FBF5F503FB8B
:1079E800054448F6AC62B4FBF2F2224440F2B457C4
:1079F800B4FBF7F3D21A2D48B4FBF0F048F69466BE
:107A0800131AB3FBF6F6344440F26D12B3FBF2F0EE
:107A1800B3FBF7F3E31A02FB1033992403EB830259
:107A28000232B2FBF4F20A2A04FB02F404F1020661
:107A38004FF00504B6FBF4F434BF02266FF00906D4
:107A480016444FF4C87202FB05055F1C012E98BF4F
:107A58000135B3F5997FA7EB040702D3A3F5997213
:107A680014E0820705D16424B0FBF4F204FB12028F
:107A78004AB94FF4C872B0FBF2F402FB1400B0FA32
:107A880080F2520900E001223B331A44A5F26C75DA
:107A98000023CA614D610E61CF600B620846F0BDDC
:107AA800805101004FC5FDFFB13A0200B03A020013
:107AB8000028B8BF40427047704770471D400D000E
:107AC80059400D0085400D0089400D000000000060
:107AD80043616C6C6261636B007B226465766963E9
:107AE800654944223A222573222C2274696D6573F4
:107AF80074616D70223A222573222C2274656D7090
:107B080065726174757265223A25662C2274656DFA
:107B180070556E6974223A222563222C2268756D8D
:107B28006964697479223A25662C2268756D556EE8
:107B38006974223A222563227D0025730073656EDD
:107B4800736F7244617461007075626C6973686503
:107B5800640000000000000000000000D34A0D008F
:107B6800C94A0D00BF4A0D00B54A0D00A94A0D00CB
:107B78009D4A0D00914A0D00894A0D007F4A0D006B
:107B8800754A0D00015E0D000000000000000000B5
:107B9800F14A0D00F34A0D0000000000000000004B
:107BA80089510D00AD510D00694B0D00934C0D002E
:107BB800614B0D007F4B0D009D4B0D00B74B0D0029
:107BC800DB4B0D00774C0D00794F0D00194D0D0062
:107BD800994E0D00494B0D001F510D001D4E0D0013
:107BE800514D0D004D510D00BD4C0D00574B0D0072
:107BF800F94C0D005D4B0D00B94B0D00F0FFFFFF78
:107C080000000000D34B0D0066006C6E00666E002D
:107C1800636F64650064657461696C000D0A002512
:107C28003031307520005D20002C200028293A20B2
:107C380000205B00636F6465203D200025690064B7
:107C4800657461696C73203D20006261756400533E
:107C5800657269616C0053657269616C3100747991
:107C6800706500706172616D00636D640069640025
:107C7800686E64007374726D0066696C74006C766B
:107C88006C0061646448616E646C65720072656D55
:107C98006F766548616E646C657200656E756D48D7
:107CA800616E646C657273004A534F4E537472650B
:107CB800616D4C6F6748616E646C657200617070CD
:107CC800006E6F6E6500747261636500696E666F41
:107CD800007761726E006572726F720070616E6912
:107CE8006300616C6C00252B3033643A25303275A3
:107CF8000025592D256D2D25645425483A254D3AE2
:107D08002553257A0061736374696D65000000006E
:107D180000000000000000003F570D0031570D0023
:107D280033570D00000000000000000045580D000A
:107D380089580D0063580D008B520D005D580D00D9
:107D480047580D004F580D0083580D0057580D0027
:107D580041580D00000000000000000029590D00E6
:107D68004D590D0059590D008B520D0035590D0014
:107D780041590D003B590D0047590D002B590D0075
:107D88002F590D000000000000000000FD590D00F3
:107D9800475A0D001F5A0D00FF590D00275A0D00B4
:107DA8002F5A0D00375A0D003F5A0D0000000000F1
:107DB80000000000DF5A0D00D55A0D00CB5A0D0007
:107DC800C15A0D00B55A0D00A95A0D009D5A0D0053
:107DD800955A0D008B5A0D00815A0D00015E0D0059
:107DE800666630333A3A313A3130303100746831AE
:107DF800006D65736870756200776972696E6700F7
:107E08007061727365207061636B6574202564000E
:107E18000000000000000000995D0D00A35D0D004A
:107E2800AD5D0D00B75D0D00C15D0D00CD5D0D00B0
:107E3800D95D0D00E55D0D00ED5D0D00F75D0D00F0
:107E4800015E0D0053756E4D6F6E54756557656410
:107E58005468754672695361744A616E4665624D2D
:107E680061724170724D61794A756E4A756C4175DF
:107E7800675365704F63744E6F76446563252E3380
:107E88007320252E337325336420252E32643A253A
:107E98002E32643A252E32642025640A0000202000
:107EA80020202020202020282828282820202020A2
:107EB8002020202020202020202020202020881062
:107EC80010101010101010101010101010100404C2
:107ED80004040404040404041010101010101041C9
:107EE800414141414101010101010101010101013A
:107EF80001010101010101010110101010101042CF
:107F08004242424242020202020202020202020209
:107F180002020202020202020210101010200000E7
:107F28000000000000000000000000000000000049
:107F38000000000000000000000000000000000039
:107F48000000000000000000000000000000000029
:107F58000000000000000000000000000000000019
:107F68000000000000000000000000000000000009
:107F780000000000000000000000000000000000F9
:107F880000000000000000000000000000000000E9
:107F980000000000000000000000000000000000D9
:107FA80000000000000000000000000000000000C9
:107FB80000000000000000000000000000000000B9
:107FC80000000000000000000000000000000000A9
:107FD8000000000000000000000000000000000099
:107FE8000000000000000000000000000000000089
:107FF8000000000000000000000000000000000079
:10800800430000001F0000001C0000001F000000CB
:108018001E0000001F0000001E0000001F000000DE
:108028001F0000001E0000001F0000001E000000CE
:108038001F0000001F0000001D0000001F000000BE
:108048001E0000001F0000001E0000001F000000AE
:108058001F0000001E0000001F0000001E0000009E
:108068001F0000002573252E2A6400257325302E55
:108078002A64002B002D0025326400252E32642F3F
:10808800252E32642F252E326400256C7500592D5B
:10809800256D2D2564002E2A7500252E33640025B4
:1080A8006C6C6400252E32643A252E32643A252EF3
:1080B800326400252B30336C64252E326C64004CFE
:1080C800435F54494D45004A616E00466562004D64
:1080D800617200417072004D6179004A756E004A04
:1080E800756C0041756700536570004F6374004EEE
:1080F8006F7600446563004A616E75617279004667
:1081080065627275617279004D61726368004170D1
:1081180072696C004A756E65004A756C7900417524
:10812800677573740053657074656D626572004F8E
:1081380063746F626572004E6F76656D626572007A
:10814800446563656D6265720053756E004D6F6EB0
:108158000054756500576564005468750046726977
:10816800005361740053756E646179004D6F6E64DD
:1081780061790054756573646179005765646E654B
:10818800736461790054687572736461790046722A
:108198006964617900536174757264617900254876
:1081A8003A254D3A255300256D2F25642F25790052
:1081B80025612025622025652025483A254D3A2548
:1081C8005320255900414D00504D0025612025625E
:1081D8002025652025483A254D3A255320255A2043
:1081E80025590025493A254D3A2553202570000088
:1081F800CF800D00D3800D00D7800D00DB800D00EF
:10820800DF800D00E3800D00E7800D00EB800D009E
:10821800EF800D00F3800D00F7800D00FB800D004E
:10822800FF800D0007810D0010810D0016810D00E3
:10823800DF800D001C810D0021810D0026810D00BD
:108248002D810D0037810D003F810D0048810D0003
:1082580051810D0055810D0059810D005D810D0082
:1082680061810D0065810D0069810D006D810D0032
:1082780074810D007B810D0083810D008D810D00BF
:1082880096810D009D810D00A6810D00AF810D0026
:10829800B8810D00CD810D00D0810D00D3810D0076
:1082A800FF800D0007810D0010810D0016810D0063
:1082B800DF800D001C810D0021810D0026810D003D
:1082C8002D810D0037810D003F810D0048810D0083
:1082D800727C0D00EB810D00267C0D00267C0D00C4
:1082E800267C0D00267C0D00267C0D00545A004784
:1082F8004D54002531305B5E302D392C2B2D5D25FA
:108308006E004D256875256E2E256875256E2E25FF
:108318006875256E002F256875256E3A25687525C0
:108328006E3A256875256E00F9410D0031420D0041
:10833800AD440D00DD4A0D00314B0D00E1530D0039
:10834800F9550D0031560D004D5D0D00CD5E0D0047
:108358004D5F0D00DD5F0D0061600D0025610D00B2
:08836800E9610D0000000000B6
:10837000F97C0D000D7D0D00A57E0D0000000000B4
:10838000A87F0D00C87F0D00E87F0D0000000000F1
:1083900000000000000000000000000008800D0048
:1083A00000000000000000000000000000000000CD
:1083B00000000000000000000000000000000000BD
:1083C00000000000000000000000000000000000AD
:1083D000000000000000000000000000C8E10320D1
:1083E000F7820D00F7820D00010000000000000080
:1083F0004A00000000000000000000000000000033
:108400000000000000000000000000004A00000022
:10841000000000000000000000000000000000005C
:0C8420000000000000000000ECE703205A
:10842C00FFFFFFFF00000102030405060708090A0D
:10843C000B0C0D0E0F101112131415161718191A08
:08844C001B1C1D1E1F2028004F
:048454007856341210
:04000003D0004018D1
:00000001FF
